{
  "abi": [
    {
      "anonymous": false,
      "inputs": [
        {
          "indexed": true,
          "internalType": "address",
          "name": "owner",
          "type": "address"
        },
        {
          "indexed": true,
          "internalType": "address",
          "name": "spender",
          "type": "address"
        },
        {
          "indexed": false,
          "internalType": "uint256",
          "name": "value",
          "type": "uint256"
        }
      ],
      "name": "Approval",
      "type": "event"
    },
    {
      "anonymous": false,
      "inputs": [
        {
          "indexed": true,
          "internalType": "address",
          "name": "from",
          "type": "address"
        },
        {
          "indexed": true,
          "internalType": "address",
          "name": "to",
          "type": "address"
        },
        {
          "indexed": false,
          "internalType": "uint256",
          "name": "value",
          "type": "uint256"
        }
      ],
      "name": "Transfer",
      "type": "event"
    },
    {
      "inputs": [
        {
          "internalType": "address",
          "name": "owner",
          "type": "address"
        },
        {
          "internalType": "address",
          "name": "spender",
          "type": "address"
        }
      ],
      "name": "allowance",
      "outputs": [
        {
          "internalType": "uint256",
          "name": "",
          "type": "uint256"
        }
      ],
      "stateMutability": "view",
      "type": "function"
    },
    {
      "inputs": [
        {
          "internalType": "address",
          "name": "spender",
          "type": "address"
        },
        {
          "internalType": "uint256",
          "name": "amount",
          "type": "uint256"
        }
      ],
      "name": "approve",
      "outputs": [
        {
          "internalType": "bool",
          "name": "",
          "type": "bool"
        }
      ],
      "stateMutability": "nonpayable",
      "type": "function"
    },
    {
      "inputs": [
        {
          "internalType": "address",
          "name": "account",
          "type": "address"
        }
      ],
      "name": "balanceOf",
      "outputs": [
        {
          "internalType": "uint256",
          "name": "",
          "type": "uint256"
        }
      ],
      "stateMutability": "view",
      "type": "function"
    },
    {
      "inputs": [],
      "name": "decimals",
      "outputs": [
        {
          "internalType": "uint8",
          "name": "",
          "type": "uint8"
        }
      ],
      "stateMutability": "pure",
      "type": "function"
    },
    {
      "inputs": [
        {
          "internalType": "address",
          "name": "account",
          "type": "address"
        },
        {
          "internalType": "uint256",
          "name": "amount",
          "type": "uint256"
        }
      ],
      "name": "mint",
      "outputs": [],
      "stateMutability": "nonpayable",
      "type": "function"
    },
    {
      "inputs": [],
      "name": "totalSupply",
      "outputs": [
        {
          "internalType": "uint256",
          "name": "",
          "type": "uint256"
        }
      ],
      "stateMutability": "view",
      "type": "function"
    },
    {
      "inputs": [
        {
          "internalType": "address",
          "name": "to",
          "type": "address"
        },
        {
          "internalType": "uint256",
          "name": "amount",
          "type": "uint256"
        }
      ],
      "name": "transfer",
      "outputs": [
        {
          "internalType": "bool",
          "name": "",
          "type": "bool"
        }
      ],
      "stateMutability": "nonpayable",
      "type": "function"
    },
    {
      "inputs": [
        {
          "internalType": "address",
          "name": "from",
          "type": "address"
        },
        {
          "internalType": "address",
          "name": "to",
          "type": "address"
        },
        {
          "internalType": "uint256",
          "name": "amount",
          "type": "uint256"
        }
      ],
      "name": "transferFrom",
      "outputs": [
        {
          "internalType": "bool",
          "name": "",
          "type": "bool"
        }
      ],
      "stateMutability": "nonpayable",
      "type": "function"
    }
  ],
  "bytecode": {
    "object": "0x633b9aca0060005560c0604052600660809081526508ed8d2e8c6d60d31b60a05260049061002d9082610108565b5060408051808201909152600481526308e9886960e31b60208201526005906100569082610108565b5034801561006357600080fd5b506101c7565b634e487b7160e01b600052604160045260246000fd5b600181811c9082168061009357607f821691505b6020821081036100b357634e487b7160e01b600052602260045260246000fd5b50919050565b601f82111561010357600081815260208120601f850160051c810160208610156100e05750805b601f850160051c820191505b818110156100ff578281556001016100ec565b5050505b505050565b81516001600160401b0381111561012157610121610069565b6101358161012f845461007f565b846100b9565b602080601f83116001811461016a57600084156101525750858301515b600019600386901b1c1916600185901b1785556100ff565b600085815260208120601f198616915b828110156101995788860151825594840194600190910190840161017a565b50858210156101b75787850151600019600388901b60f8161c191681555b5050505050600190811b01905550565b610782806101d66000396000f3fe608060405234801561001057600080fd5b50600436106100885760003560e01c806340c10f191161005b57806340c10f19146100e957806370a08231146100fe578063a9059cbb14610127578063dd62ed3e1461013a57600080fd5b8063095ea7b31461008d57806318160ddd146100b557806323b872dd146100c7578063313ce567146100da575b600080fd5b6100a061009b366004610670565b610173565b60405190151581526020015b60405180910390f35b6003545b6040519081526020016100ac565b6100a06100d536600461069a565b61018d565b604051601281526020016100ac565b6100fc6100f7366004610670565b6101b1565b005b6100b961010c3660046106d6565b6001600160a01b031660009081526001602052604090205490565b6100a0610135366004610670565b6101bf565b6100b96101483660046106f8565b6001600160a01b03918216600090815260026020908152604080832093909416825291909152205490565b6000336101818185856101cd565b60019150505b92915050565b60003361019b8582856102f6565b6101a6858585610388565b506001949350505050565b6101bb8282610534565b5050565b600033610181818585610388565b6001600160a01b0383166102345760405162461bcd60e51b8152602060048201526024808201527f45524332303a20617070726f76652066726f6d20746865207a65726f206164646044820152637265737360e01b60648201526084015b60405180910390fd5b6001600160a01b0382166102955760405162461bcd60e51b815260206004820152602260248201527f45524332303a20617070726f766520746f20746865207a65726f206164647265604482015261737360f01b606482015260840161022b565b6001600160a01b0383811660008181526002602090815260408083209487168084529482529182902085905590518481527f8c5be1e5ebec7d5bd14f71427d1e84f3dd0314c0f7b2291e5b200ac8c7c3b925910160405180910390a3505050565b6001600160a01b03838116600090815260026020908152604080832093861683529290522054600019811461038257818110156103755760405162461bcd60e51b815260206004820152601d60248201527f45524332303a20696e73756666696369656e7420616c6c6f77616e6365000000604482015260640161022b565b61038284848484036101cd565b50505050565b6001600160a01b0383166103ec5760405162461bcd60e51b815260206004820152602560248201527f45524332303a207472616e736665722066726f6d20746865207a65726f206164604482015264647265737360d81b606482015260840161022b565b6001600160a01b03821661044e5760405162461bcd60e51b815260206004820152602360248201527f45524332303a207472616e7366657220746f20746865207a65726f206164647260448201526265737360e81b606482015260840161022b565b6001600160a01b038316600090815260016020526040902054818110156104c65760405162461bcd60e51b815260206004820152602660248201527f45524332303a207472616e7366657220616d6f756e7420657863656564732062604482015265616c616e636560d01b606482015260840161022b565b6001600160a01b0380851660008181526001602052604080822086860390559286168082529083902080548601905591517fddf252ad1be2c89b69c2b068fc378daa952ba7f163c4a11628f55a4df523b3ef906105269086815260200190565b60405180910390a350505050565b6001600160a01b03821661058a5760405162461bcd60e51b815260206004820152601f60248201527f45524332303a206d696e7420746f20746865207a65726f206164647265737300604482015260640161022b565b6000548160035461059b919061072b565b11156105e95760405162461bcd60e51b815260206004820152601e60248201527f45524332303a206d696e7420616d6f756e742065786365656473206361700000604482015260640161022b565b80600360008282546105fb919061072b565b90915550506001600160a01b0382166000818152600160209081526040808320805486019055518481527fddf252ad1be2c89b69c2b068fc378daa952ba7f163c4a11628f55a4df523b3ef910160405180910390a35050565b80356001600160a01b038116811461066b57600080fd5b919050565b6000806040838503121561068357600080fd5b61068c83610654565b946020939093013593505050565b6000806000606084860312156106af57600080fd5b6106b884610654565b92506106c660208501610654565b9150604084013590509250925092565b6000602082840312156106e857600080fd5b6106f182610654565b9392505050565b6000806040838503121561070b57600080fd5b61071483610654565b915061072260208401610654565b90509250929050565b8082018082111561018757634e487b7160e01b600052601160045260246000fdfea264697066735822122092d5f6ef30bbb92ae95b272f4b5c89c1c759c08547e617273733f6bf5083023364736f6c63430008120033",
    "linkReferences": {}
  },
  "methodIdentifiers": {
    "allowance(address,address)": "dd62ed3e",
    "approve(address,uint256)": "095ea7b3",
    "balanceOf(address)": "70a08231",
    "decimals()": "313ce567",
    "mint(address,uint256)": "40c10f19",
    "totalSupply()": "18160ddd",
    "transfer(address,uint256)": "a9059cbb",
    "transferFrom(address,address,uint256)": "23b872dd"
  },
  "id": 18
}