{
  "abi": [
    {
      "anonymous": false,
      "inputs": [
        {
          "indexed": true,
          "internalType": "address",
          "name": "owner",
          "type": "address"
        },
        {
          "indexed": true,
          "internalType": "address",
          "name": "spender",
          "type": "address"
        },
        {
          "indexed": false,
          "internalType": "uint256",
          "name": "value",
          "type": "uint256"
        }
      ],
      "name": "Approval",
      "type": "event"
    },
    {
      "anonymous": false,
      "inputs": [
        {
          "indexed": true,
          "internalType": "address",
          "name": "from",
          "type": "address"
        },
        {
          "indexed": true,
          "internalType": "address",
          "name": "to",
          "type": "address"
        },
        {
          "indexed": false,
          "internalType": "uint256",
          "name": "value",
          "type": "uint256"
        }
      ],
      "name": "Transfer",
      "type": "event"
    },
    {
      "inputs": [],
      "name": "DECIMALS",
      "outputs": [
        {
          "internalType": "uint256",
          "name": "",
          "type": "uint256"
        }
      ],
      "stateMutability": "view",
      "type": "function"
    },
    {
      "inputs": [],
      "name": "_pi_quorum",
      "outputs": [
        {
          "internalType": "uint256",
          "name": "",
          "type": "uint256"
        }
      ],
      "stateMutability": "view",
      "type": "function"
    },
    {
      "inputs": [
        {
          "internalType": "uint256",
          "name": "proposalid",
          "type": "uint256"
        },
        {
          "internalType": "uint256",
          "name": "stake",
          "type": "uint256"
        }
      ],
      "name": "aVoteParticipate",
      "outputs": [],
      "stateMutability": "nonpayable",
      "type": "function"
    },
    {
      "inputs": [
        {
          "internalType": "address",
          "name": "owner",
          "type": "address"
        },
        {
          "internalType": "address",
          "name": "spender",
          "type": "address"
        }
      ],
      "name": "allowance",
      "outputs": [
        {
          "internalType": "uint256",
          "name": "",
          "type": "uint256"
        }
      ],
      "stateMutability": "view",
      "type": "function"
    },
    {
      "inputs": [],
      "name": "applicationExpiry",
      "outputs": [
        {
          "internalType": "uint256",
          "name": "",
          "type": "uint256"
        }
      ],
      "stateMutability": "view",
      "type": "function"
    },
    {
      "inputs": [
        {
          "internalType": "address",
          "name": "spender",
          "type": "address"
        },
        {
          "internalType": "uint256",
          "name": "amount",
          "type": "uint256"
        }
      ],
      "name": "approve",
      "outputs": [
        {
          "internalType": "bool",
          "name": "",
          "type": "bool"
        }
      ],
      "stateMutability": "nonpayable",
      "type": "function"
    },
    {
      "inputs": [
        {
          "internalType": "uint256",
          "name": "proposalid",
          "type": "uint256"
        },
        {
          "internalType": "string",
          "name": "url",
          "type": "string"
        }
      ],
      "name": "articleRegister",
      "outputs": [],
      "stateMutability": "nonpayable",
      "type": "function"
    },
    {
      "inputs": [
        {
          "internalType": "address",
          "name": "account",
          "type": "address"
        }
      ],
      "name": "balanceOf",
      "outputs": [
        {
          "internalType": "uint256",
          "name": "",
          "type": "uint256"
        }
      ],
      "stateMutability": "view",
      "type": "function"
    },
    {
      "inputs": [],
      "name": "claimRewardA",
      "outputs": [],
      "stateMutability": "nonpayable",
      "type": "function"
    },
    {
      "inputs": [
        {
          "internalType": "uint256",
          "name": "wregisterid",
          "type": "uint256"
        }
      ],
      "name": "claimRewardW",
      "outputs": [],
      "stateMutability": "nonpayable",
      "type": "function"
    },
    {
      "inputs": [],
      "name": "decimals",
      "outputs": [
        {
          "internalType": "uint8",
          "name": "",
          "type": "uint8"
        }
      ],
      "stateMutability": "pure",
      "type": "function"
    },
    {
      "inputs": [],
      "name": "getETH",
      "outputs": [],
      "stateMutability": "nonpayable",
      "type": "function"
    },
    {
      "inputs": [
        {
          "internalType": "address",
          "name": "",
          "type": "address"
        }
      ],
      "name": "members",
      "outputs": [
        {
          "internalType": "address",
          "name": "_address",
          "type": "address"
        },
        {
          "internalType": "uint256",
          "name": "votes",
          "type": "uint256"
        },
        {
          "internalType": "uint256",
          "name": "challenges",
          "type": "uint256"
        }
      ],
      "stateMutability": "view",
      "type": "function"
    },
    {
      "inputs": [
        {
          "internalType": "address",
          "name": "account",
          "type": "address"
        },
        {
          "internalType": "uint256",
          "name": "amount",
          "type": "uint256"
        }
      ],
      "name": "mint",
      "outputs": [],
      "stateMutability": "nonpayable",
      "type": "function"
    },
    {
      "inputs": [
        {
          "internalType": "uint256",
          "name": "",
          "type": "uint256"
        }
      ],
      "name": "proposalids",
      "outputs": [
        {
          "internalType": "uint256",
          "name": "",
          "type": "uint256"
        }
      ],
      "stateMutability": "view",
      "type": "function"
    },
    {
      "inputs": [
        {
          "internalType": "uint256",
          "name": "",
          "type": "uint256"
        }
      ],
      "name": "proposals",
      "outputs": [
        {
          "internalType": "address",
          "name": "proposer",
          "type": "address"
        },
        {
          "internalType": "uint256",
          "name": "stake",
          "type": "uint256"
        },
        {
          "internalType": "uint256",
          "name": "p_expiry",
          "type": "uint256"
        },
        {
          "internalType": "uint256",
          "name": "vstartTime",
          "type": "uint256"
        },
        {
          "internalType": "uint256",
          "name": "totalstake",
          "type": "uint256"
        },
        {
          "internalType": "uint256",
          "name": "totalvotes",
          "type": "uint256"
        },
        {
          "internalType": "uint256",
          "name": "totalchallenges",
          "type": "uint256"
        }
      ],
      "stateMutability": "view",
      "type": "function"
    },
    {
      "inputs": [
        {
          "internalType": "uint256",
          "name": "_expiry",
          "type": "uint256"
        },
        {
          "internalType": "uint256",
          "name": "_voteStartTime",
          "type": "uint256"
        }
      ],
      "name": "propose",
      "outputs": [],
      "stateMutability": "payable",
      "type": "function"
    },
    {
      "inputs": [],
      "name": "totalSupply",
      "outputs": [
        {
          "internalType": "uint256",
          "name": "",
          "type": "uint256"
        }
      ],
      "stateMutability": "view",
      "type": "function"
    },
    {
      "inputs": [
        {
          "internalType": "address",
          "name": "to",
          "type": "address"
        },
        {
          "internalType": "uint256",
          "name": "amount",
          "type": "uint256"
        }
      ],
      "name": "transfer",
      "outputs": [
        {
          "internalType": "bool",
          "name": "",
          "type": "bool"
        }
      ],
      "stateMutability": "nonpayable",
      "type": "function"
    },
    {
      "inputs": [
        {
          "internalType": "address",
          "name": "from",
          "type": "address"
        },
        {
          "internalType": "address",
          "name": "to",
          "type": "address"
        },
        {
          "internalType": "uint256",
          "name": "amount",
          "type": "uint256"
        }
      ],
      "name": "transferFrom",
      "outputs": [
        {
          "internalType": "bool",
          "name": "",
          "type": "bool"
        }
      ],
      "stateMutability": "nonpayable",
      "type": "function"
    },
    {
      "inputs": [
        {
          "internalType": "uint256",
          "name": "proposalid",
          "type": "uint256"
        },
        {
          "internalType": "uint256",
          "name": "articleid",
          "type": "uint256"
        }
      ],
      "name": "voteRanking",
      "outputs": [],
      "stateMutability": "nonpayable",
      "type": "function"
    },
    {
      "inputs": [
        {
          "internalType": "uint256",
          "name": "wRegisterID",
          "type": "uint256"
        },
        {
          "internalType": "bool",
          "name": "voteFor",
          "type": "bool"
        }
      ],
      "name": "voteRegister",
      "outputs": [],
      "stateMutability": "nonpayable",
      "type": "function"
    },
    {
      "inputs": [
        {
          "internalType": "uint256",
          "name": "",
          "type": "uint256"
        }
      ],
      "name": "wRegisterids",
      "outputs": [
        {
          "internalType": "uint256",
          "name": "",
          "type": "uint256"
        }
      ],
      "stateMutability": "view",
      "type": "function"
    },
    {
      "inputs": [
        {
          "internalType": "uint256",
          "name": "wregisterid",
          "type": "uint256"
        },
        {
          "internalType": "uint256",
          "name": "stake",
          "type": "uint256"
        }
      ],
      "name": "wVoteParticipate",
      "outputs": [],
      "stateMutability": "nonpayable",
      "type": "function"
    },
    {
      "inputs": [
        {
          "internalType": "uint256",
          "name": "_expiry",
          "type": "uint256"
        }
      ],
      "name": "writerRegister",
      "outputs": [],
      "stateMutability": "payable",
      "type": "function"
    },
    {
      "inputs": [
        {
          "internalType": "uint256",
          "name": "",
          "type": "uint256"
        }
      ],
      "name": "writerRegistries",
      "outputs": [
        {
          "internalType": "address",
          "name": "writer",
          "type": "address"
        },
        {
          "internalType": "uint256",
          "name": "stake",
          "type": "uint256"
        },
        {
          "internalType": "uint256",
          "name": "p_expiry",
          "type": "uint256"
        },
        {
          "internalType": "uint256",
          "name": "voteFor",
          "type": "uint256"
        },
        {
          "internalType": "uint256",
          "name": "voteAgainst",
          "type": "uint256"
        },
        {
          "internalType": "uint256",
          "name": "voteForstake",
          "type": "uint256"
        },
        {
          "internalType": "uint256",
          "name": "voteAgainststake",
          "type": "uint256"
        },
        {
          "internalType": "uint256",
          "name": "totalstake",
          "type": "uint256"
        },
        {
          "internalType": "uint256",
          "name": "totalvotes",
          "type": "uint256"
        },
        {
          "internalType": "uint256",
          "name": "totalchallenges",
          "type": "uint256"
        },
        {
          "internalType": "enum Article_DAO.VotingResult",
          "name": "votingResult",
          "type": "uint8"
        }
      ],
      "stateMutability": "view",
      "type": "function"
    },
    {
      "inputs": [
        {
          "internalType": "address",
          "name": "",
          "type": "address"
        }
      ],
      "name": "writers",
      "outputs": [
        {
          "internalType": "bool",
          "name": "",
          "type": "bool"
        }
      ],
      "stateMutability": "view",
      "type": "function"
    }
  ],
  "bytecode": {
    "object": "0x60c0604052600660809081526508ed8d2e8c6d60d31b60a05260039062000027908262000146565b506040805180820190915260048082526308e9886960e31b60208301529062000051908262000146565b506001600555600160065560016007556001600855600a612710600562000079919062000212565b6200008591906200023e565b60095560646013553480156200009a57600080fd5b5062000261565b634e487b7160e01b600052604160045260246000fd5b600181811c90821680620000cc57607f821691505b602082108103620000ed57634e487b7160e01b600052602260045260246000fd5b50919050565b601f8211156200014157600081815260208120601f850160051c810160208610156200011c5750805b601f850160051c820191505b818110156200013d5782815560010162000128565b5050505b505050565b81516001600160401b03811115620001625762000162620000a1565b6200017a81620001738454620000b7565b84620000f3565b602080601f831160018114620001b25760008415620001995750858301515b600019600386901b1c1916600185901b1785556200013d565b600085815260208120601f198616915b82811015620001e357888601518255948401946001909101908401620001c2565b5085821015620002025787850151600019600388901b60f8161c191681555b5050505050600190811b01905550565b80820281158282048414176200023857634e487b7160e01b600052601160045260246000fd5b92915050565b6000826200025c57634e487b7160e01b600052601260045260246000fd5b500490565b612a9680620002716000396000f3fe60806040526004361061019c5760003560e01c806340c10f19116100ec578063944406791161008a578063af8b9f7a11610064578063af8b9f7a1461052e578063dcd409e01461054e578063dd62ed3e146105e6578063ed0477611461062c57600080fd5b806394440679146104ce5780639c9eacb2146104ee578063a9059cbb1461050e57600080fd5b806370a08231116100c657806370a082311461043f578063826d053a146104755780638607bc0f1461048b5780638e7e80a21461049e57600080fd5b806340c10f19146103ec578063494bdc021461040c5780635b4c9c591461042c57600080fd5b80631c1e3105116101595780632e0f2625116101335780632e0f26251461037a578063313ce567146103905780633616db13146103ac5780633ac16074146103cc57600080fd5b80631c1e310514610338578063213462091461034e57806323b872dd1461035a57600080fd5b8063012d0ec1146101a1578063013cf08b146101c357806308ae4b0c14610269578063095ea7b3146102d457806314f6c3be1461030457806318160ddd14610319575b600080fd5b3480156101ad57600080fd5b506101c16101bc366004612596565b61064c565b005b3480156101cf57600080fd5b506102256101de366004612612565b600e6020526000908152604090208054600182015460028301546003840154600485015460058601546006909601546001600160a01b039095169593949293919290919087565b604080516001600160a01b0390981688526020880196909652948601939093526060850191909152608084015260a083015260c082015260e0015b60405180910390f35b34801561027557600080fd5b506102af610284366004612647565b600f602052600090815260409020805460018201546002909201546001600160a01b03909116919083565b604080516001600160a01b039094168452602084019290925290820152606001610260565b3480156102e057600080fd5b506102f46102ef366004612669565b6107a3565b6040519015158152602001610260565b34801561031057600080fd5b506101c16107bd565b34801561032557600080fd5b506002545b604051908152602001610260565b34801561034457600080fd5b5061032a60135481565b3480156101c157600080fd5b34801561036657600080fd5b506102f4610375366004612693565b61081b565b34801561038657600080fd5b5061032a61271081565b34801561039c57600080fd5b5060405160128152602001610260565b3480156103b857600080fd5b506101c16103c73660046126e0565b61083f565b3480156103d857600080fd5b506101c16103e7366004612710565b610bd4565b3480156103f857600080fd5b506101c1610407366004612669565b610d7c565b34801561041857600080fd5b506101c1610427366004612710565b610de0565b6101c161043a366004612710565b610f8e565b34801561044b57600080fd5b5061032a61045a366004612647565b6001600160a01b031660009081526020819052604090205490565b34801561048157600080fd5b5061032a60095481565b6101c1610499366004612612565b611034565b3480156104aa57600080fd5b506102f46104b9366004612647565b60106020526000908152604090205460ff1681565b3480156104da57600080fd5b506101c16104e9366004612612565b61121f565b3480156104fa57600080fd5b5061032a610509366004612612565b611549565b34801561051a57600080fd5b506102f4610529366004612669565b61156a565b34801561053a57600080fd5b506101c1610549366004612710565b611578565b34801561055a57600080fd5b506105cf610569366004612612565b600c60205260009081526040902080546001820154600283015460038401546004850154600586015460068701546007880154600889015460098a0154600a909a01546001600160a01b0390991699979896979596949593949293919290919060ff168b565b6040516102609b9a99989796959493929190612748565b3480156105f257600080fd5b5061032a6106013660046127c9565b6001600160a01b03918216600090815260016020908152604080832093909416825291909152205490565b34801561063857600080fd5b5061032a610647366004612612565b6118e7565b3360009081526010602052604090205460ff1661069f5760405162461bcd60e51b815260206004820152600c60248201526b2737ba1030903bb934ba32b960a11b60448201526064015b60405180910390fd5b6000838152600e602052604090206002015442116106cf5760405162461bcd60e51b8152600401610696906127fc565b6000838152600e6020908152604091829020600701805483516080810185523381528084018290528451601f870185900485028101850186528681529194929390928301919087908790819084018382808284376000920182905250938552505050602091820181905283546001808201865594825290829020835160049092020180546001600160a01b0319166001600160a01b0390921691909117815590820151928101929092556040810151909190600282019061079090826128c9565b5060608201518160030155505050505050565b6000336107b18185856118f7565b60019150505b92915050565b4760006107c960025490565b336000908152602081905260409020546107e59061271061299f565b6107ef91906129b6565b90506000612710610800838561299f565b61080a91906129b6565b90506108163382611a1b565b505050565b600033610829858285611af5565b610834858585611b81565b506001949350505050565b6000828152600c6020908152604080832081516101608101835281546001600160a01b03168152600182015493810193909352600281015491830191909152600380820154606084015260048201546080840152600582015460a0840152600682015460c0840152600782015460e084015260088201546101008401526009820154610120840152600a82015461014084019160ff909116908111156108e7576108e7612732565b60038111156108f8576108f8612732565b81525050905042601354826040015161091191906129d8565b1161094f5760405162461bcd60e51b815260206004820152600e60248201526d159bdd1a5b99c8195e1c1a5c995960921b6044820152606401610696565b428160400151106109725760405162461bcd60e51b8152600401610696906127fc565b6000838152601160209081526040808320338452825291829020825160c081018452815481526001820154928101929092526002810154928201929092526003820154606082015260049091015460ff808216151560808401526101009091041615801560a0830152610a175760405162461bcd60e51b815260206004820152600d60248201526c105b1c9958591e481d9bdd1959609a1b6044820152606401610696565b60008261012001518260400151612710610a31919061299f565b610a3b91906129b6565b6101008401516020840151610a529061271061299f565b610a5c91906129b6565b60e08501518451610a6f9061271061299f565b610a7991906129b6565b610a8391906129d8565b610a8d91906129d8565b6000868152601160209081526040808320338452909152902060030181905590508315610b08576000858152600c602052604081206003018054839290610ad59084906129d8565b909155505081516000868152600c602052604081206005018054909190610afd9084906129d8565b90915550610b7b9050565b6000858152600c602052604081206004018054839290610b299084906129d8565b909155505081516000868152600c602052604081206006018054909190610b519084906129d8565b909155505060008581526011602090815260408083203384529091529020600401805460ff191690555b6000858152601160209081526040808320338452825280832060038101859055600401805461ff001916610100179055600f90915281206001908101805491929091610bc89084906129d8565b90915550505050505050565b610be030333084611d26565b6000828152600e60205260409020600201544210610c365760405162461bcd60e51b8152602060048201526013602482015272105c1c1b1a58d85d1a5bdb88195e1c1a5c9959606a1b6044820152606401610696565b336000818152600f6020908152604080832081516060808201845282546001600160a01b03168252600180840154838701908152600294850154848701908152865160c0810188528b8152915182890190815290518288019081529382018981526080830184815260a084018b81528e8c5260128b52898c209c8c529b8a52888b20935184559151938301939093559251948101949094555160038401555160049283018054975115156101000261ff00199215159290921661ffff199098169790971717909555868452600e9092528220018054849290610d199084906129d8565b90915550506040808201516000858152600e602052918220600601805491929091610d459084906129d8565b90915550506020808201516000858152600e90925260408220600501805491929091610d729084906129d8565b9091555050505050565b6001600160a01b038216610dd25760405162461bcd60e51b815260206004820152601f60248201527f45524332303a206d696e7420746f20746865207a65726f2061646472657373006044820152606401610696565b610ddc8282611e64565b5050565b6000828152600c60205260409020600201544210610e365760405162461bcd60e51b8152602060048201526013602482015272105c1c1b1a58d85d1a5bdb88195e1c1a5c9959606a1b6044820152606401610696565b336000818152600f6020908152604091829020825160608101845281546001600160a01b03168152600182015492810192909252600201549181019190915290610e839030908185611d26565b6040805160c0810182528381526020838101518183019081528484015183850190815260006060850181815260016080870181815260a088018481528c85526011885289852033865288528985209851895595519188019190915592516002870155516003860155905160049094018054925115156101000261ff00199515159590951661ffff1990931692909217939093179055858252600c90529081206007018054849290610f359084906129d8565b90915550506040808201516000858152600c602052918220600901805491929091610f619084906129d8565b90915550506020808201516000858152600c90925260408220600801805491929091610d729084906129d8565b808210610fcc5760405162461bcd60e51b815260206004820152600c60248201526b496e76616c69642074696d6560a01b6044820152606401610696565b600d805460018082019092557fd7b6990105719101dabeb77144f2a3385c8033acd3af97e9423a695e81ad1eb581018190556000908152600e6020526040902080546001600160a01b0319163317815534918101919091556002810192909255600390910155565b8042106110725760405162461bcd60e51b815260206004820152600c60248201526b496e76616c69642074696d6560a01b6044820152606401610696565b3360009081526010602052604090205460ff16156110c75760405162461bcd60e51b8152602060048201526012602482015271105b1c9958591e481c9959da5cdd195c995960721b6044820152606401610696565b600b80546001808201835560009283527f0175b7a638427703f0dbe7bb9bbf987a2551717b34e79f33b5b1008d1fa01db9820182905560408051610160810182523381523460208201819052918101869052606081018590526080810185905260a0810185905260c0810185905260e08101949094526101008401829052610120840191909152916101408101600390526000828152600c6020908152604091829020835181546001600160a01b0319166001600160a01b039091161781559083015160018083019190915591830151600282015560608301516003808301919091556080840151600483015560a0840151600583015560c0840151600683015560e0840151600783015561010084015160088301556101208401516009830155610140840151600a8301805493949193909260ff199091169190849081111561121357611213612732565b02179055505050505050565b6000818152600c6020908152604080832081516101608101835281546001600160a01b03168152600182015493810193909352600281015491830191909152600380820154606084015260048201546080840152600582015460a0840152600682015460c0840152600782015460e084015260088201546101008401526009820154610120840152600a82015461014084019160ff909116908111156112c7576112c7612732565b60038111156112d8576112d8612732565b9052506000838152601160209081526040808320338452825291829020825160c081018452815481526001820154928101929092526002810154928201929092526003820154606082015260049091015460ff8082161515608084015261010090910416151560a08201819052919250906113815760405162461bcd60e51b8152602060048201526009602482015268139bdd081d9bdd195960ba1b6044820152606401610696565b6003826101400151600381111561139a5761139a612732565b036113a8576113a883611f23565b6000838152600c6020908152604080832081516101608101835281546001600160a01b03168152600182015493810193909352600281015491830191909152600380820154606084015260048201546080840152600582015460a0840152600682015460c0840152600782015460e084015260088201546101008401526009820154610120840152600a82015461014084019160ff9091169081111561145057611450612732565b600381111561146157611461612732565b90525090506000816101400151600381111561147f5761147f612732565b14801561148d575081608001515b156114d6576000816060015183606001518360c001516114ad919061299f565b6114b791906129b6565b83516114c391906129d8565b90506114d0303383612176565b50611543565b600181610140015160038111156114ef576114ef612732565b1480156114fe57508160800151155b15611543576000816080015183606001518360a0015161151e919061299f565b61152891906129b6565b835161153491906129d8565b9050611541303383612176565b505b50505050565b600d818154811061155957600080fd5b600091825260209091200154905081565b6000336107b1818585611b81565b6000828152600e6020908152604080832081516101008101835281546001600160a01b031681526001820154818501526002820154818401526003820154606082015260048201546080820152600582015460a0820152600682015460c08201526007820180548451818702810187019095528085529194929360e0860193909290879084015b828210156116ed576000848152602090819020604080516080810182526004860290920180546001600160a01b031683526001810154938301939093526002830180549293929184019161165290612849565b80601f016020809104026020016040519081016040528092919081815260200182805461167e90612849565b80156116cb5780601f106116a0576101008083540402835291602001916116cb565b820191906000526020600020905b8154815290600101906020018083116116ae57829003601f168201915b50505050508152602001600382015481525050815260200190600101906115ff565b5050505081525050905042601354826040015161170a91906129d8565b116117485760405162461bcd60e51b815260206004820152600e60248201526d159bdd1a5b99c8195e1c1a5c995960921b6044820152606401610696565b4281604001511061176b5760405162461bcd60e51b8152600401610696906127fc565b6000838152601260209081526040808320338452825291829020825160c081018452815481526001820154928101929092526002810154928201929092526003820154606082015260049091015460ff808216151560808401526101009091041615801560a08301526118105760405162461bcd60e51b815260206004820152600d60248201526c105b1c9958591e481d9bdd1959609a1b6044820152606401610696565b60008260c001518260400151612710611829919061299f565b61183391906129b6565b60a084015160208401516118499061271061299f565b61185391906129b6565b608085015184516118669061271061299f565b61187091906129b6565b61187a91906129d8565b61188491906129d8565b60008681526012602090815260408083203384528252808320600301849055888352600e909152902060070180549192508291869081106118c7576118c76129eb565b90600052602060002090600402016003016000828254610bc891906129d8565b600b818154811061155957600080fd5b6001600160a01b0383166119595760405162461bcd60e51b8152602060048201526024808201527f45524332303a20617070726f76652066726f6d20746865207a65726f206164646044820152637265737360e01b6064820152608401610696565b6001600160a01b0382166119ba5760405162461bcd60e51b815260206004820152602260248201527f45524332303a20617070726f766520746f20746865207a65726f206164647265604482015261737360f01b6064820152608401610696565b6001600160a01b0383811660008181526001602090815260408083209487168084529482529182902085905590518481527f8c5be1e5ebec7d5bd14f71427d1e84f3dd0314c0f7b2291e5b200ac8c7c3b925910160405180910390a3505050565b604080516000808252602082019092526001600160a01b038416908390604051611a459190612a01565b60006040518083038185875af1925050503d8060008114611a82576040519150601f19603f3d011682016040523d82523d6000602084013e611a87565b606091505b50509050806108165760405162461bcd60e51b815260206004820152603460248201527f5472616e7366657248656c7065723a3a736166655472616e736665724554483a60448201527308115512081d1c985b9cd9995c8819985a5b195960621b6064820152608401610696565b6001600160a01b0383811660009081526001602090815260408083209386168352929052205460001981146115435781811015611b745760405162461bcd60e51b815260206004820152601d60248201527f45524332303a20696e73756666696369656e7420616c6c6f77616e63650000006044820152606401610696565b61154384848484036118f7565b6001600160a01b038316611be55760405162461bcd60e51b815260206004820152602560248201527f45524332303a207472616e736665722066726f6d20746865207a65726f206164604482015264647265737360d81b6064820152608401610696565b6001600160a01b038216611c475760405162461bcd60e51b815260206004820152602360248201527f45524332303a207472616e7366657220746f20746865207a65726f206164647260448201526265737360e81b6064820152608401610696565b6001600160a01b03831660009081526020819052604090205481811015611cbf5760405162461bcd60e51b815260206004820152602660248201527f45524332303a207472616e7366657220616d6f756e7420657863656564732062604482015265616c616e636560d01b6064820152608401610696565b6001600160a01b03848116600081815260208181526040808320878703905593871680835291849020805487019055925185815290927fddf252ad1be2c89b69c2b068fc378daa952ba7f163c4a11628f55a4df523b3ef910160405180910390a350505050565b604080516001600160a01b0385811660248301528481166044830152606480830185905283518084039091018152608490920183526020820180516001600160e01b03166323b872dd60e01b1790529151600092839290881691611d8a9190612a01565b6000604051808303816000865af19150503d8060008114611dc7576040519150601f19603f3d011682016040523d82523d6000602084013e611dcc565b606091505b5091509150818015611df6575080511580611df6575080806020019051810190611df69190612a30565b611e5c5760405162461bcd60e51b815260206004820152603160248201527f5472616e7366657248656c7065723a3a7472616e7366657246726f6d3a207472604482015270185b9cd9995c919c9bdb4819985a5b1959607a1b6064820152608401610696565b505050505050565b6001600160a01b038216611eba5760405162461bcd60e51b815260206004820152601f60248201527f45524332303a206d696e7420746f20746865207a65726f2061646472657373006044820152606401610696565b8060026000828254611ecc91906129d8565b90915550506001600160a01b038216600081815260208181526040808320805486019055518481527fddf252ad1be2c89b69c2b068fc378daa952ba7f163c4a11628f55a4df523b3ef910160405180910390a35050565b6000818152600c6020908152604080832081516101608101835281546001600160a01b03168152600182015493810193909352600281015491830191909152600380820154606084015260048201546080840152600582015460a0840152600682015460c0840152600782015460e084015260088201546101008401526009820154610120840152600a82015461014084019160ff90911690811115611fcb57611fcb612732565b6003811115611fdc57611fdc612732565b815250509050426013548260400151611ff591906129d8565b106120375760405162461bcd60e51b8152602060048201526012602482015271159bdd1a5b99c81b9bdd08195e1c1a5c995960721b6044820152606401610696565b6009548160800151826060015161204e91906129d8565b606083015161205f9061271061299f565b61206991906129b6565b10612104576000828152600c60205260409020600a01805460ff1916905561208f6122a0565b600a805460018181018355600092835260208083047fc65a7bb8d6351c1cf70c95a316cc6a92839c986682d98bc35f958f4883f9d2a801805460ff601f9095166101000a948502191690931790925583516001600160a01b0316835260109091526040909120805460ff191690911790555050565b6000828152600c60205260409020600a01805460ff19166001179055612128612419565b5050600a80546001810182556000919091527fc65a7bb8d6351c1cf70c95a316cc6a92839c986682d98bc35f958f4883f9d2a860208204018054601f9092166101000a60ff02199091169055565b604080516001600160a01b038481166024830152604480830185905283518084039091018152606490920183526020820180516001600160e01b031663a9059cbb60e01b17905291516000928392908716916121d29190612a01565b6000604051808303816000865af19150503d806000811461220f576040519150601f19603f3d011682016040523d82523d6000602084013e612214565b606091505b509150915081801561223e57508051158061223e57508080602001905181019061223e9190612a30565b6115415760405162461bcd60e51b815260206004820152602d60248201527f5472616e7366657248656c7065723a3a736166655472616e736665723a20747260448201526c185b9cd9995c8819985a5b1959609a1b6064820152608401610696565b6000600a80548060200260200160405190810160405280929190818152602001828054801561230e57602002820191906000526020600020906000905b825461010083900a900460ff1615158152602060019283018181049485019490930390920291018084116122dd5790505b5050505050905080516000036123215750565b80600182516123309190612a4d565b81518110612340576123406129eb565b6020026020010151151560011515036123715760016005600082825461236691906129d8565b9091555061238a9050565b60016007600082825461238491906129d8565b90915550505b600060065460055461239c91906129d8565b6005546123ab9061271061299f565b6123b591906129b6565b905060006008546007546123c991906129d8565b6007546123d89061271061299f565b6123e291906129b6565b9050816123f1612710836129d8565b6123fb9190612a4d565b6124078261271061299f565b61241191906129b6565b600955505050565b6000600a80548060200260200160405190810160405280929190818152602001828054801561248757602002820191906000526020600020906000905b825461010083900a900460ff1615158152602060019283018181049485019490930390920291018084116124565790505b50505050509050805160000361249a5750565b80600182516124a99190612a4d565b815181106124b9576124b96129eb565b6020026020010151151560011515036124ea576001600660008282546124df91906129d8565b909155506125039050565b6001600860008282546124fd91906129d8565b90915550505b600060065460055461251591906129d8565b6006546125249061271061299f565b61252e91906129b6565b9050600060085460075461254291906129d8565b6008546125519061271061299f565b61255b91906129b6565b90508161256a612710836129d8565b6125749190612a4d565b6125808261271061299f565b61258a91906129b6565b61241190612710612a4d565b6000806000604084860312156125ab57600080fd5b83359250602084013567ffffffffffffffff808211156125ca57600080fd5b818601915086601f8301126125de57600080fd5b8135818111156125ed57600080fd5b8760208285010111156125ff57600080fd5b6020830194508093505050509250925092565b60006020828403121561262457600080fd5b5035919050565b80356001600160a01b038116811461264257600080fd5b919050565b60006020828403121561265957600080fd5b6126628261262b565b9392505050565b6000806040838503121561267c57600080fd5b6126858361262b565b946020939093013593505050565b6000806000606084860312156126a857600080fd5b6126b18461262b565b92506126bf6020850161262b565b9150604084013590509250925092565b80151581146126dd57600080fd5b50565b600080604083850312156126f357600080fd5b823591506020830135612705816126cf565b809150509250929050565b6000806040838503121561272357600080fd5b50508035926020909101359150565b634e487b7160e01b600052602160045260246000fd5b60006101608201905060018060a01b038d1682528b60208301528a60408301528960608301528860808301528760a08301528660c08301528560e08301528461010083015283610120830152600483106127b257634e487b7160e01b600052602160045260246000fd5b826101408301529c9b505050505050505050505050565b600080604083850312156127dc57600080fd5b6127e58361262b565b91506127f36020840161262b565b90509250929050565b60208082526017908201527f4170706c69636174696f6e206e6f742065787069726564000000000000000000604082015260600190565b634e487b7160e01b600052604160045260246000fd5b600181811c9082168061285d57607f821691505b60208210810361287d57634e487b7160e01b600052602260045260246000fd5b50919050565b601f82111561081657600081815260208120601f850160051c810160208610156128aa5750805b601f850160051c820191505b81811015611e5c578281556001016128b6565b815167ffffffffffffffff8111156128e3576128e3612833565b6128f7816128f18454612849565b84612883565b602080601f83116001811461292c57600084156129145750858301515b600019600386901b1c1916600185901b178555611e5c565b600085815260208120601f198616915b8281101561295b5788860151825594840194600190910190840161293c565b50858210156129795787850151600019600388901b60f8161c191681555b5050505050600190811b01905550565b634e487b7160e01b600052601160045260246000fd5b80820281158282048414176107b7576107b7612989565b6000826129d357634e487b7160e01b600052601260045260246000fd5b500490565b808201808211156107b7576107b7612989565b634e487b7160e01b600052603260045260246000fd5b6000825160005b81811015612a225760208186018101518583015201612a08565b506000920191825250919050565b600060208284031215612a4257600080fd5b8151612662816126cf565b818103818111156107b7576107b761298956fea264697066735822122057f91ee757ef660ac11ff9a0fd4097c39b26cf8efeadf5fb8e522cec03cb831264736f6c63430008120033",
    "linkReferences": {}
  },
  "methodIdentifiers": {
    "DECIMALS()": "2e0f2625",
    "_pi_quorum()": "826d053a",
    "aVoteParticipate(uint256,uint256)": "3ac16074",
    "allowance(address,address)": "dd62ed3e",
    "applicationExpiry()": "1c1e3105",
    "approve(address,uint256)": "095ea7b3",
    "articleRegister(uint256,string)": "012d0ec1",
    "balanceOf(address)": "70a08231",
    "claimRewardA()": "21346209",
    "claimRewardW(uint256)": "94440679",
    "decimals()": "313ce567",
    "getETH()": "14f6c3be",
    "members(address)": "08ae4b0c",
    "mint(address,uint256)": "40c10f19",
    "proposalids(uint256)": "9c9eacb2",
    "proposals(uint256)": "013cf08b",
    "propose(uint256,uint256)": "5b4c9c59",
    "totalSupply()": "18160ddd",
    "transfer(address,uint256)": "a9059cbb",
    "transferFrom(address,address,uint256)": "23b872dd",
    "voteRanking(uint256,uint256)": "af8b9f7a",
    "voteRegister(uint256,bool)": "3616db13",
    "wRegisterids(uint256)": "ed047761",
    "wVoteParticipate(uint256,uint256)": "494bdc02",
    "writerRegister(uint256)": "8607bc0f",
    "writerRegistries(uint256)": "dcd409e0",
    "writers(address)": "8e7e80a2"
  },
  "id": 17
}