{
  "abi": [
    {
      "anonymous": false,
      "inputs": [
        {
          "indexed": true,
          "internalType": "address",
          "name": "owner",
          "type": "address"
        },
        {
          "indexed": true,
          "internalType": "address",
          "name": "spender",
          "type": "address"
        },
        {
          "indexed": false,
          "internalType": "uint256",
          "name": "value",
          "type": "uint256"
        }
      ],
      "name": "Approval",
      "type": "event"
    },
    {
      "anonymous": false,
      "inputs": [
        {
          "indexed": true,
          "internalType": "address",
          "name": "from",
          "type": "address"
        },
        {
          "indexed": true,
          "internalType": "address",
          "name": "to",
          "type": "address"
        },
        {
          "indexed": false,
          "internalType": "uint256",
          "name": "value",
          "type": "uint256"
        }
      ],
      "name": "Transfer",
      "type": "event"
    },
    {
      "inputs": [],
      "name": "ARTICLEREGISTRATIONEXPIRY",
      "outputs": [
        {
          "internalType": "uint256",
          "name": "",
          "type": "uint256"
        }
      ],
      "stateMutability": "view",
      "type": "function"
    },
    {
      "inputs": [],
      "name": "CHALLEGEEXPIRY",
      "outputs": [
        {
          "internalType": "uint256",
          "name": "",
          "type": "uint256"
        }
      ],
      "stateMutability": "view",
      "type": "function"
    },
    {
      "inputs": [],
      "name": "DECIMALS",
      "outputs": [
        {
          "internalType": "uint256",
          "name": "",
          "type": "uint256"
        }
      ],
      "stateMutability": "view",
      "type": "function"
    },
    {
      "inputs": [],
      "name": "PARTICIPATIONEXPIRY",
      "outputs": [
        {
          "internalType": "uint256",
          "name": "",
          "type": "uint256"
        }
      ],
      "stateMutability": "view",
      "type": "function"
    },
    {
      "inputs": [],
      "name": "REGISTRATIONDEPOSIT",
      "outputs": [
        {
          "internalType": "uint256",
          "name": "",
          "type": "uint256"
        }
      ],
      "stateMutability": "view",
      "type": "function"
    },
    {
      "inputs": [],
      "name": "VOTINGEXPIRY",
      "outputs": [
        {
          "internalType": "uint256",
          "name": "",
          "type": "uint256"
        }
      ],
      "stateMutability": "view",
      "type": "function"
    },
    {
      "inputs": [],
      "name": "_pi_quorum",
      "outputs": [
        {
          "internalType": "uint256",
          "name": "",
          "type": "uint256"
        }
      ],
      "stateMutability": "view",
      "type": "function"
    },
    {
      "inputs": [
        {
          "internalType": "uint256",
          "name": "proposalid",
          "type": "uint256"
        },
        {
          "internalType": "uint256",
          "name": "stake",
          "type": "uint256"
        }
      ],
      "name": "aVoteParticipate",
      "outputs": [],
      "stateMutability": "nonpayable",
      "type": "function"
    },
    {
      "inputs": [
        {
          "internalType": "address",
          "name": "owner",
          "type": "address"
        },
        {
          "internalType": "address",
          "name": "spender",
          "type": "address"
        }
      ],
      "name": "allowance",
      "outputs": [
        {
          "internalType": "uint256",
          "name": "",
          "type": "uint256"
        }
      ],
      "stateMutability": "view",
      "type": "function"
    },
    {
      "inputs": [
        {
          "internalType": "address",
          "name": "spender",
          "type": "address"
        },
        {
          "internalType": "uint256",
          "name": "amount",
          "type": "uint256"
        }
      ],
      "name": "approve",
      "outputs": [
        {
          "internalType": "bool",
          "name": "",
          "type": "bool"
        }
      ],
      "stateMutability": "nonpayable",
      "type": "function"
    },
    {
      "inputs": [
        {
          "internalType": "uint256",
          "name": "proposalid",
          "type": "uint256"
        },
        {
          "internalType": "string",
          "name": "url",
          "type": "string"
        }
      ],
      "name": "articleRegister",
      "outputs": [],
      "stateMutability": "nonpayable",
      "type": "function"
    },
    {
      "inputs": [
        {
          "internalType": "uint256",
          "name": "",
          "type": "uint256"
        },
        {
          "internalType": "uint256",
          "name": "",
          "type": "uint256"
        }
      ],
      "name": "articles",
      "outputs": [
        {
          "components": [
            {
              "internalType": "address",
              "name": "_address",
              "type": "address"
            },
            {
              "internalType": "string",
              "name": "twitterHandle",
              "type": "string"
            }
          ],
          "internalType": "struct Article_DAO.Writer",
          "name": "writer",
          "type": "tuple"
        },
        {
          "internalType": "uint256",
          "name": "articleid",
          "type": "uint256"
        },
        {
          "internalType": "string",
          "name": "url",
          "type": "string"
        },
        {
          "internalType": "uint256",
          "name": "votedweights",
          "type": "uint256"
        }
      ],
      "stateMutability": "view",
      "type": "function"
    },
    {
      "inputs": [
        {
          "internalType": "address",
          "name": "account",
          "type": "address"
        }
      ],
      "name": "balanceOf",
      "outputs": [
        {
          "internalType": "uint256",
          "name": "",
          "type": "uint256"
        }
      ],
      "stateMutability": "view",
      "type": "function"
    },
    {
      "inputs": [
        {
          "internalType": "uint256",
          "name": "id",
          "type": "uint256"
        }
      ],
      "name": "canclaima",
      "outputs": [
        {
          "internalType": "bool",
          "name": "can",
          "type": "bool"
        }
      ],
      "stateMutability": "view",
      "type": "function"
    },
    {
      "inputs": [
        {
          "internalType": "uint256",
          "name": "id",
          "type": "uint256"
        }
      ],
      "name": "canclaimw",
      "outputs": [
        {
          "internalType": "bool",
          "name": "can",
          "type": "bool"
        }
      ],
      "stateMutability": "view",
      "type": "function"
    },
    {
      "inputs": [
        {
          "internalType": "uint256",
          "name": "wregisterid",
          "type": "uint256"
        }
      ],
      "name": "challenge",
      "outputs": [],
      "stateMutability": "nonpayable",
      "type": "function"
    },
    {
      "inputs": [
        {
          "internalType": "uint256",
          "name": "id",
          "type": "uint256"
        }
      ],
      "name": "change",
      "outputs": [],
      "stateMutability": "nonpayable",
      "type": "function"
    },
    {
      "inputs": [
        {
          "internalType": "uint256",
          "name": "proposalid",
          "type": "uint256"
        },
        {
          "internalType": "uint256",
          "name": "articleid",
          "type": "uint256"
        }
      ],
      "name": "claimRewardA",
      "outputs": [],
      "stateMutability": "nonpayable",
      "type": "function"
    },
    {
      "inputs": [
        {
          "internalType": "uint256",
          "name": "wregisterid",
          "type": "uint256"
        }
      ],
      "name": "claimRewardW",
      "outputs": [],
      "stateMutability": "nonpayable",
      "type": "function"
    },
    {
      "inputs": [
        {
          "internalType": "uint256",
          "name": "id",
          "type": "uint256"
        }
      ],
      "name": "claimW",
      "outputs": [],
      "stateMutability": "nonpayable",
      "type": "function"
    },
    {
      "inputs": [],
      "name": "decimals",
      "outputs": [
        {
          "internalType": "uint8",
          "name": "",
          "type": "uint8"
        }
      ],
      "stateMutability": "pure",
      "type": "function"
    },
    {
      "inputs": [
        {
          "internalType": "uint256",
          "name": "pid",
          "type": "uint256"
        }
      ],
      "name": "getProposal",
      "outputs": [
        {
          "internalType": "uint256",
          "name": "state",
          "type": "uint256"
        }
      ],
      "stateMutability": "view",
      "type": "function"
    },
    {
      "inputs": [
        {
          "internalType": "uint256",
          "name": "wid",
          "type": "uint256"
        }
      ],
      "name": "getWregister",
      "outputs": [
        {
          "internalType": "string",
          "name": "handle",
          "type": "string"
        },
        {
          "internalType": "uint256",
          "name": "state",
          "type": "uint256"
        }
      ],
      "stateMutability": "view",
      "type": "function"
    },
    {
      "inputs": [
        {
          "internalType": "uint256",
          "name": "pid",
          "type": "uint256"
        },
        {
          "internalType": "uint256",
          "name": "aid",
          "type": "uint256"
        }
      ],
      "name": "getarticle",
      "outputs": [
        {
          "internalType": "string",
          "name": "url",
          "type": "string"
        }
      ],
      "stateMutability": "view",
      "type": "function"
    },
    {
      "inputs": [
        {
          "internalType": "uint256",
          "name": "pid",
          "type": "uint256"
        }
      ],
      "name": "getarticlenum",
      "outputs": [
        {
          "internalType": "uint256",
          "name": "",
          "type": "uint256"
        }
      ],
      "stateMutability": "view",
      "type": "function"
    },
    {
      "inputs": [],
      "name": "getproposalnum",
      "outputs": [
        {
          "internalType": "uint256",
          "name": "",
          "type": "uint256"
        }
      ],
      "stateMutability": "view",
      "type": "function"
    },
    {
      "inputs": [],
      "name": "getregisternum",
      "outputs": [
        {
          "internalType": "uint256",
          "name": "",
          "type": "uint256"
        }
      ],
      "stateMutability": "view",
      "type": "function"
    },
    {
      "inputs": [
        {
          "internalType": "address",
          "name": "",
          "type": "address"
        }
      ],
      "name": "members",
      "outputs": [
        {
          "internalType": "address",
          "name": "_address",
          "type": "address"
        },
        {
          "internalType": "uint256",
          "name": "votes",
          "type": "uint256"
        },
        {
          "internalType": "uint256",
          "name": "challenges",
          "type": "uint256"
        }
      ],
      "stateMutability": "view",
      "type": "function"
    },
    {
      "inputs": [
        {
          "internalType": "address",
          "name": "account",
          "type": "address"
        },
        {
          "internalType": "uint256",
          "name": "amount",
          "type": "uint256"
        }
      ],
      "name": "mint",
      "outputs": [],
      "stateMutability": "nonpayable",
      "type": "function"
    },
    {
      "inputs": [],
      "name": "proposalnum",
      "outputs": [
        {
          "internalType": "uint256",
          "name": "",
          "type": "uint256"
        }
      ],
      "stateMutability": "view",
      "type": "function"
    },
    {
      "inputs": [
        {
          "internalType": "uint256",
          "name": "",
          "type": "uint256"
        }
      ],
      "name": "proposals",
      "outputs": [
        {
          "internalType": "address",
          "name": "proposer",
          "type": "address"
        },
        {
          "internalType": "uint256",
          "name": "proposalid",
          "type": "uint256"
        },
        {
          "internalType": "uint256",
          "name": "applytime",
          "type": "uint256"
        },
        {
          "internalType": "uint256",
          "name": "proposerstake",
          "type": "uint256"
        },
        {
          "internalType": "uint256",
          "name": "totalstake",
          "type": "uint256"
        },
        {
          "internalType": "uint256",
          "name": "totalvotes",
          "type": "uint256"
        },
        {
          "internalType": "uint256",
          "name": "totalchallenges",
          "type": "uint256"
        },
        {
          "internalType": "uint256",
          "name": "totalweights",
          "type": "uint256"
        },
        {
          "internalType": "uint256",
          "name": "votingState",
          "type": "uint256"
        }
      ],
      "stateMutability": "view",
      "type": "function"
    },
    {
      "inputs": [
        {
          "internalType": "uint256",
          "name": "stake",
          "type": "uint256"
        }
      ],
      "name": "propose",
      "outputs": [],
      "stateMutability": "nonpayable",
      "type": "function"
    },
    {
      "inputs": [],
      "name": "r1",
      "outputs": [
        {
          "internalType": "uint256",
          "name": "",
          "type": "uint256"
        }
      ],
      "stateMutability": "view",
      "type": "function"
    },
    {
      "inputs": [],
      "name": "r2",
      "outputs": [
        {
          "internalType": "uint256",
          "name": "",
          "type": "uint256"
        }
      ],
      "stateMutability": "view",
      "type": "function"
    },
    {
      "inputs": [],
      "name": "r3",
      "outputs": [
        {
          "internalType": "uint256",
          "name": "",
          "type": "uint256"
        }
      ],
      "stateMutability": "view",
      "type": "function"
    },
    {
      "inputs": [],
      "name": "refreshA",
      "outputs": [],
      "stateMutability": "nonpayable",
      "type": "function"
    },
    {
      "inputs": [],
      "name": "refreshw",
      "outputs": [],
      "stateMutability": "nonpayable",
      "type": "function"
    },
    {
      "inputs": [],
      "name": "registrationnum",
      "outputs": [
        {
          "internalType": "uint256",
          "name": "",
          "type": "uint256"
        }
      ],
      "stateMutability": "view",
      "type": "function"
    },
    {
      "inputs": [],
      "name": "totalSupply",
      "outputs": [
        {
          "internalType": "uint256",
          "name": "",
          "type": "uint256"
        }
      ],
      "stateMutability": "view",
      "type": "function"
    },
    {
      "inputs": [
        {
          "internalType": "address",
          "name": "to",
          "type": "address"
        },
        {
          "internalType": "uint256",
          "name": "amount",
          "type": "uint256"
        }
      ],
      "name": "transfer",
      "outputs": [
        {
          "internalType": "bool",
          "name": "",
          "type": "bool"
        }
      ],
      "stateMutability": "nonpayable",
      "type": "function"
    },
    {
      "inputs": [
        {
          "internalType": "address",
          "name": "from",
          "type": "address"
        },
        {
          "internalType": "address",
          "name": "to",
          "type": "address"
        },
        {
          "internalType": "uint256",
          "name": "amount",
          "type": "uint256"
        }
      ],
      "name": "transferFrom",
      "outputs": [
        {
          "internalType": "bool",
          "name": "",
          "type": "bool"
        }
      ],
      "stateMutability": "nonpayable",
      "type": "function"
    },
    {
      "inputs": [
        {
          "internalType": "uint256",
          "name": "proposalid",
          "type": "uint256"
        },
        {
          "internalType": "uint256",
          "name": "articleid",
          "type": "uint256"
        }
      ],
      "name": "voteRanking",
      "outputs": [],
      "stateMutability": "nonpayable",
      "type": "function"
    },
    {
      "inputs": [
        {
          "internalType": "uint256",
          "name": "wRegisterID",
          "type": "uint256"
        },
        {
          "internalType": "bool",
          "name": "voteFor",
          "type": "bool"
        }
      ],
      "name": "voteRegister",
      "outputs": [],
      "stateMutability": "nonpayable",
      "type": "function"
    },
    {
      "inputs": [
        {
          "internalType": "address",
          "name": "",
          "type": "address"
        },
        {
          "internalType": "uint256",
          "name": "",
          "type": "uint256"
        }
      ],
      "name": "votedarticles",
      "outputs": [
        {
          "internalType": "uint256",
          "name": "",
          "type": "uint256"
        }
      ],
      "stateMutability": "view",
      "type": "function"
    },
    {
      "inputs": [
        {
          "internalType": "uint256",
          "name": "wregisterid",
          "type": "uint256"
        },
        {
          "internalType": "uint256",
          "name": "stake",
          "type": "uint256"
        }
      ],
      "name": "wVoteParticipate",
      "outputs": [],
      "stateMutability": "nonpayable",
      "type": "function"
    },
    {
      "inputs": [
        {
          "internalType": "string",
          "name": "twitterhandle",
          "type": "string"
        }
      ],
      "name": "writerRegister",
      "outputs": [],
      "stateMutability": "nonpayable",
      "type": "function"
    },
    {
      "inputs": [
        {
          "internalType": "uint256",
          "name": "",
          "type": "uint256"
        }
      ],
      "name": "writerRegistrations",
      "outputs": [
        {
          "components": [
            {
              "internalType": "address",
              "name": "_address",
              "type": "address"
            },
            {
              "internalType": "string",
              "name": "twitterHandle",
              "type": "string"
            }
          ],
          "internalType": "struct Article_DAO.Writer",
          "name": "writer",
          "type": "tuple"
        },
        {
          "internalType": "uint256",
          "name": "wregistraionid",
          "type": "uint256"
        },
        {
          "internalType": "uint256",
          "name": "applytime",
          "type": "uint256"
        },
        {
          "internalType": "uint256",
          "name": "voteFor",
          "type": "uint256"
        },
        {
          "internalType": "uint256",
          "name": "voteAgainst",
          "type": "uint256"
        },
        {
          "internalType": "uint256",
          "name": "voteForstake",
          "type": "uint256"
        },
        {
          "internalType": "uint256",
          "name": "voteAgainststake",
          "type": "uint256"
        },
        {
          "internalType": "uint256",
          "name": "totalstake",
          "type": "uint256"
        },
        {
          "internalType": "uint256",
          "name": "totalvotes",
          "type": "uint256"
        },
        {
          "internalType": "uint256",
          "name": "totalchallenges",
          "type": "uint256"
        },
        {
          "internalType": "uint256",
          "name": "votingstate",
          "type": "uint256"
        }
      ],
      "stateMutability": "view",
      "type": "function"
    },
    {
      "inputs": [
        {
          "internalType": "address",
          "name": "",
          "type": "address"
        }
      ],
      "name": "writermapping",
      "outputs": [
        {
          "internalType": "address",
          "name": "_address",
          "type": "address"
        },
        {
          "internalType": "string",
          "name": "twitterHandle",
          "type": "string"
        }
      ],
      "stateMutability": "view",
      "type": "function"
    },
    {
      "inputs": [
        {
          "internalType": "address",
          "name": "",
          "type": "address"
        }
      ],
      "name": "writers",
      "outputs": [
        {
          "internalType": "bool",
          "name": "",
          "type": "bool"
        }
      ],
      "stateMutability": "view",
      "type": "function"
    }
  ],
  "bytecode": {
    "object": "0x633b9aca0060005560c0604052600660809081526508ed8d2e8c6d60d31b60a0526004906200002f908262000163565b5060408051808201909152600481526308e9886960e31b60208201526005906200005a908262000163565b506001600655600160075560016008556001600955600a61271060056200008291906200022f565b6200008e91906200025b565b600a556000600c556000600e55600560155560036016556002601755348015620000b757600080fd5b506200027e565b634e487b7160e01b600052604160045260246000fd5b600181811c90821680620000e957607f821691505b6020821081036200010a57634e487b7160e01b600052602260045260246000fd5b50919050565b601f8211156200015e57600081815260208120601f850160051c81016020861015620001395750805b601f850160051c820191505b818110156200015a5782815560010162000145565b5050505b505050565b81516001600160401b038111156200017f576200017f620000be565b6200019781620001908454620000d4565b8462000110565b602080601f831160018114620001cf5760008415620001b65750858301515b600019600386901b1c1916600185901b1785556200015a565b600085815260208120601f198616915b828110156200020057888601518255948401946001909101908401620001df565b50858210156200021f5787850151600019600388901b60f8161c191681555b5050505050600190811b01905550565b80820281158282048414176200025557634e487b7160e01b600052601160045260246000fd5b92915050565b6000826200027957634e487b7160e01b600052601260045260246000fd5b500490565b6138fb806200028e6000396000f3fe608060405234801561001057600080fd5b50600436106102bb5760003560e01c8063826d053a11610182578063c419fb98116100e9578063db3cc402116100a2578063dfa23ba61161007c578063dfa23ba6146107ff578063f3c4f7ba14610522578063f51c198f14610522578063faaa169b1461080757600080fd5b8063db3cc402146107b6578063dd62ed3e146107be578063ddb0daae146107f757600080fd5b8063c419fb98146106bc578063c7f758a8146106df578063c89996e814610771578063cada60911461077a578063d5e6f3d014610783578063d966a540146107a357600080fd5b8063a432582c1161013b578063a432582c14610631578063a618b74e14610652578063a9059cbb14610665578063ab82d9a014610678578063af8b9f7a14610689578063b35403121461069c57600080fd5b8063826d053a146105b55780638bf6e410146105be5780638e7e80a2146105c75780638ec86992146105ea578063944406791461060b578063960f9c0c1461061e57600080fd5b80633ac160741161022657806363e4851a116101df57806363e4851a146105225780636ca5b5b014610532578063701809fc1461053b57806370a082311461056657806375322e471461058f57806382114be1146105a257600080fd5b80633ac16074146104e157806340c10f19146104f457806347ef6cf114610507578063494bdc021461050f578063540fd28e146105225780635bee35781461052a57600080fd5b8063182f020b11610278578063182f020b1461042b578063197eb3931461047957806323b872dd146104a35780632e0f2625146104b6578063313ce567146104bf5780633616db13146104ce57600080fd5b8063012d0ec1146102c0578063013cf08b146102d557806308ae4b0c1461038b578063095ea7b3146103e95780630bcbbd211461040c57806318160ddd14610423575b600080fd5b6102d36102ce366004613337565b61081a565b005b6103386102e3366004613383565b600f602052600090815260409020805460018201546002830154600384015460048501546005860154600687015460078801546008909801546001600160a01b03909716979596949593949293919290919089565b604080516001600160a01b03909a168a5260208a0198909852968801959095526060870193909352608086019190915260a085015260c084015260e0830152610100820152610120015b60405180910390f35b6103c46103993660046133b8565b6011602052600090815260409020805460018201546002909201546001600160a01b03909116919083565b604080516001600160a01b039094168452602084019290925290820152606001610382565b6103fc6103f73660046133da565b610a87565b6040519015158152602001610382565b61041560165481565b604051908152602001610382565b600354610415565b6102d3610439366004613383565b6000818152600d6020818152604080842080546001600160a01b0316855260138352908420805460ff191660011790559390925290526004600b90910155565b61048c610487366004613383565b610aa1565b6040516103829b9a99989796959493929190613483565b6103fc6104b13660046134e6565b610ba4565b61041561271081565b60405160128152602001610382565b6102d36104dc366004613530565b610bc8565b6102d36104ef366004613560565b610fc7565b6102d36105023660046133da565b611119565b600e54610415565b6102d361051d366004613560565b611127565b610415602881565b6102d361127f565b61041560155481565b6104156105493660046133da565b601460209081526000928352604080842090915290825290205481565b6104156105743660046133b8565b6001600160a01b031660009081526001602052604090205490565b6102d361059d366004613383565b61131e565b6103fc6105b0366004613383565b611373565b610415600a5481565b61041560175481565b6103fc6105d53660046133b8565b60136020526000908152604090205460ff1681565b6105fd6105f83660046133b8565b6113ae565b604051610382929190613582565b6102d3610619366004613383565b61145d565b6103fc61062c366004613383565b611886565b61064461063f366004613383565b6118af565b6040516103829291906135a6565b6102d3610660366004613383565b611a03565b6103fc6106733660046133da565b611ad1565b6102d3610686366004613383565b50565b6102d3610697366004613560565b611adf565b6104156106aa366004613383565b60009081526010602052604090205490565b6106cf6106ca366004613560565b611d50565b60405161038294939291906135c8565b6104156106ed366004613383565b6000908152600f602090815260409182902082516101208101845281546001600160a01b031681526001820154928101929092526002810154928201929092526003820154606082015260048201546080820152600582015460a0820152600682015460c0820152600782015460e082015260089091015461010090910181905290565b610415600c5481565b610415600e5481565b610796610791366004613560565b611ed0565b6040516103829190613605565b6102d36107b1366004613560565b612076565b6102d361242c565b6104156107cc366004613618565b6001600160a01b03918216600090815260026020908152604080832093909416825291909152205490565b600c54610415565b610415606481565b6102d361081536600461364b565b6124d6565b6000838152600f6020908152604080832081516101208101835281546001600160a01b031681526001820154818501526002820154818401526003820154606082015260048201546080820152600582015460a0820152600682015460c0820152600782015460e082015260089091015461010082015233845260139092529091205460ff166108e05760405162461bcd60e51b815260206004820152600c60248201526b2737ba1030903bb934ba32b960a11b60448201526064015b60405180910390fd5b60008481526010602090815260408083208054825133865260129094529382902060c0840190925281546001600160a01b0316608084019081526001830180549294938493909160a08501916109359061368d565b80601f01602080910402602001604051908101604052809291908181526020018280546109619061368d565b80156109ae5780601f10610983576101008083540402835291602001916109ae565b820191906000526020600020905b81548152906001019060200180831161099157829003601f168201915b505050505081525050815260200183815260200186868080601f016020809104026020016040519081016040528093929190818152602001838380828437600092018290525093855250505060209182018190528354600180820186559482529082902083518051600590930290910180546001600160a01b0319166001600160a01b0390931692909217825591820151929390928391820190610a529082613728565b5050506020820151600282015560408201516003820190610a739082613728565b506060820151816004015550505050505050565b600033610a958185856126a6565b60019150505b92915050565b600d60209081526000918252604091829020825180840190935280546001600160a01b0316835260018101805491939284929084019190610ae19061368d565b80601f0160208091040260200160405190810160405280929190818152602001828054610b0d9061368d565b8015610b5a5780601f10610b2f57610100808354040283529160200191610b5a565b820191906000526020600020905b815481529060010190602001808311610b3d57829003601f168201915b5050505050815250509080600201549080600301549080600401549080600501549080600601549080600701549080600801549080600901549080600a01549080600b015490508b565b600033610bb28582856127ca565b610bbd858585612856565b506001949350505050565b6000828152600d602052604080822081516101a0810190925280546001600160a01b03166101608301908152600182018054849291849161018085019190610c0f9061368d565b80601f0160208091040260200160405190810160405280929190818152602001828054610c3b9061368d565b8015610c885780601f10610c5d57610100808354040283529160200191610c88565b820191906000526020600020905b815481529060010190602001808311610c6b57829003601f168201915b50505050508152505081526020016002820154815260200160038201548152602001600482015481526020016005820154815260200160068201548152602001600782015481526020016008820154815260200160098201548152602001600a8201548152602001600b8201548152505090506000601860008581526020019081526020016000206000336001600160a01b03166001600160a01b031681526020019081526020016000206040518060c0016040529081600082015481526020016001820154815260200160028201548152602001600382015481526020016004820160009054906101000a900460ff161515151581526020016004820160019054906101000a900460ff16151515158152505090508060a0015115156000151514610de65760405162461bcd60e51b815260206004820152600d60248201526c105b1c9958591e481d9bdd1959609a1b60448201526064016108d7565b816101400151600003610e0a576000848152600d602052604090206001600b909101555b60008261012001518260400151612710610e2491906137fe565b610e2e9190613815565b6101008401516020840151610e45906127106137fe565b610e4f9190613815565b60e08501518451610e62906127106137fe565b610e6c9190613815565b610e769190613837565b610e809190613837565b6000868152601860209081526040808320338452909152902060030181905590508315610efb576000858152600d602052604081206004018054839290610ec8908490613837565b909155505081516000868152600d602052604081206006018054909190610ef0908490613837565b90915550610f6e9050565b6000858152600d602052604081206005018054839290610f1c908490613837565b909155505081516000868152600d602052604081206007018054909190610f44908490613837565b909155505060008581526018602090815260408083203384529091529020600401805460ff191690555b6000858152601860209081526040808320338452825280832060038101859055600401805461ff001916610100179055601190915281206001908101805491929091610fbb908490613837565b90915550505050505050565b610fd330333084612a02565b33600081815260116020908152604080832081516060808201845282546001600160a01b03168252600180840154838701908152600294850154848701908152865160c0810188528b8152915182890190815290518288019081529382018981526080830184815260a084018b81528e8c5260198b52898c209c8c529b8a52888b20935184559151938301939093559251948101949094555160038401555160049283018054975115156101000261ff00199215159290921661ffff199098169790971717909555868452600f90925282200180548492906110b6908490613837565b90915550506040808201516000858152600f6020529182206006018054919290916110e2908490613837565b90915550506020808201516000858152600f9092526040822060050180549192909161110f908490613837565b9091555050505050565b6111238282612b38565b5050565b33600081815260116020908152604091829020825160608101845281546001600160a01b031681526001820154928101929092526002015491810191909152906111749030908185612a02565b6040805160c0810182528381526020838101518183019081528484015183850190815260006060850181815260016080870181815260a088018481528c85526018885289852033865288528985209851895595519188019190915592516002870155516003860155905160049094018054925115156101000261ff00199515159590951661ffff1990931692909217939093179055858252600d90529081206008018054849290611226908490613837565b90915550506040808201516000858152600d602052918220600a01805491929091611252908490613837565b90915550506020808201516000858152600d9092526040822060090180549192909161110f908490613837565b60005b600c54811015610686576000818152600d60205260409020600301546028906112ab904261384a565b11156112c8576000818152600d602052604090206001600b909101555b6112d3602880613837565b6000828152600d60205260409020600301546112ef904261384a565b111561130c576000818152600d602052604090206002600b909101555b806113168161385d565b915050611282565b60008181526018602090815260408083203384528252808320600a6003820155600401805461ff00191661010017905560119091528120600190810180549192909161136b908490613837565b909155505050565b600060286113818180613837565b61138b9190613837565b6000838152600f60205260409020600201546113a7904261384a565b1192915050565b601260205260009081526040902080546001820180546001600160a01b0390921692916113da9061368d565b80601f01602080910402602001604051908101604052809291908181526020018280546114069061368d565b80156114535780601f1061142857610100808354040283529160200191611453565b820191906000526020600020905b81548152906001019060200180831161143657829003601f168201915b5050505050905082565b6000818152600d602052604080822081516101a0810190925280546001600160a01b031661016083019081526001820180548492918491610180850191906114a49061368d565b80601f01602080910402602001604051908101604052809291908181526020018280546114d09061368d565b801561151d5780601f106114f25761010080835404028352916020019161151d565b820191906000526020600020905b81548152906001019060200180831161150057829003601f168201915b50505050508152505081526020016002820154815260200160038201548152602001600482015481526020016005820154815260200160068201548152602001600782015481526020016008820154815260200160098201548152602001600a8201548152602001600b8201548152505090506000601860008481526020019081526020016000206000336001600160a01b03166001600160a01b031681526020019081526020016000206040518060c0016040529081600082015481526020016001820154815260200160028201548152602001600382015481526020016004820160009054906101000a900460ff161515151581526020016004820160019054906101000a900460ff16151515158152505090508060a001516116705760405162461bcd60e51b8152602060048201526009602482015268139bdd081d9bdd195960ba1b60448201526064016108d7565b8161014001516001036116865761168683612c58565b6000838152600d602052604080822081516101a0810190925280546001600160a01b031661016083019081526001820180548492918491610180850191906116cd9061368d565b80601f01602080910402602001604051908101604052809291908181526020018280546116f99061368d565b80156117465780601f1061171b57610100808354040283529160200191611746565b820191906000526020600020905b81548152906001019060200180831161172957829003601f168201915b50505050508152505081526020016002820154815260200160038201548152602001600482015481526020016005820154815260200160068201548152602001600782015481526020016008820154815260200160098201548152602001600a8201548152602001600b82015481525050905080610140015160041480156117cf575081608001515b15611818576000816060015183606001518360c001516117ef91906137fe565b6117f99190613815565b83516118059190613837565b9050611812303383612ece565b50611880565b806101400151600314801561182f57508160800151155b156118805760008160800151836060015160648460a001516118519190613837565b61185b91906137fe565b6118659190613815565b83516118719190613837565b905061187e303383612ece565b505b50505050565b6000611893602880613837565b6000838152600d60205260409020600301546113a7904261384a565b6000818152600d602052604080822081516101a0810190925280546001600160a01b0316610160830190815260018201805460609594859490939092849284916101808501916118fe9061368d565b80601f016020809104026020016040519081016040528092919081815260200182805461192a9061368d565b80156119775780601f1061194c57610100808354040283529160200191611977565b820191906000526020600020905b81548152906001019060200180831161195a57829003601f168201915b50505050508152505081526020016002820154815260200160038201548152602001600482015481526020016005820154815260200160068201548152602001600782015481526020016008820154815260200160098201548152602001600a8201548152602001600b8201548152505090508060000151602001519250806101400151915050915091565b611a0f30333084612a02565b6040805161012081018252338152600e805460208084018281524285870190815260608601888152600060808801818152600160a08a0181815260c08b0182815260e08c018581526101008d018681529a8652600f9099529b84209a518b546001600160a01b0319166001600160a01b03909116178b5595518a820155935160028a015591516003890155905160048801559151600587015595516006860155905160078501559051600890930192909255805490919061136b908490613837565b600033610a95818585612856565b3360008181526014602090815260408083208684528252808320859055600f825280832081516101208101835281546001600160a01b031681526001808301548286015260028084015483860152600380850154606080860191909152600480870154608080880191909152600588015460a080890191909152600689015460c0808a019190915260078a015460e08a0152600890990154610100808a01919091528f8d5260198c528a8d209d8d529c8b529a89902089519889018a528054895295860154998801999099529284015496860196909652820154948401949094529092015460ff80821615159483019490945294909404909116158015928401929092529190611c215760405162461bcd60e51b815260206004820152600d60248201526c105b1c9958591e481d9bdd1959609a1b60448201526064016108d7565b816101000151600003611c45576000848152600f6020526040902060016008909101555b60008260c001518260400151612710611c5e91906137fe565b611c689190613815565b60a08401516020840151611c7e906127106137fe565b611c889190613815565b60808501518451611c9b906127106137fe565b611ca59190613815565b611caf9190613837565b611cb99190613837565b6000868152601960209081526040808320338452825280832060048101805461ff001916610100179055600301849055888352601090915290208054919250829186908110611d0a57611d0a613876565b90600052602060002090600502016004016000828254611d2a9190613837565b90915550506000858152600f602052604081206007018054839290610fbb908490613837565b60106020528160005260406000208181548110611d6c57600080fd5b60009182526020918290206040805180820190915260059092020180546001600160a01b03168252600181018054919550919350849284019190611daf9061368d565b80601f0160208091040260200160405190810160405280929190818152602001828054611ddb9061368d565b8015611e285780601f10611dfd57610100808354040283529160200191611e28565b820191906000526020600020905b815481529060010190602001808311611e0b57829003601f168201915b50505050508152505090806002015490806003018054611e479061368d565b80601f0160208091040260200160405190810160405280929190818152602001828054611e739061368d565b8015611ec05780601f10611e9557610100808354040283529160200191611ec0565b820191906000526020600020905b815481529060010190602001808311611ea357829003601f168201915b5050505050908060040154905084565b60008281526010602052604081208054606092919084908110611ef557611ef5613876565b600091825260209091206040805160c0810190915260059092020180546001600160a01b031660808301908152600182018054849291849160a085019190611f3c9061368d565b80601f0160208091040260200160405190810160405280929190818152602001828054611f689061368d565b8015611fb55780601f10611f8a57610100808354040283529160200191611fb5565b820191906000526020600020905b815481529060010190602001808311611f9857829003601f168201915b505050505081525050815260200160028201548152602001600382018054611fdc9061368d565b80601f01602080910402602001604051908101604052809291908181526020018280546120089061368d565b80156120555780601f1061202a57610100808354040283529160200191612055565b820191906000526020600020905b81548152906001019060200180831161203857829003601f168201915b50505091835250506004919091015460209091015260400151949350505050565b33600090815260146020908152604080832085845290915290205481146120df5760405162461bcd60e51b815260206004820152601a60248201527f596f7520766f74656420616e6f746865722061727469636c652100000000000060448201526064016108d7565b6000828152600f6020908152604080832081516101208101835281546001600160a01b031681526001808301548286015260028084015483860152600380850154606080860191909152600480870154608080880191909152600588015460a080890191909152600689015460c0808a019190915260078a015460e08a0152600890990154610100808a01919091528e8d5260198c528a8d20338e528c528a8d208b519a8b018c5280548b52978801548a8d015295870154898b01529386015492880192909252939093015460ff808216151594870194909452919091049091161515908301528685526010909352908320805492939192859081106121e7576121e7613876565b600091825260209091206040805160c0810190915260059092020180546001600160a01b031660808301908152600182018054849291849160a08501919061222e9061368d565b80601f016020809104026020016040519081016040528092919081815260200182805461225a9061368d565b80156122a75780601f1061227c576101008083540402835291602001916122a7565b820191906000526020600020905b81548152906001019060200180831161228a57829003601f168201915b5050505050815250508152602001600282015481526020016003820180546122ce9061368d565b80601f01602080910402602001604051908101604052809291908181526020018280546122fa9061368d565b80156123475780601f1061231c57610100808354040283529160200191612347565b820191906000526020600020905b81548152906001019060200180831161232a57829003601f168201915b5050505050815260200160048201548152505090508160a001516123995760405162461bcd60e51b8152602060048201526009602482015268139bdd081d9bdd195960ba1b60448201526064016108d7565b8261010001516001036123bd576000858152600f6020526040902060036008909101555b6103e88360e0015182606001516127106123d791906137fe565b6123e19190613815565b505060008360e001518360600151856060015186608001516124039190613837565b61240d91906137fe565b6124179190613815565b9050612424303383612ece565b505050505050565b60005b600e54811015610686576000818152600f6020526040902060020154602890612458904261384a565b1115612475576000818152600f6020526040902060016008909101555b60286124818180613837565b61248b9190613837565b6000828152600f60205260409020600201546124a7904261384a565b11156124c4576000818152600f6020526040902060026008909101555b806124ce8161385d565b91505061242f565b3360009081526013602052604090205460ff161561252b5760405162461bcd60e51b8152602060048201526012602482015271105b1c9958591e481c9959da5cdd195c995960721b60448201526064016108d7565b6125383033306064612a02565b604080516101a08101825233610160820190815282516020601f8601819004810282018101909452848152919283926101808401918790879081908401838280828437600092018290525093909452505091835250600c54602080840182905242604080860191909152606085018490526080850184905260a0850184905260c0850184905260e08501849052600161010086018190526101208601819052610140909501849052918352600d815291208351805182546001600160a01b0319166001600160a01b0390911617825591820151909283919082019061261d9082613728565b5050506020820151816002015560408201518160030155606082015181600401556080820151816005015560a0820151816006015560c0820151816007015560e08201518160080155610100820151816009015561012082015181600a015561014082015181600b01559050506001600c600082825461269d9190613837565b90915550505050565b6001600160a01b0383166127085760405162461bcd60e51b8152602060048201526024808201527f45524332303a20617070726f76652066726f6d20746865207a65726f206164646044820152637265737360e01b60648201526084016108d7565b6001600160a01b0382166127695760405162461bcd60e51b815260206004820152602260248201527f45524332303a20617070726f766520746f20746865207a65726f206164647265604482015261737360f01b60648201526084016108d7565b6001600160a01b0383811660008181526002602090815260408083209487168084529482529182902085905590518481527f8c5be1e5ebec7d5bd14f71427d1e84f3dd0314c0f7b2291e5b200ac8c7c3b925910160405180910390a3505050565b6001600160a01b03838116600090815260026020908152604080832093861683529290522054600019811461188057818110156128495760405162461bcd60e51b815260206004820152601d60248201527f45524332303a20696e73756666696369656e7420616c6c6f77616e636500000060448201526064016108d7565b61188084848484036126a6565b6001600160a01b0383166128ba5760405162461bcd60e51b815260206004820152602560248201527f45524332303a207472616e736665722066726f6d20746865207a65726f206164604482015264647265737360d81b60648201526084016108d7565b6001600160a01b03821661291c5760405162461bcd60e51b815260206004820152602360248201527f45524332303a207472616e7366657220746f20746865207a65726f206164647260448201526265737360e81b60648201526084016108d7565b6001600160a01b038316600090815260016020526040902054818110156129945760405162461bcd60e51b815260206004820152602660248201527f45524332303a207472616e7366657220616d6f756e7420657863656564732062604482015265616c616e636560d01b60648201526084016108d7565b6001600160a01b0380851660008181526001602052604080822086860390559286168082529083902080548601905591517fddf252ad1be2c89b69c2b068fc378daa952ba7f163c4a11628f55a4df523b3ef906129f49086815260200190565b60405180910390a350505050565b604080516001600160a01b0385811660248301528481166044830152606480830185905283518084039091018152608490920183526020820180516001600160e01b03166323b872dd60e01b1790529151600092839290881691612a66919061388c565b6000604051808303816000865af19150503d8060008114612aa3576040519150601f19603f3d011682016040523d82523d6000602084013e612aa8565b606091505b5091509150818015612ad2575080511580612ad2575080806020019051810190612ad291906138a8565b6124245760405162461bcd60e51b815260206004820152603160248201527f5472616e7366657248656c7065723a3a7472616e7366657246726f6d3a207472604482015270185b9cd9995c919c9bdb4819985a5b1959607a1b60648201526084016108d7565b6001600160a01b038216612b8e5760405162461bcd60e51b815260206004820152601f60248201527f45524332303a206d696e7420746f20746865207a65726f20616464726573730060448201526064016108d7565b60005481600354612b9f9190613837565b1115612bed5760405162461bcd60e51b815260206004820152601e60248201527f45524332303a206d696e7420616d6f756e74206578636565647320636170000060448201526064016108d7565b8060036000828254612bff9190613837565b90915550506001600160a01b0382166000818152600160209081526040808320805486019055518481527fddf252ad1be2c89b69c2b068fc378daa952ba7f163c4a11628f55a4df523b3ef910160405180910390a35050565b6000818152600d602052604080822081516101a0810190925280546001600160a01b03166101608301908152600182018054849291849161018085019190612c9f9061368d565b80601f0160208091040260200160405190810160405280929190818152602001828054612ccb9061368d565b8015612d185780601f10612ced57610100808354040283529160200191612d18565b820191906000526020600020905b815481529060010190602001808311612cfb57829003601f168201915b50505050508152505081526020016002820154815260200160038201548152602001600482015481526020016005820154815260200160068201548152602001600782015481526020016008820154815260200160098201548152602001600a8201548152602001600b820154815250509050600a5481608001518260600151612da29190613837565b6060830151612db3906127106137fe565b612dbd9190613815565b10612e62576000828152600d602052604090206004600b90910155612de0612ff8565b600b805460018181018355600092835260208083047f0175b7a638427703f0dbe7bb9bbf987a2551717b34e79f33b5b1008d1fa01db901805460ff601f9095166101000a94850219169093179092558351516001600160a01b0316835260139091526040909120805460ff191690911790558051516111239030906064612ece565b6000828152600d602052604090206003600b90910155612e80613171565b5050600b80546001810182556000919091527f0175b7a638427703f0dbe7bb9bbf987a2551717b34e79f33b5b1008d1fa01db960208204018054601f9092166101000a60ff02199091169055565b604080516001600160a01b038481166024830152604480830185905283518084039091018152606490920183526020820180516001600160e01b031663a9059cbb60e01b1790529151600092839290871691612f2a919061388c565b6000604051808303816000865af19150503d8060008114612f67576040519150601f19603f3d011682016040523d82523d6000602084013e612f6c565b606091505b5091509150818015612f96575080511580612f96575080806020019051810190612f9691906138a8565b61187e5760405162461bcd60e51b815260206004820152602d60248201527f5472616e7366657248656c7065723a3a736166655472616e736665723a20747260448201526c185b9cd9995c8819985a5b1959609a1b60648201526084016108d7565b6000600b80548060200260200160405190810160405280929190818152602001828054801561306657602002820191906000526020600020906000905b825461010083900a900460ff1615158152602060019283018181049485019490930390920291018084116130355790505b5050505050905080516000036130795750565b8060018251613088919061384a565b8151811061309857613098613876565b6020026020010151151560011515036130c9576001600660008282546130be9190613837565b909155506130e29050565b6001600860008282546130dc9190613837565b90915550505b60006007546006546130f49190613837565b600654613103906127106137fe565b61310d9190613815565b905060006009546008546131219190613837565b600854613130906127106137fe565b61313a9190613815565b90508161314961271083613837565b613153919061384a565b61315f826127106137fe565b6131699190613815565b600a55505050565b6000600b8054806020026020016040519081016040528092919081815260200182805480156131df57602002820191906000526020600020906000905b825461010083900a900460ff1615158152602060019283018181049485019490930390920291018084116131ae5790505b5050505050905080516000036131f25750565b8060018251613201919061384a565b8151811061321157613211613876565b602002602001015115156001151503613242576001600760008282546132379190613837565b9091555061325b9050565b6001600960008282546132559190613837565b90915550505b600060075460065461326d9190613837565b60075461327c906127106137fe565b6132869190613815565b9050600060095460085461329a9190613837565b6009546132a9906127106137fe565b6132b39190613815565b9050816132c261271083613837565b6132cc919061384a565b6132d8826127106137fe565b6132e29190613815565b6131699061271061384a565b60008083601f84011261330057600080fd5b50813567ffffffffffffffff81111561331857600080fd5b60208301915083602082850101111561333057600080fd5b9250929050565b60008060006040848603121561334c57600080fd5b83359250602084013567ffffffffffffffff81111561336a57600080fd5b613376868287016132ee565b9497909650939450505050565b60006020828403121561339557600080fd5b5035919050565b80356001600160a01b03811681146133b357600080fd5b919050565b6000602082840312156133ca57600080fd5b6133d38261339c565b9392505050565b600080604083850312156133ed57600080fd5b6133f68361339c565b946020939093013593505050565b60005b8381101561341f578181015183820152602001613407565b50506000910152565b60008151808452613440816020860160208601613404565b601f01601f19169290920160200192915050565b60018060a01b038151168252600060208201516040602085015261347b6040850182613428565b949350505050565b60006101608083526134978184018f613454565b602084019d909d52505060408101999099526060890197909752608088019590955260a087019390935260c086019190915260e085015261010084015261012083015261014090910152919050565b6000806000606084860312156134fb57600080fd5b6135048461339c565b92506135126020850161339c565b9150604084013590509250925092565b801515811461068657600080fd5b6000806040838503121561354357600080fd5b82359150602083013561355581613522565b809150509250929050565b6000806040838503121561357357600080fd5b50508035926020909101359150565b6001600160a01b038316815260406020820181905260009061347b90830184613428565b6040815260006135b96040830185613428565b90508260208301529392505050565b6080815260006135db6080830187613454565b85602084015282810360408401526135f38186613428565b91505082606083015295945050505050565b6020815260006133d36020830184613428565b6000806040838503121561362b57600080fd5b6136348361339c565b91506136426020840161339c565b90509250929050565b6000806020838503121561365e57600080fd5b823567ffffffffffffffff81111561367557600080fd5b613681858286016132ee565b90969095509350505050565b600181811c908216806136a157607f821691505b6020821081036136c157634e487b7160e01b600052602260045260246000fd5b50919050565b634e487b7160e01b600052604160045260246000fd5b601f82111561372357600081815260208120601f850160051c810160208610156137045750805b601f850160051c820191505b8181101561242457828155600101613710565b505050565b815167ffffffffffffffff811115613742576137426136c7565b61375681613750845461368d565b846136dd565b602080601f83116001811461378b57600084156137735750858301515b600019600386901b1c1916600185901b178555612424565b600085815260208120601f198616915b828110156137ba5788860151825594840194600190910190840161379b565b50858210156137d85787850151600019600388901b60f8161c191681555b5050505050600190811b01905550565b634e487b7160e01b600052601160045260246000fd5b8082028115828204841417610a9b57610a9b6137e8565b60008261383257634e487b7160e01b600052601260045260246000fd5b500490565b80820180821115610a9b57610a9b6137e8565b81810381811115610a9b57610a9b6137e8565b60006001820161386f5761386f6137e8565b5060010190565b634e487b7160e01b600052603260045260246000fd5b6000825161389e818460208701613404565b9190910192915050565b6000602082840312156138ba57600080fd5b81516133d38161352256fea2646970667358221220150ec493ff789184369482108e828c770052d067cf1315b03dbb02317e4ee81764736f6c63430008120033",
    "linkReferences": {}
  },
  "methodIdentifiers": {
    "ARTICLEREGISTRATIONEXPIRY()": "f51c198f",
    "CHALLEGEEXPIRY()": "f3c4f7ba",
    "DECIMALS()": "2e0f2625",
    "PARTICIPATIONEXPIRY()": "63e4851a",
    "REGISTRATIONDEPOSIT()": "dfa23ba6",
    "VOTINGEXPIRY()": "540fd28e",
    "_pi_quorum()": "826d053a",
    "aVoteParticipate(uint256,uint256)": "3ac16074",
    "allowance(address,address)": "dd62ed3e",
    "approve(address,uint256)": "095ea7b3",
    "articleRegister(uint256,string)": "012d0ec1",
    "articles(uint256,uint256)": "c419fb98",
    "balanceOf(address)": "70a08231",
    "canclaima(uint256)": "82114be1",
    "canclaimw(uint256)": "960f9c0c",
    "challenge(uint256)": "ab82d9a0",
    "change(uint256)": "75322e47",
    "claimRewardA(uint256,uint256)": "d966a540",
    "claimRewardW(uint256)": "94440679",
    "claimW(uint256)": "182f020b",
    "decimals()": "313ce567",
    "getProposal(uint256)": "c7f758a8",
    "getWregister(uint256)": "a432582c",
    "getarticle(uint256,uint256)": "d5e6f3d0",
    "getarticlenum(uint256)": "b3540312",
    "getproposalnum()": "47ef6cf1",
    "getregisternum()": "ddb0daae",
    "members(address)": "08ae4b0c",
    "mint(address,uint256)": "40c10f19",
    "proposalnum()": "cada6091",
    "proposals(uint256)": "013cf08b",
    "propose(uint256)": "a618b74e",
    "r1()": "6ca5b5b0",
    "r2()": "0bcbbd21",
    "r3()": "8bf6e410",
    "refreshA()": "db3cc402",
    "refreshw()": "5bee3578",
    "registrationnum()": "c89996e8",
    "totalSupply()": "18160ddd",
    "transfer(address,uint256)": "a9059cbb",
    "transferFrom(address,address,uint256)": "23b872dd",
    "voteRanking(uint256,uint256)": "af8b9f7a",
    "voteRegister(uint256,bool)": "3616db13",
    "votedarticles(address,uint256)": "701809fc",
    "wVoteParticipate(uint256,uint256)": "494bdc02",
    "writerRegister(string)": "faaa169b",
    "writerRegistrations(uint256)": "197eb393",
    "writermapping(address)": "8ec86992",
    "writers(address)": "8e7e80a2"
  },
  "id": 17
}