{
  "abi": [
    {
      "anonymous": false,
      "inputs": [
        {
          "indexed": true,
          "internalType": "address",
          "name": "owner",
          "type": "address"
        },
        {
          "indexed": true,
          "internalType": "address",
          "name": "spender",
          "type": "address"
        },
        {
          "indexed": false,
          "internalType": "uint256",
          "name": "value",
          "type": "uint256"
        }
      ],
      "name": "Approval",
      "type": "event"
    },
    {
      "anonymous": false,
      "inputs": [
        {
          "indexed": true,
          "internalType": "address",
          "name": "from",
          "type": "address"
        },
        {
          "indexed": true,
          "internalType": "address",
          "name": "to",
          "type": "address"
        },
        {
          "indexed": false,
          "internalType": "uint256",
          "name": "value",
          "type": "uint256"
        }
      ],
      "name": "Transfer",
      "type": "event"
    },
    {
      "inputs": [],
      "name": "ARTICLEREGISTRATIONEXPIRY",
      "outputs": [
        {
          "internalType": "uint256",
          "name": "",
          "type": "uint256"
        }
      ],
      "stateMutability": "view",
      "type": "function"
    },
    {
      "inputs": [],
      "name": "CHALLEGEEXPIRY",
      "outputs": [
        {
          "internalType": "uint256",
          "name": "",
          "type": "uint256"
        }
      ],
      "stateMutability": "view",
      "type": "function"
    },
    {
      "inputs": [],
      "name": "DECIMALS",
      "outputs": [
        {
          "internalType": "uint256",
          "name": "",
          "type": "uint256"
        }
      ],
      "stateMutability": "view",
      "type": "function"
    },
    {
      "inputs": [],
      "name": "PARTICIPATIONEXPIRY",
      "outputs": [
        {
          "internalType": "uint256",
          "name": "",
          "type": "uint256"
        }
      ],
      "stateMutability": "view",
      "type": "function"
    },
    {
      "inputs": [],
      "name": "REGISTRATIONDEPOSIT",
      "outputs": [
        {
          "internalType": "uint256",
          "name": "",
          "type": "uint256"
        }
      ],
      "stateMutability": "view",
      "type": "function"
    },
    {
      "inputs": [],
      "name": "VOTINGEXPIRY",
      "outputs": [
        {
          "internalType": "uint256",
          "name": "",
          "type": "uint256"
        }
      ],
      "stateMutability": "view",
      "type": "function"
    },
    {
      "inputs": [],
      "name": "_pi_quorum",
      "outputs": [
        {
          "internalType": "uint256",
          "name": "",
          "type": "uint256"
        }
      ],
      "stateMutability": "view",
      "type": "function"
    },
    {
      "inputs": [
        {
          "internalType": "uint256",
          "name": "proposalid",
          "type": "uint256"
        },
        {
          "internalType": "uint256",
          "name": "stake",
          "type": "uint256"
        }
      ],
      "name": "aVoteParticipate",
      "outputs": [],
      "stateMutability": "nonpayable",
      "type": "function"
    },
    {
      "inputs": [
        {
          "internalType": "address",
          "name": "owner",
          "type": "address"
        },
        {
          "internalType": "address",
          "name": "spender",
          "type": "address"
        }
      ],
      "name": "allowance",
      "outputs": [
        {
          "internalType": "uint256",
          "name": "",
          "type": "uint256"
        }
      ],
      "stateMutability": "view",
      "type": "function"
    },
    {
      "inputs": [
        {
          "internalType": "address",
          "name": "spender",
          "type": "address"
        },
        {
          "internalType": "uint256",
          "name": "amount",
          "type": "uint256"
        }
      ],
      "name": "approve",
      "outputs": [
        {
          "internalType": "bool",
          "name": "",
          "type": "bool"
        }
      ],
      "stateMutability": "nonpayable",
      "type": "function"
    },
    {
      "inputs": [
        {
          "internalType": "uint256",
          "name": "proposalid",
          "type": "uint256"
        },
        {
          "internalType": "string",
          "name": "url",
          "type": "string"
        }
      ],
      "name": "articleRegister",
      "outputs": [],
      "stateMutability": "nonpayable",
      "type": "function"
    },
    {
      "inputs": [
        {
          "internalType": "uint256",
          "name": "",
          "type": "uint256"
        },
        {
          "internalType": "uint256",
          "name": "",
          "type": "uint256"
        }
      ],
      "name": "articles",
      "outputs": [
        {
          "components": [
            {
              "internalType": "address",
              "name": "_address",
              "type": "address"
            },
            {
              "internalType": "string",
              "name": "twitterHandle",
              "type": "string"
            }
          ],
          "internalType": "struct Article_DAO.Writer",
          "name": "writer",
          "type": "tuple"
        },
        {
          "internalType": "uint256",
          "name": "articleid",
          "type": "uint256"
        },
        {
          "internalType": "string",
          "name": "url",
          "type": "string"
        },
        {
          "internalType": "uint256",
          "name": "votedweights",
          "type": "uint256"
        }
      ],
      "stateMutability": "view",
      "type": "function"
    },
    {
      "inputs": [
        {
          "internalType": "address",
          "name": "account",
          "type": "address"
        }
      ],
      "name": "balanceOf",
      "outputs": [
        {
          "internalType": "uint256",
          "name": "",
          "type": "uint256"
        }
      ],
      "stateMutability": "view",
      "type": "function"
    },
    {
      "inputs": [
        {
          "internalType": "uint256",
          "name": "wregisterid",
          "type": "uint256"
        }
      ],
      "name": "challenge",
      "outputs": [],
      "stateMutability": "nonpayable",
      "type": "function"
    },
    {
      "inputs": [
        {
          "internalType": "uint256",
          "name": "proposalid",
          "type": "uint256"
        },
        {
          "internalType": "uint256",
          "name": "articleid",
          "type": "uint256"
        }
      ],
      "name": "claimRewardA",
      "outputs": [],
      "stateMutability": "nonpayable",
      "type": "function"
    },
    {
      "inputs": [
        {
          "internalType": "uint256",
          "name": "wregisterid",
          "type": "uint256"
        }
      ],
      "name": "claimRewardW",
      "outputs": [],
      "stateMutability": "nonpayable",
      "type": "function"
    },
    {
      "inputs": [],
      "name": "decimals",
      "outputs": [
        {
          "internalType": "uint8",
          "name": "",
          "type": "uint8"
        }
      ],
      "stateMutability": "pure",
      "type": "function"
    },
    {
      "inputs": [
        {
          "internalType": "address",
          "name": "",
          "type": "address"
        }
      ],
      "name": "members",
      "outputs": [
        {
          "internalType": "address",
          "name": "_address",
          "type": "address"
        },
        {
          "internalType": "uint256",
          "name": "votes",
          "type": "uint256"
        },
        {
          "internalType": "uint256",
          "name": "challenges",
          "type": "uint256"
        }
      ],
      "stateMutability": "view",
      "type": "function"
    },
    {
      "inputs": [
        {
          "internalType": "address",
          "name": "account",
          "type": "address"
        },
        {
          "internalType": "uint256",
          "name": "amount",
          "type": "uint256"
        }
      ],
      "name": "mint",
      "outputs": [],
      "stateMutability": "nonpayable",
      "type": "function"
    },
    {
      "inputs": [
        {
          "internalType": "uint256",
          "name": "",
          "type": "uint256"
        }
      ],
      "name": "proposalids",
      "outputs": [
        {
          "internalType": "uint256",
          "name": "",
          "type": "uint256"
        }
      ],
      "stateMutability": "view",
      "type": "function"
    },
    {
      "inputs": [
        {
          "internalType": "uint256",
          "name": "",
          "type": "uint256"
        }
      ],
      "name": "proposals",
      "outputs": [
        {
          "internalType": "address",
          "name": "proposer",
          "type": "address"
        },
        {
          "internalType": "uint256",
          "name": "applytime",
          "type": "uint256"
        },
        {
          "internalType": "uint256",
          "name": "proposerstake",
          "type": "uint256"
        },
        {
          "internalType": "uint256",
          "name": "totalstake",
          "type": "uint256"
        },
        {
          "internalType": "uint256",
          "name": "totalvotes",
          "type": "uint256"
        },
        {
          "internalType": "uint256",
          "name": "totalchallenges",
          "type": "uint256"
        },
        {
          "internalType": "uint256",
          "name": "totalweights",
          "type": "uint256"
        },
        {
          "internalType": "enum Article_DAO.VotingResult",
          "name": "votingResult",
          "type": "uint8"
        }
      ],
      "stateMutability": "view",
      "type": "function"
    },
    {
      "inputs": [
        {
          "internalType": "uint256",
          "name": "stake",
          "type": "uint256"
        }
      ],
      "name": "propose",
      "outputs": [],
      "stateMutability": "nonpayable",
      "type": "function"
    },
    {
      "inputs": [],
      "name": "totalSupply",
      "outputs": [
        {
          "internalType": "uint256",
          "name": "",
          "type": "uint256"
        }
      ],
      "stateMutability": "view",
      "type": "function"
    },
    {
      "inputs": [
        {
          "internalType": "address",
          "name": "to",
          "type": "address"
        },
        {
          "internalType": "uint256",
          "name": "amount",
          "type": "uint256"
        }
      ],
      "name": "transfer",
      "outputs": [
        {
          "internalType": "bool",
          "name": "",
          "type": "bool"
        }
      ],
      "stateMutability": "nonpayable",
      "type": "function"
    },
    {
      "inputs": [
        {
          "internalType": "address",
          "name": "from",
          "type": "address"
        },
        {
          "internalType": "address",
          "name": "to",
          "type": "address"
        },
        {
          "internalType": "uint256",
          "name": "amount",
          "type": "uint256"
        }
      ],
      "name": "transferFrom",
      "outputs": [
        {
          "internalType": "bool",
          "name": "",
          "type": "bool"
        }
      ],
      "stateMutability": "nonpayable",
      "type": "function"
    },
    {
      "inputs": [
        {
          "internalType": "uint256",
          "name": "proposalid",
          "type": "uint256"
        },
        {
          "internalType": "uint256",
          "name": "articleid",
          "type": "uint256"
        }
      ],
      "name": "voteRanking",
      "outputs": [],
      "stateMutability": "nonpayable",
      "type": "function"
    },
    {
      "inputs": [
        {
          "internalType": "uint256",
          "name": "wRegisterID",
          "type": "uint256"
        },
        {
          "internalType": "bool",
          "name": "voteFor",
          "type": "bool"
        }
      ],
      "name": "voteRegister",
      "outputs": [],
      "stateMutability": "nonpayable",
      "type": "function"
    },
    {
      "inputs": [
        {
          "internalType": "address",
          "name": "",
          "type": "address"
        },
        {
          "internalType": "uint256",
          "name": "",
          "type": "uint256"
        }
      ],
      "name": "votedarticles",
      "outputs": [
        {
          "internalType": "uint256",
          "name": "",
          "type": "uint256"
        }
      ],
      "stateMutability": "view",
      "type": "function"
    },
    {
      "inputs": [
        {
          "internalType": "uint256",
          "name": "",
          "type": "uint256"
        }
      ],
      "name": "wRegisterids",
      "outputs": [
        {
          "internalType": "uint256",
          "name": "",
          "type": "uint256"
        }
      ],
      "stateMutability": "view",
      "type": "function"
    },
    {
      "inputs": [
        {
          "internalType": "uint256",
          "name": "wregisterid",
          "type": "uint256"
        },
        {
          "internalType": "uint256",
          "name": "stake",
          "type": "uint256"
        }
      ],
      "name": "wVoteParticipate",
      "outputs": [],
      "stateMutability": "nonpayable",
      "type": "function"
    },
    {
      "inputs": [
        {
          "internalType": "string",
          "name": "twitterhandle",
          "type": "string"
        }
      ],
      "name": "writerRegister",
      "outputs": [],
      "stateMutability": "nonpayable",
      "type": "function"
    },
    {
      "inputs": [
        {
          "internalType": "uint256",
          "name": "",
          "type": "uint256"
        }
      ],
      "name": "writerRegistrations",
      "outputs": [
        {
          "components": [
            {
              "internalType": "address",
              "name": "_address",
              "type": "address"
            },
            {
              "internalType": "string",
              "name": "twitterHandle",
              "type": "string"
            }
          ],
          "internalType": "struct Article_DAO.Writer",
          "name": "writer",
          "type": "tuple"
        },
        {
          "internalType": "uint256",
          "name": "applytime",
          "type": "uint256"
        },
        {
          "internalType": "uint256",
          "name": "voteFor",
          "type": "uint256"
        },
        {
          "internalType": "uint256",
          "name": "voteAgainst",
          "type": "uint256"
        },
        {
          "internalType": "uint256",
          "name": "voteForstake",
          "type": "uint256"
        },
        {
          "internalType": "uint256",
          "name": "voteAgainststake",
          "type": "uint256"
        },
        {
          "internalType": "uint256",
          "name": "totalstake",
          "type": "uint256"
        },
        {
          "internalType": "uint256",
          "name": "totalvotes",
          "type": "uint256"
        },
        {
          "internalType": "uint256",
          "name": "totalchallenges",
          "type": "uint256"
        },
        {
          "internalType": "enum Article_DAO.VotingResult",
          "name": "votingResult",
          "type": "uint8"
        }
      ],
      "stateMutability": "view",
      "type": "function"
    },
    {
      "inputs": [
        {
          "internalType": "address",
          "name": "",
          "type": "address"
        }
      ],
      "name": "writermapping",
      "outputs": [
        {
          "internalType": "address",
          "name": "_address",
          "type": "address"
        },
        {
          "internalType": "string",
          "name": "twitterHandle",
          "type": "string"
        }
      ],
      "stateMutability": "view",
      "type": "function"
    },
    {
      "inputs": [
        {
          "internalType": "address",
          "name": "",
          "type": "address"
        }
      ],
      "name": "writers",
      "outputs": [
        {
          "internalType": "bool",
          "name": "",
          "type": "bool"
        }
      ],
      "stateMutability": "view",
      "type": "function"
    }
  ],
  "bytecode": {
    "object": "0x633b9aca0060005560c0604052600660809081526508ed8d2e8c6d60d31b60a0526004906200002f90826200014a565b5060408051808201909152600481526308e9886960e31b60208201526005906200005a90826200014a565b506001600655600160075560016008556001600955600a612710600562000082919062000216565b6200008e919062000242565b600a553480156200009e57600080fd5b5062000265565b634e487b7160e01b600052604160045260246000fd5b600181811c90821680620000d057607f821691505b602082108103620000f157634e487b7160e01b600052602260045260246000fd5b50919050565b601f8211156200014557600081815260208120601f850160051c81016020861015620001205750805b601f850160051c820191505b8181101562000141578281556001016200012c565b5050505b505050565b81516001600160401b03811115620001665762000166620000a5565b6200017e81620001778454620000bb565b84620000f7565b602080601f831160018114620001b657600084156200019d5750858301515b600019600386901b1c1916600185901b17855562000141565b600085815260208120601f198616915b82811015620001e757888601518255948401946001909101908401620001c6565b5085821015620002065787850151600019600388901b60f8161c191681555b5050505050600190811b01905550565b80820281158282048414176200023c57634e487b7160e01b600052601160045260246000fd5b92915050565b6000826200026057634e487b7160e01b600052601260045260246000fd5b500490565b61373280620002756000396000f3fe608060405234801561001057600080fd5b50600436106102065760003560e01c8063826d053a1161011a578063af8b9f7a116100ad578063dfa23ba61161007c578063dfa23ba6146103ce578063ed04776114610556578063f3c4f7ba146103ce578063f51c198f146103ce578063faaa169b1461056957600080fd5b8063af8b9f7a146104d4578063c419fb98146104e7578063d966a5401461050a578063dd62ed3e1461051d57600080fd5b80639c9eacb2116100e95780639c9eacb21461048a578063a618b74e1461049d578063a9059cbb146104b0578063ab82d9a0146104c357600080fd5b8063826d053a1461042a5780638e7e80a2146104335780638ec8699214610456578063944406791461047757600080fd5b8063313ce5671161019d578063494bdc021161016c578063494bdc02146103bb578063540fd28e146103ce57806363e4851a146103ce578063701809fc146103d657806370a082311461040157600080fd5b8063313ce567146103735780633616db13146103825780633ac160741461039557806340c10f19146103a857600080fd5b806318160ddd116101d957806318160ddd1461031c578063197eb3931461032e57806323b872dd146103575780632e0f26251461036a57600080fd5b8063012d0ec11461020b578063013cf08b1461022057806308ae4b0c1461029b578063095ea7b3146102f9575b600080fd5b61021e6102193660046130f6565b61057c565b005b61027e61022e366004613142565b600f60205260009081526040902080546001820154600283015460038401546004850154600586015460068701546007909701546001600160a01b03909616969495939492939192909160ff1688565b604051610292989796959493929190613193565b60405180910390f35b6102d46102a9366004613204565b6011602052600090815260409020805460018201546002909201546001600160a01b03909116919083565b604080516001600160a01b039094168452602084019290925290820152606001610292565b61030c610307366004613226565b6108a9565b6040519015158152602001610292565b6003545b604051908152602001610292565b61034161033c366004613142565b6108c3565b6040516102929a999897969594939291906132cf565b61030c610365366004613334565b6109cd565b61032061271081565b60405160128152602001610292565b61021e61039036600461337e565b6109f1565b61021e6103a33660046133ae565b610e2c565b61021e6103b6366004613226565b610fe7565b61021e6103c93660046133ae565b610ff5565b610320606481565b6103206103e4366004613226565b601460209081526000928352604080842090915290825290205481565b61032061040f366004613204565b6001600160a01b031660009081526001602052604090205490565b610320600a5481565b61030c610441366004613204565b60136020526000908152604090205460ff1681565b610469610464366004613204565b6111ae565b6040516102929291906133d0565b61021e610485366004613142565b61125d565b610320610498366004613142565b611719565b61021e6104ab366004613142565b61173a565b61030c6104be366004613226565b61183c565b61021e6104d1366004613142565b50565b61021e6104e23660046133ae565b61184a565b6104fa6104f53660046133ae565b611ba3565b60405161029294939291906133f4565b61021e6105183660046133ae565b611d23565b61032061052b366004613431565b6001600160a01b03918216600090815260026020908152604080832093909416825291909152205490565b610320610564366004613142565b61222e565b61021e610577366004613464565b61223e565b6000838152600f6020908152604080832081516101008101835281546001600160a01b03168152600182015493810193909352600281015491830191909152600380820154606084015260048201546080840152600582015460a0840152600682015460c0840152600782015460e084019160ff909116908111156106035761060361315b565b60038111156106145761061461315b565b9052503360009081526013602052604090205490915060ff1661066d5760405162461bcd60e51b815260206004820152600c60248201526b2737ba1030903bb934ba32b960a11b60448201526064015b60405180910390fd5b602081015161067c90426134bc565b6106876064806134cf565b116106d45760405162461bcd60e51b815260206004820152601c60248201527f41727469636c6520726567697374726174696f6e2065787069726564000000006044820152606401610664565b60208101516106e390426134bc565b6064106107025760405162461bcd60e51b8152600401610664906134e2565b60008481526010602090815260408083208054825133865260129094529382902060c0840190925281546001600160a01b0316608084019081526001830180549294938493909160a085019161075790613519565b80601f016020809104026020016040519081016040528092919081815260200182805461078390613519565b80156107d05780601f106107a5576101008083540402835291602001916107d0565b820191906000526020600020905b8154815290600101906020018083116107b357829003601f168201915b505050505081525050815260200183815260200186868080601f016020809104026020016040519081016040528093929190818152602001838380828437600092018290525093855250505060209182018190528354600180820186559482529082902083518051600590930290910180546001600160a01b0319166001600160a01b039093169290921782559182015192939092839182019061087490826135b4565b505050602082015160028201556040820151600382019061089590826135b4565b506060820151816004015550505050505050565b6000336108b781858561243b565b60019150505b92915050565b600d60209081526000918252604091829020825180840190935280546001600160a01b031683526001810180549193928492908401919061090390613519565b80601f016020809104026020016040519081016040528092919081815260200182805461092f90613519565b801561097c5780601f106109515761010080835404028352916020019161097c565b820191906000526020600020905b81548152906001019060200180831161095f57829003601f168201915b5050505050815250509080600201549080600301549080600401549080600501549080600601549080600701549080600801549080600901549080600a0160009054906101000a900460ff1690508a565b6000336109db85828561255f565b6109e68585856125eb565b506001949350505050565b6000828152600d60205260408082208151610180810190925280546001600160a01b03166101408301908152600182018054849291849161016085019190610a3890613519565b80601f0160208091040260200160405190810160405280929190818152602001828054610a6490613519565b8015610ab15780601f10610a8657610100808354040283529160200191610ab1565b820191906000526020600020905b815481529060010190602001808311610a9457829003601f168201915b5050509190925250505081526002820154602082015260038083015460408301526004830154606083015260058301546080830152600683015460a0830152600783015460c0830152600883015460e08301526009830154610100830152600a8301546101209092019160ff1690811115610b2e57610b2e61315b565b6003811115610b3f57610b3f61315b565b9052506020810151909150610b5490426134bc565b610b5f6064806134cf565b11610b9d5760405162461bcd60e51b815260206004820152600e60248201526d159bdd1a5b99c8195e1c1a5c995960921b6044820152606401610664565b6020810151610bac90426134bc565b606410610bcb5760405162461bcd60e51b8152600401610664906134e2565b6000838152601560209081526040808320338452825291829020825160c081018452815481526001820154928101929092526002810154928201929092526003820154606082015260049091015460ff808216151560808401526101009091041615801560a0830152610c705760405162461bcd60e51b815260206004820152600d60248201526c105b1c9958591e481d9bdd1959609a1b6044820152606401610664565b60008261010001518260400151612710610c8a9190613674565b610c94919061368b565b60e08401516020840151610caa90612710613674565b610cb4919061368b565b60c08501518451610cc790612710613674565b610cd1919061368b565b610cdb91906134cf565b610ce591906134cf565b6000868152601560209081526040808320338452909152902060030181905590508315610d60576000858152600d602052604081206003018054839290610d2d9084906134cf565b909155505081516000868152600d602052604081206005018054909190610d559084906134cf565b90915550610dd39050565b6000858152600d602052604081206004018054839290610d819084906134cf565b909155505081516000868152600d602052604081206006018054909190610da99084906134cf565b909155505060008581526015602090815260408083203384529091529020600401805460ff191690555b6000858152601560209081526040808320338452825280832060038101859055600401805461ff001916610100179055601190915281206001908101805491929091610e209084906134cf565b90915550505050505050565b610e3830333084612797565b6000828152600f6020526040902060010154610e5490426134bc565b606411610e995760405162461bcd60e51b8152602060048201526013602482015272105c1c1b1a58d85d1a5bdb88195e1c1a5c9959606a1b6044820152606401610664565b33600081815260116020908152604080832081516060808201845282546001600160a01b03168252600180840154838701908152600294850154848701908152865160c0810188528b8152915182890190815290518288019081529382018981526080830184815260a084018b81528e8c5260168b52898c209c8c529b8a52888b209351845591519383019390935592519481019490945551600380850191909155905160049093018054975115156101000261ff00199415159490941661ffff199098169790971792909217909555868452600f9092528220018054849290610f849084906134cf565b90915550506040808201516000858152600f602052918220600501805491929091610fb09084906134cf565b90915550506020808201516000858152600f90925260408220600401805491929091610fdd9084906134cf565b9091555050505050565b610ff182826128cd565b5050565b6000828152600d602052604090206002015461101190426134bc565b6064116110565760405162461bcd60e51b8152602060048201526013602482015272105c1c1b1a58d85d1a5bdb88195e1c1a5c9959606a1b6044820152606401610664565b33600081815260116020908152604091829020825160608101845281546001600160a01b031681526001820154928101929092526002015491810191909152906110a39030908185612797565b6040805160c0810182528381526020838101518183019081528484015183850190815260006060850181815260016080870181815260a088018481528c85526015885289852033865288528985209851895595519188019190915592516002870155516003860155905160049094018054925115156101000261ff00199515159590951661ffff1990931692909217939093179055858252600d905290812060070180548492906111559084906134cf565b90915550506040808201516000858152600d6020529182206009018054919290916111819084906134cf565b90915550506020808201516000858152600d90925260408220600801805491929091610fdd9084906134cf565b601260205260009081526040902080546001820180546001600160a01b0390921692916111da90613519565b80601f016020809104026020016040519081016040528092919081815260200182805461120690613519565b80156112535780601f1061122857610100808354040283529160200191611253565b820191906000526020600020905b81548152906001019060200180831161123657829003601f168201915b5050505050905082565b6000818152600d60205260408082208151610180810190925280546001600160a01b031661014083019081526001820180548492918491610160850191906112a490613519565b80601f01602080910402602001604051908101604052809291908181526020018280546112d090613519565b801561131d5780601f106112f25761010080835404028352916020019161131d565b820191906000526020600020905b81548152906001019060200180831161130057829003601f168201915b5050509190925250505081526002820154602082015260038083015460408301526004830154606083015260058301546080830152600683015460a0830152600783015460c0830152600883015460e08301526009830154610100830152600a8301546101209092019160ff169081111561139a5761139a61315b565b60038111156113ab576113ab61315b565b9052506000838152601560209081526040808320338452825291829020825160c081018452815481526001820154928101929092526002810154928201929092526003820154606082015260049091015460ff8082161515608084015261010090910416151560a08201819052919250906114545760405162461bcd60e51b8152602060048201526009602482015268139bdd081d9bdd195960ba1b6044820152606401610664565b602082015161146390426134bc565b61146e6064806134cf565b106114b05760405162461bcd60e51b8152602060048201526012602482015271159bdd1a5b99c81b9bdd08195e1c1a5c995960721b6044820152606401610664565b600382610120015160038111156114c9576114c961315b565b036114d7576114d7836129ed565b6000838152600d60205260408082208151610180810190925280546001600160a01b0316610140830190815260018201805484929184916101608501919061151e90613519565b80601f016020809104026020016040519081016040528092919081815260200182805461154a90613519565b80156115975780601f1061156c57610100808354040283529160200191611597565b820191906000526020600020905b81548152906001019060200180831161157a57829003601f168201915b5050509190925250505081526002820154602082015260038083015460408301526004830154606083015260058301546080830152600683015460a0830152600783015460c0830152600883015460e08301526009830154610100830152600a8301546101209092019160ff16908111156116145761161461315b565b60038111156116255761162561315b565b9052509050600081610120015160038111156116435761164361315b565b148015611651575081608001515b1561169a576000816040015183606001518360a001516116719190613674565b61167b919061368b565b835161168791906134cf565b9050611694303383612c8d565b50611713565b600181610120015160038111156116b3576116b361315b565b1480156116c257508160800151155b1561171357600081606001518360600151606484608001516116e491906134cf565b6116ee9190613674565b6116f8919061368b565b835161170491906134cf565b9050611711303383612c8d565b505b50505050565b600e818154811061172957600080fd5b600091825260209091200154905081565b61174630333084612797565b600e805460018082019092557fbb7b4a454dc3493923482f07822329ed19e8244eff582cc204f8554c3620c3fd810181905560408051610100810182523381524260208083019182528284018781526000606085018181526080860189815260a087018a815260c08801848152600360e08a018181528c8752600f90985299909420885181546001600160a01b0319166001600160a01b039091161781559651878c01559351600287015590518588015551600485015590516005840155516006830155516007820180549596939592949193909260ff19169184908111156118315761183161315b565b021790555050505050565b6000336108b78185856125eb565b3360009081526014602090815260408083208584528252808320849055600f825280832081516101008101835281546001600160a01b03168152600182015493810193909352600281015491830191909152600380820154606084015260048201546080840152600582015460a0840152600682015460c0840152600782015460e084019160ff909116908111156118e4576118e461315b565b60038111156118f5576118f561315b565b905250602081015190915061190a90426134bc565b606461191681806134cf565b61192091906134cf565b1161195e5760405162461bcd60e51b815260206004820152600e60248201526d159bdd1a5b99c8195e1c1a5c995960921b6044820152606401610664565b602081015161196d90426134bc565b6119786064806134cf565b106119c55760405162461bcd60e51b815260206004820181905260248201527f41727469636c6520726567697374726174696f6e206e6f7420657870697265646044820152606401610664565b60208101516119d490426134bc565b6064106119f35760405162461bcd60e51b8152600401610664906134e2565b6000838152601660209081526040808320338452825291829020825160c081018452815481526001820154928101929092526002810154928201929092526003820154606082015260049091015460ff808216151560808401526101009091041615801560a0830152611a985760405162461bcd60e51b815260206004820152600d60248201526c105b1c9958591e481d9bdd1959609a1b6044820152606401610664565b60008260a001518260400151612710611ab19190613674565b611abb919061368b565b60808401516020840151611ad190612710613674565b611adb919061368b565b60608501518451611aee90612710613674565b611af8919061368b565b611b0291906134cf565b611b0c91906134cf565b6000868152601660209081526040808320338452825280832060048101805461ff001916610100179055600301849055888352601090915290208054919250829186908110611b5d57611b5d6136ad565b90600052602060002090600502016004016000828254611b7d91906134cf565b90915550506000858152600f602052604081206006018054839290610e209084906134cf565b60106020528160005260406000208181548110611bbf57600080fd5b60009182526020918290206040805180820190915260059092020180546001600160a01b03168252600181018054919550919350849284019190611c0290613519565b80601f0160208091040260200160405190810160405280929190818152602001828054611c2e90613519565b8015611c7b5780601f10611c5057610100808354040283529160200191611c7b565b820191906000526020600020905b815481529060010190602001808311611c5e57829003601f168201915b50505050508152505090806002015490806003018054611c9a90613519565b80601f0160208091040260200160405190810160405280929190818152602001828054611cc690613519565b8015611d135780601f10611ce857610100808354040283529160200191611d13565b820191906000526020600020905b815481529060010190602001808311611cf657829003601f168201915b5050505050908060040154905084565b3360009081526014602090815260408083208584529091529020548114611d8c5760405162461bcd60e51b815260206004820152601a60248201527f596f7520766f74656420616e6f746865722061727469636c65210000000000006044820152606401610664565b6000828152600f6020908152604080832081516101008101835281546001600160a01b03168152600182015493810193909352600281015491830191909152600380820154606084015260048201546080840152600582015460a0840152600682015460c0840152600782015460e084019160ff90911690811115611e1357611e1361315b565b6003811115611e2457611e2461315b565b90525060008481526016602090815260408083203384528252808320815160c081018352815481526001820154818501526002820154818401526003820154606082015260049091015460ff8082161515608084015261010090910416151560a0820152878452601090925282208054939450909285908110611ea957611ea96136ad565b600091825260209091206040805160c0810190915260059092020180546001600160a01b031660808301908152600182018054849291849160a085019190611ef090613519565b80601f0160208091040260200160405190810160405280929190818152602001828054611f1c90613519565b8015611f695780601f10611f3e57610100808354040283529160200191611f69565b820191906000526020600020905b815481529060010190602001808311611f4c57829003601f168201915b505050505081525050815260200160028201548152602001600382018054611f9090613519565b80601f0160208091040260200160405190810160405280929190818152602001828054611fbc90613519565b80156120095780601f10611fde57610100808354040283529160200191612009565b820191906000526020600020905b815481529060010190602001808311611fec57829003601f168201915b5050505050815260200160048201548152505090508160a0015161205b5760405162461bcd60e51b8152602060048201526009602482015268139bdd081d9bdd195960ba1b6044820152606401610664565b602083015161206a90426134bc565b6120756064806134cf565b106120b75760405162461bcd60e51b8152602060048201526012602482015271159bdd1a5b99c81b9bdd08195e1c1a5c995960721b6044820152606401610664565b60038360e0015160038111156120cf576120cf61315b565b036120f1576000858152600f60205260409020600701805460ff191660021790555b6000858152600f6020908152604080832081516101008101835281546001600160a01b03168152600182015493810193909352600281015491830191909152600380820154606084015260048201546080840152600582015460a0840152600682015460c0840152600782015460e084019160ff909116908111156121785761217861315b565b60038111156121895761218961315b565b905250905060028160e0015160038111156121a6576121a661315b565b0361222657600082606001518460600151612710846060015185604001516121ce91906134cf565b8860c0015161271088606001516121e59190613674565b6121ef919061368b565b6121f99190613674565b612203919061368b565b61220d9190613674565b612217919061368b565b9050612224303383612c8d565b505b505050505050565b600c818154811061172957600080fd5b3360009081526013602052604090205460ff16156122935760405162461bcd60e51b8152602060048201526012602482015271105b1c9958591e481c9959da5cdd195c995960721b6044820152606401610664565b6122a03033306064612797565b600c80546001810182556000919091527fdf6966c971051c3d54ec59162606531493a51404a002842f56009d7e5cf4a8c78101819055604080516101808101825233610140820190815282516020601f870181900481028201810190945285815291928392610160840191889088908190840183828082843760009201829052509390945250509183525042602083015260408201819052606082018190526080820181905260a0820181905260c0820152600160e0820181905261010082015261012001600390526000828152600d602090815260409091208251805182546001600160a01b0319166001600160a01b0390911617825591820151909190829060018201906123b090826135b4565b5050506020820151816002015560408201518160030155606082015181600401556080820151816005015560a0820151816006015560c0820151816007015560e08201518160080155610100820151816009015561012082015181600a0160006101000a81548160ff0219169083600381111561242f5761242f61315b565b02179055505050505050565b6001600160a01b03831661249d5760405162461bcd60e51b8152602060048201526024808201527f45524332303a20617070726f76652066726f6d20746865207a65726f206164646044820152637265737360e01b6064820152608401610664565b6001600160a01b0382166124fe5760405162461bcd60e51b815260206004820152602260248201527f45524332303a20617070726f766520746f20746865207a65726f206164647265604482015261737360f01b6064820152608401610664565b6001600160a01b0383811660008181526002602090815260408083209487168084529482529182902085905590518481527f8c5be1e5ebec7d5bd14f71427d1e84f3dd0314c0f7b2291e5b200ac8c7c3b925910160405180910390a3505050565b6001600160a01b03838116600090815260026020908152604080832093861683529290522054600019811461171357818110156125de5760405162461bcd60e51b815260206004820152601d60248201527f45524332303a20696e73756666696369656e7420616c6c6f77616e63650000006044820152606401610664565b611713848484840361243b565b6001600160a01b03831661264f5760405162461bcd60e51b815260206004820152602560248201527f45524332303a207472616e736665722066726f6d20746865207a65726f206164604482015264647265737360d81b6064820152608401610664565b6001600160a01b0382166126b15760405162461bcd60e51b815260206004820152602360248201527f45524332303a207472616e7366657220746f20746865207a65726f206164647260448201526265737360e81b6064820152608401610664565b6001600160a01b038316600090815260016020526040902054818110156127295760405162461bcd60e51b815260206004820152602660248201527f45524332303a207472616e7366657220616d6f756e7420657863656564732062604482015265616c616e636560d01b6064820152608401610664565b6001600160a01b0380851660008181526001602052604080822086860390559286168082529083902080548601905591517fddf252ad1be2c89b69c2b068fc378daa952ba7f163c4a11628f55a4df523b3ef906127899086815260200190565b60405180910390a350505050565b604080516001600160a01b0385811660248301528481166044830152606480830185905283518084039091018152608490920183526020820180516001600160e01b03166323b872dd60e01b17905291516000928392908816916127fb91906136c3565b6000604051808303816000865af19150503d8060008114612838576040519150601f19603f3d011682016040523d82523d6000602084013e61283d565b606091505b509150915081801561286757508051158061286757508080602001905181019061286791906136df565b6122265760405162461bcd60e51b815260206004820152603160248201527f5472616e7366657248656c7065723a3a7472616e7366657246726f6d3a207472604482015270185b9cd9995c919c9bdb4819985a5b1959607a1b6064820152608401610664565b6001600160a01b0382166129235760405162461bcd60e51b815260206004820152601f60248201527f45524332303a206d696e7420746f20746865207a65726f2061646472657373006044820152606401610664565b6000548160035461293491906134cf565b11156129825760405162461bcd60e51b815260206004820152601e60248201527f45524332303a206d696e7420616d6f756e7420657863656564732063617000006044820152606401610664565b806003600082825461299491906134cf565b90915550506001600160a01b0382166000818152600160209081526040808320805486019055518481527fddf252ad1be2c89b69c2b068fc378daa952ba7f163c4a11628f55a4df523b3ef910160405180910390a35050565b6000818152600d60205260408082208151610180810190925280546001600160a01b03166101408301908152600182018054849291849161016085019190612a3490613519565b80601f0160208091040260200160405190810160405280929190818152602001828054612a6090613519565b8015612aad5780601f10612a8257610100808354040283529160200191612aad565b820191906000526020600020905b815481529060010190602001808311612a9057829003601f168201915b5050509190925250505081526002820154602082015260038083015460408301526004830154606083015260058301546080830152600683015460a0830152600783015460c0830152600883015460e08301526009830154610100830152600a8301546101209092019160ff1690811115612b2a57612b2a61315b565b6003811115612b3b57612b3b61315b565b815250509050600a5481606001518260400151612b5891906134cf565b6040830151612b6990612710613674565b612b73919061368b565b10612c1b576000828152600d60205260409020600a01805460ff19169055612b99612db7565b600b805460018181018355600092835260208083047f0175b7a638427703f0dbe7bb9bbf987a2551717b34e79f33b5b1008d1fa01db901805460ff601f9095166101000a94850219169093179092558351516001600160a01b0316835260139091526040909120805460ff19169091179055805151610ff19030906064612c8d565b6000828152600d60205260409020600a01805460ff19166001179055612c3f612f30565b5050600b80546001810182556000919091527f0175b7a638427703f0dbe7bb9bbf987a2551717b34e79f33b5b1008d1fa01db960208204018054601f9092166101000a60ff02199091169055565b604080516001600160a01b038481166024830152604480830185905283518084039091018152606490920183526020820180516001600160e01b031663a9059cbb60e01b1790529151600092839290871691612ce991906136c3565b6000604051808303816000865af19150503d8060008114612d26576040519150601f19603f3d011682016040523d82523d6000602084013e612d2b565b606091505b5091509150818015612d55575080511580612d55575080806020019051810190612d5591906136df565b6117115760405162461bcd60e51b815260206004820152602d60248201527f5472616e7366657248656c7065723a3a736166655472616e736665723a20747260448201526c185b9cd9995c8819985a5b1959609a1b6064820152608401610664565b6000600b805480602002602001604051908101604052809291908181526020018280548015612e2557602002820191906000526020600020906000905b825461010083900a900460ff161515815260206001928301818104948501949093039092029101808411612df45790505b505050505090508051600003612e385750565b8060018251612e4791906134bc565b81518110612e5757612e576136ad565b602002602001015115156001151503612e8857600160066000828254612e7d91906134cf565b90915550612ea19050565b600160086000828254612e9b91906134cf565b90915550505b6000600754600654612eb391906134cf565b600654612ec290612710613674565b612ecc919061368b565b90506000600954600854612ee091906134cf565b600854612eef90612710613674565b612ef9919061368b565b905081612f08612710836134cf565b612f1291906134bc565b612f1e82612710613674565b612f28919061368b565b600a55505050565b6000600b805480602002602001604051908101604052809291908181526020018280548015612f9e57602002820191906000526020600020906000905b825461010083900a900460ff161515815260206001928301818104948501949093039092029101808411612f6d5790505b505050505090508051600003612fb15750565b8060018251612fc091906134bc565b81518110612fd057612fd06136ad565b60200260200101511515600115150361300157600160076000828254612ff691906134cf565b9091555061301a9050565b60016009600082825461301491906134cf565b90915550505b600060075460065461302c91906134cf565b60075461303b90612710613674565b613045919061368b565b9050600060095460085461305991906134cf565b60095461306890612710613674565b613072919061368b565b905081613081612710836134cf565b61308b91906134bc565b61309782612710613674565b6130a1919061368b565b612f28906127106134bc565b60008083601f8401126130bf57600080fd5b50813567ffffffffffffffff8111156130d757600080fd5b6020830191508360208285010111156130ef57600080fd5b9250929050565b60008060006040848603121561310b57600080fd5b83359250602084013567ffffffffffffffff81111561312957600080fd5b613135868287016130ad565b9497909650939450505050565b60006020828403121561315457600080fd5b5035919050565b634e487b7160e01b600052602160045260246000fd5b6004811061318f57634e487b7160e01b600052602160045260246000fd5b9052565b6001600160a01b03891681526020810188905260408101879052606081018690526080810185905260a0810184905260c0810183905261010081016131db60e0830184613171565b9998505050505050505050565b80356001600160a01b03811681146131ff57600080fd5b919050565b60006020828403121561321657600080fd5b61321f826131e8565b9392505050565b6000806040838503121561323957600080fd5b613242836131e8565b946020939093013593505050565b60005b8381101561326b578181015183820152602001613253565b50506000910152565b6000815180845261328c816020860160208601613250565b601f01601f19169290920160200192915050565b60018060a01b03815116825260006020820151604060208501526132c76040850182613274565b949350505050565b60006101408083526132e38184018e6132a0565b9150508a60208301528960408301528860608301528760808301528660a08301528560c08301528460e083015283610100830152613325610120830184613171565b9b9a5050505050505050505050565b60008060006060848603121561334957600080fd5b613352846131e8565b9250613360602085016131e8565b9150604084013590509250925092565b80151581146104d157600080fd5b6000806040838503121561339157600080fd5b8235915060208301356133a381613370565b809150509250929050565b600080604083850312156133c157600080fd5b50508035926020909101359150565b6001600160a01b03831681526040602082018190526000906132c790830184613274565b60808152600061340760808301876132a0565b856020840152828103604084015261341f8186613274565b91505082606083015295945050505050565b6000806040838503121561344457600080fd5b61344d836131e8565b915061345b602084016131e8565b90509250929050565b6000806020838503121561347757600080fd5b823567ffffffffffffffff81111561348e57600080fd5b61349a858286016130ad565b90969095509350505050565b634e487b7160e01b600052601160045260246000fd5b818103818111156108bd576108bd6134a6565b808201808211156108bd576108bd6134a6565b60208082526017908201527f4170706c69636174696f6e206e6f742065787069726564000000000000000000604082015260600190565b600181811c9082168061352d57607f821691505b60208210810361354d57634e487b7160e01b600052602260045260246000fd5b50919050565b634e487b7160e01b600052604160045260246000fd5b601f8211156135af57600081815260208120601f850160051c810160208610156135905750805b601f850160051c820191505b818110156122265782815560010161359c565b505050565b815167ffffffffffffffff8111156135ce576135ce613553565b6135e2816135dc8454613519565b84613569565b602080601f83116001811461361757600084156135ff5750858301515b600019600386901b1c1916600185901b178555612226565b600085815260208120601f198616915b8281101561364657888601518255948401946001909101908401613627565b50858210156136645787850151600019600388901b60f8161c191681555b5050505050600190811b01905550565b80820281158282048414176108bd576108bd6134a6565b6000826136a857634e487b7160e01b600052601260045260246000fd5b500490565b634e487b7160e01b600052603260045260246000fd5b600082516136d5818460208701613250565b9190910192915050565b6000602082840312156136f157600080fd5b815161321f8161337056fea2646970667358221220160640b8abced5c588a399de59308a8127eed118aba4c56fd217b4c9cd78743964736f6c63430008120033",
    "linkReferences": {}
  },
  "methodIdentifiers": {
    "ARTICLEREGISTRATIONEXPIRY()": "f51c198f",
    "CHALLEGEEXPIRY()": "f3c4f7ba",
    "DECIMALS()": "2e0f2625",
    "PARTICIPATIONEXPIRY()": "63e4851a",
    "REGISTRATIONDEPOSIT()": "dfa23ba6",
    "VOTINGEXPIRY()": "540fd28e",
    "_pi_quorum()": "826d053a",
    "aVoteParticipate(uint256,uint256)": "3ac16074",
    "allowance(address,address)": "dd62ed3e",
    "approve(address,uint256)": "095ea7b3",
    "articleRegister(uint256,string)": "012d0ec1",
    "articles(uint256,uint256)": "c419fb98",
    "balanceOf(address)": "70a08231",
    "challenge(uint256)": "ab82d9a0",
    "claimRewardA(uint256,uint256)": "d966a540",
    "claimRewardW(uint256)": "94440679",
    "decimals()": "313ce567",
    "members(address)": "08ae4b0c",
    "mint(address,uint256)": "40c10f19",
    "proposalids(uint256)": "9c9eacb2",
    "proposals(uint256)": "013cf08b",
    "propose(uint256)": "a618b74e",
    "totalSupply()": "18160ddd",
    "transfer(address,uint256)": "a9059cbb",
    "transferFrom(address,address,uint256)": "23b872dd",
    "voteRanking(uint256,uint256)": "af8b9f7a",
    "voteRegister(uint256,bool)": "3616db13",
    "votedarticles(address,uint256)": "701809fc",
    "wRegisterids(uint256)": "ed047761",
    "wVoteParticipate(uint256,uint256)": "494bdc02",
    "writerRegister(string)": "faaa169b",
    "writerRegistrations(uint256)": "197eb393",
    "writermapping(address)": "8ec86992",
    "writers(address)": "8e7e80a2"
  },
  "id": 17
}