{
  "abi": [
    {
      "anonymous": false,
      "inputs": [
        {
          "indexed": true,
          "internalType": "address",
          "name": "owner",
          "type": "address"
        },
        {
          "indexed": true,
          "internalType": "address",
          "name": "spender",
          "type": "address"
        },
        {
          "indexed": false,
          "internalType": "uint256",
          "name": "value",
          "type": "uint256"
        }
      ],
      "name": "Approval",
      "type": "event"
    },
    {
      "anonymous": false,
      "inputs": [
        {
          "indexed": true,
          "internalType": "address",
          "name": "from",
          "type": "address"
        },
        {
          "indexed": true,
          "internalType": "address",
          "name": "to",
          "type": "address"
        },
        {
          "indexed": false,
          "internalType": "uint256",
          "name": "value",
          "type": "uint256"
        }
      ],
      "name": "Transfer",
      "type": "event"
    },
    {
      "inputs": [],
      "name": "ARTICLEREGISTRATIONEXPIRY",
      "outputs": [
        {
          "internalType": "uint256",
          "name": "",
          "type": "uint256"
        }
      ],
      "stateMutability": "view",
      "type": "function"
    },
    {
      "inputs": [],
      "name": "CHALLEGEEXPIRY",
      "outputs": [
        {
          "internalType": "uint256",
          "name": "",
          "type": "uint256"
        }
      ],
      "stateMutability": "view",
      "type": "function"
    },
    {
      "inputs": [],
      "name": "DECIMALS",
      "outputs": [
        {
          "internalType": "uint256",
          "name": "",
          "type": "uint256"
        }
      ],
      "stateMutability": "view",
      "type": "function"
    },
    {
      "inputs": [],
      "name": "PARTICIPATIONEXPIRY",
      "outputs": [
        {
          "internalType": "uint256",
          "name": "",
          "type": "uint256"
        }
      ],
      "stateMutability": "view",
      "type": "function"
    },
    {
      "inputs": [],
      "name": "REGISTRATIONDEPOSIT",
      "outputs": [
        {
          "internalType": "uint256",
          "name": "",
          "type": "uint256"
        }
      ],
      "stateMutability": "view",
      "type": "function"
    },
    {
      "inputs": [],
      "name": "VOTINGEXPIRY",
      "outputs": [
        {
          "internalType": "uint256",
          "name": "",
          "type": "uint256"
        }
      ],
      "stateMutability": "view",
      "type": "function"
    },
    {
      "inputs": [],
      "name": "_pi_quorum",
      "outputs": [
        {
          "internalType": "uint256",
          "name": "",
          "type": "uint256"
        }
      ],
      "stateMutability": "view",
      "type": "function"
    },
    {
      "inputs": [
        {
          "internalType": "uint256",
          "name": "proposalid",
          "type": "uint256"
        },
        {
          "internalType": "uint256",
          "name": "stake",
          "type": "uint256"
        }
      ],
      "name": "aVoteParticipate",
      "outputs": [],
      "stateMutability": "nonpayable",
      "type": "function"
    },
    {
      "inputs": [
        {
          "internalType": "address",
          "name": "owner",
          "type": "address"
        },
        {
          "internalType": "address",
          "name": "spender",
          "type": "address"
        }
      ],
      "name": "allowance",
      "outputs": [
        {
          "internalType": "uint256",
          "name": "",
          "type": "uint256"
        }
      ],
      "stateMutability": "view",
      "type": "function"
    },
    {
      "inputs": [
        {
          "internalType": "address",
          "name": "spender",
          "type": "address"
        },
        {
          "internalType": "uint256",
          "name": "amount",
          "type": "uint256"
        }
      ],
      "name": "approve",
      "outputs": [
        {
          "internalType": "bool",
          "name": "",
          "type": "bool"
        }
      ],
      "stateMutability": "nonpayable",
      "type": "function"
    },
    {
      "inputs": [
        {
          "internalType": "uint256",
          "name": "proposalid",
          "type": "uint256"
        },
        {
          "internalType": "string",
          "name": "url",
          "type": "string"
        }
      ],
      "name": "articleRegister",
      "outputs": [],
      "stateMutability": "nonpayable",
      "type": "function"
    },
    {
      "inputs": [
        {
          "internalType": "uint256",
          "name": "",
          "type": "uint256"
        }
      ],
      "name": "articlenum",
      "outputs": [
        {
          "internalType": "uint256",
          "name": "",
          "type": "uint256"
        }
      ],
      "stateMutability": "view",
      "type": "function"
    },
    {
      "inputs": [
        {
          "internalType": "uint256",
          "name": "",
          "type": "uint256"
        },
        {
          "internalType": "uint256",
          "name": "",
          "type": "uint256"
        }
      ],
      "name": "articles",
      "outputs": [
        {
          "components": [
            {
              "internalType": "address",
              "name": "_address",
              "type": "address"
            },
            {
              "internalType": "string",
              "name": "twitterHandle",
              "type": "string"
            }
          ],
          "internalType": "struct Article_DAO.Writer",
          "name": "writer",
          "type": "tuple"
        },
        {
          "internalType": "uint256",
          "name": "articleid",
          "type": "uint256"
        },
        {
          "internalType": "string",
          "name": "url",
          "type": "string"
        },
        {
          "internalType": "uint256",
          "name": "votedweights",
          "type": "uint256"
        }
      ],
      "stateMutability": "view",
      "type": "function"
    },
    {
      "inputs": [
        {
          "internalType": "address",
          "name": "account",
          "type": "address"
        }
      ],
      "name": "balanceOf",
      "outputs": [
        {
          "internalType": "uint256",
          "name": "",
          "type": "uint256"
        }
      ],
      "stateMutability": "view",
      "type": "function"
    },
    {
      "inputs": [
        {
          "internalType": "uint256",
          "name": "wregisterid",
          "type": "uint256"
        }
      ],
      "name": "challenge",
      "outputs": [],
      "stateMutability": "nonpayable",
      "type": "function"
    },
    {
      "inputs": [
        {
          "internalType": "uint256",
          "name": "proposalid",
          "type": "uint256"
        },
        {
          "internalType": "uint256",
          "name": "articleid",
          "type": "uint256"
        }
      ],
      "name": "claimRewardA",
      "outputs": [],
      "stateMutability": "nonpayable",
      "type": "function"
    },
    {
      "inputs": [
        {
          "internalType": "uint256",
          "name": "wregisterid",
          "type": "uint256"
        }
      ],
      "name": "claimRewardW",
      "outputs": [],
      "stateMutability": "nonpayable",
      "type": "function"
    },
    {
      "inputs": [],
      "name": "decimals",
      "outputs": [
        {
          "internalType": "uint8",
          "name": "",
          "type": "uint8"
        }
      ],
      "stateMutability": "pure",
      "type": "function"
    },
    {
      "inputs": [
        {
          "internalType": "uint256",
          "name": "pid",
          "type": "uint256"
        }
      ],
      "name": "getProposal",
      "outputs": [
        {
          "internalType": "uint256",
          "name": "state",
          "type": "uint256"
        }
      ],
      "stateMutability": "view",
      "type": "function"
    },
    {
      "inputs": [
        {
          "internalType": "uint256",
          "name": "wid",
          "type": "uint256"
        }
      ],
      "name": "getWregister",
      "outputs": [
        {
          "internalType": "string",
          "name": "handle",
          "type": "string"
        },
        {
          "internalType": "uint256",
          "name": "state",
          "type": "uint256"
        }
      ],
      "stateMutability": "view",
      "type": "function"
    },
    {
      "inputs": [
        {
          "internalType": "uint256",
          "name": "pid",
          "type": "uint256"
        },
        {
          "internalType": "uint256",
          "name": "aid",
          "type": "uint256"
        }
      ],
      "name": "getarticle",
      "outputs": [
        {
          "internalType": "string",
          "name": "url",
          "type": "string"
        }
      ],
      "stateMutability": "view",
      "type": "function"
    },
    {
      "inputs": [
        {
          "internalType": "uint256",
          "name": "pid",
          "type": "uint256"
        }
      ],
      "name": "getarticlenum",
      "outputs": [
        {
          "internalType": "uint256",
          "name": "",
          "type": "uint256"
        }
      ],
      "stateMutability": "view",
      "type": "function"
    },
    {
      "inputs": [],
      "name": "getproposalnum",
      "outputs": [
        {
          "internalType": "uint256",
          "name": "",
          "type": "uint256"
        }
      ],
      "stateMutability": "view",
      "type": "function"
    },
    {
      "inputs": [],
      "name": "getregisternum",
      "outputs": [
        {
          "internalType": "uint256",
          "name": "",
          "type": "uint256"
        }
      ],
      "stateMutability": "view",
      "type": "function"
    },
    {
      "inputs": [
        {
          "internalType": "address",
          "name": "",
          "type": "address"
        }
      ],
      "name": "members",
      "outputs": [
        {
          "internalType": "address",
          "name": "_address",
          "type": "address"
        },
        {
          "internalType": "uint256",
          "name": "votes",
          "type": "uint256"
        },
        {
          "internalType": "uint256",
          "name": "challenges",
          "type": "uint256"
        }
      ],
      "stateMutability": "view",
      "type": "function"
    },
    {
      "inputs": [
        {
          "internalType": "address",
          "name": "account",
          "type": "address"
        },
        {
          "internalType": "uint256",
          "name": "amount",
          "type": "uint256"
        }
      ],
      "name": "mint",
      "outputs": [],
      "stateMutability": "nonpayable",
      "type": "function"
    },
    {
      "inputs": [],
      "name": "proposalnum",
      "outputs": [
        {
          "internalType": "uint256",
          "name": "",
          "type": "uint256"
        }
      ],
      "stateMutability": "view",
      "type": "function"
    },
    {
      "inputs": [
        {
          "internalType": "uint256",
          "name": "",
          "type": "uint256"
        }
      ],
      "name": "proposals",
      "outputs": [
        {
          "internalType": "address",
          "name": "proposer",
          "type": "address"
        },
        {
          "internalType": "uint256",
          "name": "proposalid",
          "type": "uint256"
        },
        {
          "internalType": "uint256",
          "name": "applytime",
          "type": "uint256"
        },
        {
          "internalType": "uint256",
          "name": "proposerstake",
          "type": "uint256"
        },
        {
          "internalType": "uint256",
          "name": "totalstake",
          "type": "uint256"
        },
        {
          "internalType": "uint256",
          "name": "totalvotes",
          "type": "uint256"
        },
        {
          "internalType": "uint256",
          "name": "totalchallenges",
          "type": "uint256"
        },
        {
          "internalType": "uint256",
          "name": "totalweights",
          "type": "uint256"
        },
        {
          "internalType": "uint256",
          "name": "votingState",
          "type": "uint256"
        }
      ],
      "stateMutability": "view",
      "type": "function"
    },
    {
      "inputs": [
        {
          "internalType": "uint256",
          "name": "stake",
          "type": "uint256"
        }
      ],
      "name": "propose",
      "outputs": [],
      "stateMutability": "nonpayable",
      "type": "function"
    },
    {
      "inputs": [],
      "name": "registrationnum",
      "outputs": [
        {
          "internalType": "uint256",
          "name": "",
          "type": "uint256"
        }
      ],
      "stateMutability": "view",
      "type": "function"
    },
    {
      "inputs": [],
      "name": "totalSupply",
      "outputs": [
        {
          "internalType": "uint256",
          "name": "",
          "type": "uint256"
        }
      ],
      "stateMutability": "view",
      "type": "function"
    },
    {
      "inputs": [
        {
          "internalType": "address",
          "name": "to",
          "type": "address"
        },
        {
          "internalType": "uint256",
          "name": "amount",
          "type": "uint256"
        }
      ],
      "name": "transfer",
      "outputs": [
        {
          "internalType": "bool",
          "name": "",
          "type": "bool"
        }
      ],
      "stateMutability": "nonpayable",
      "type": "function"
    },
    {
      "inputs": [
        {
          "internalType": "address",
          "name": "from",
          "type": "address"
        },
        {
          "internalType": "address",
          "name": "to",
          "type": "address"
        },
        {
          "internalType": "uint256",
          "name": "amount",
          "type": "uint256"
        }
      ],
      "name": "transferFrom",
      "outputs": [
        {
          "internalType": "bool",
          "name": "",
          "type": "bool"
        }
      ],
      "stateMutability": "nonpayable",
      "type": "function"
    },
    {
      "inputs": [
        {
          "internalType": "uint256",
          "name": "proposalid",
          "type": "uint256"
        },
        {
          "internalType": "uint256",
          "name": "articleid",
          "type": "uint256"
        }
      ],
      "name": "voteRanking",
      "outputs": [],
      "stateMutability": "nonpayable",
      "type": "function"
    },
    {
      "inputs": [
        {
          "internalType": "uint256",
          "name": "wRegisterID",
          "type": "uint256"
        },
        {
          "internalType": "bool",
          "name": "voteFor",
          "type": "bool"
        }
      ],
      "name": "voteRegister",
      "outputs": [],
      "stateMutability": "nonpayable",
      "type": "function"
    },
    {
      "inputs": [
        {
          "internalType": "address",
          "name": "",
          "type": "address"
        },
        {
          "internalType": "uint256",
          "name": "",
          "type": "uint256"
        }
      ],
      "name": "votedarticles",
      "outputs": [
        {
          "internalType": "uint256",
          "name": "",
          "type": "uint256"
        }
      ],
      "stateMutability": "view",
      "type": "function"
    },
    {
      "inputs": [
        {
          "internalType": "uint256",
          "name": "wregisterid",
          "type": "uint256"
        },
        {
          "internalType": "uint256",
          "name": "stake",
          "type": "uint256"
        }
      ],
      "name": "wVoteParticipate",
      "outputs": [],
      "stateMutability": "nonpayable",
      "type": "function"
    },
    {
      "inputs": [
        {
          "internalType": "string",
          "name": "twitterhandle",
          "type": "string"
        }
      ],
      "name": "writerRegister",
      "outputs": [],
      "stateMutability": "nonpayable",
      "type": "function"
    },
    {
      "inputs": [
        {
          "internalType": "uint256",
          "name": "",
          "type": "uint256"
        }
      ],
      "name": "writerRegistrations",
      "outputs": [
        {
          "components": [
            {
              "internalType": "address",
              "name": "_address",
              "type": "address"
            },
            {
              "internalType": "string",
              "name": "twitterHandle",
              "type": "string"
            }
          ],
          "internalType": "struct Article_DAO.Writer",
          "name": "writer",
          "type": "tuple"
        },
        {
          "internalType": "uint256",
          "name": "wregistraionid",
          "type": "uint256"
        },
        {
          "internalType": "uint256",
          "name": "applytime",
          "type": "uint256"
        },
        {
          "internalType": "uint256",
          "name": "voteFor",
          "type": "uint256"
        },
        {
          "internalType": "uint256",
          "name": "voteAgainst",
          "type": "uint256"
        },
        {
          "internalType": "uint256",
          "name": "voteForstake",
          "type": "uint256"
        },
        {
          "internalType": "uint256",
          "name": "voteAgainststake",
          "type": "uint256"
        },
        {
          "internalType": "uint256",
          "name": "totalstake",
          "type": "uint256"
        },
        {
          "internalType": "uint256",
          "name": "totalvotes",
          "type": "uint256"
        },
        {
          "internalType": "uint256",
          "name": "totalchallenges",
          "type": "uint256"
        },
        {
          "internalType": "uint256",
          "name": "votingstate",
          "type": "uint256"
        }
      ],
      "stateMutability": "view",
      "type": "function"
    },
    {
      "inputs": [
        {
          "internalType": "address",
          "name": "",
          "type": "address"
        }
      ],
      "name": "writermapping",
      "outputs": [
        {
          "internalType": "address",
          "name": "_address",
          "type": "address"
        },
        {
          "internalType": "string",
          "name": "twitterHandle",
          "type": "string"
        }
      ],
      "stateMutability": "view",
      "type": "function"
    },
    {
      "inputs": [
        {
          "internalType": "address",
          "name": "",
          "type": "address"
        }
      ],
      "name": "writers",
      "outputs": [
        {
          "internalType": "bool",
          "name": "",
          "type": "bool"
        }
      ],
      "stateMutability": "view",
      "type": "function"
    }
  ],
  "bytecode": {
    "object": "0x633b9aca0060005560c0604052600660809081526508ed8d2e8c6d60d31b60a0526004906200002f908262000154565b5060408051808201909152600481526308e9886960e31b60208201526005906200005a908262000154565b506001600655600160075560016008556001600955600a612710600562000082919062000220565b6200008e91906200024c565b600a556000600c556000600e55348015620000a857600080fd5b506200026f565b634e487b7160e01b600052604160045260246000fd5b600181811c90821680620000da57607f821691505b602082108103620000fb57634e487b7160e01b600052602260045260246000fd5b50919050565b601f8211156200014f57600081815260208120601f850160051c810160208610156200012a5750805b601f850160051c820191505b818110156200014b5782815560010162000136565b5050505b505050565b81516001600160401b03811115620001705762000170620000af565b6200018881620001818454620000c5565b8462000101565b602080601f831160018114620001c05760008415620001a75750858301515b600019600386901b1c1916600185901b1785556200014b565b600085815260208120601f198616915b82811015620001f157888601518255948401946001909101908401620001d0565b5085821015620002105787850151600019600388901b60f8161c191681555b5050505050600190811b01905550565b80820281158282048414176200024657634e487b7160e01b600052601160045260246000fd5b92915050565b6000826200026a57634e487b7160e01b600052601260045260246000fd5b500490565b61394e806200027f6000396000f3fe608060405234801561001057600080fd5b50600436106102535760003560e01c80638e7e80a211610146578063c7f758a8116100c3578063dd62ed3e11610087578063dd62ed3e146106c0578063ddb0daae146106f9578063dfa23ba61461045f578063f3c4f7ba1461045f578063f51c198f1461045f578063faaa169b1461070157600080fd5b8063c7f758a8146105e9578063c89996e81461067b578063cada609114610684578063d5e6f3d01461068d578063d966a540146106ad57600080fd5b8063a9059cbb1161010a578063a9059cbb1461056f578063ab82d9a014610582578063af8b9f7a14610593578063b3540312146105a6578063c419fb98146105c657600080fd5b80638e7e80a2146104e45780638ec86992146105075780639444067914610528578063a432582c1461053b578063a618b74e1461055c57600080fd5b80633ac16074116101d457806363e4851a1161019857806363e4851a1461045f578063701809fc1461046757806370a08231146104925780637f76e109146104bb578063826d053a146104db57600080fd5b80633ac160741461041e57806340c10f191461043157806347ef6cf114610444578063494bdc021461044c578063540fd28e1461045f57600080fd5b8063197eb3931161021b578063197eb393146103b657806323b872dd146103e05780632e0f2625146103f3578063313ce567146103fc5780633616db131461040b57600080fd5b8063012d0ec114610258578063013cf08b1461026d57806308ae4b0c14610323578063095ea7b31461038157806318160ddd146103a4575b600080fd5b61026b61026636600461336c565b610714565b005b6102d061027b3660046133b8565b6010602052600090815260409020805460018201546002830154600384015460048501546005860154600687015460078801546008909801546001600160a01b03909716979596949593949293919290919089565b604080516001600160a01b03909a168a5260208a0198909852968801959095526060870193909352608086019190915260a085015260c084015260e0830152610100820152610120015b60405180910390f35b61035c6103313660046133ed565b6012602052600090815260409020805460018201546002909201546001600160a01b03909116919083565b604080516001600160a01b03909416845260208401929092529082015260600161031a565b61039461038f36600461340f565b610a16565b604051901515815260200161031a565b6003545b60405190815260200161031a565b6103c96103c43660046133b8565b610a30565b60405161031a9b9a999897969594939291906134b8565b6103946103ee36600461351b565b610b33565b6103a861271081565b6040516012815260200161031a565b61026b610419366004613565565b610b57565b61026b61042c366004613595565b610f97565b61026b61043f36600461340f565b61114a565b600e546103a8565b61026b61045a366004613595565b611158565b6103a8606481565b6103a861047536600461340f565b601560209081526000928352604080842090915290825290205481565b6103a86104a03660046133ed565b6001600160a01b031660009081526001602052604090205490565b6103a86104c93660046133b8565b600f6020526000908152604090205481565b6103a8600a5481565b6103946104f23660046133ed565b60146020526000908152604090205460ff1681565b61051a6105153660046133ed565b611311565b60405161031a9291906135b7565b61026b6105363660046133b8565b6113c0565b61054e6105493660046133b8565b611845565b60405161031a9291906135db565b61026b61056a3660046133b8565b611999565b61039461057d36600461340f565b611a6f565b61026b6105903660046133b8565b50565b61026b6105a1366004613595565b611a7d565b6103a86105b43660046133b8565b6000908152600f602052604090205490565b6105d96105d4366004613595565b611dd3565b60405161031a94939291906135fd565b6103a86105f73660046133b8565b60009081526010602090815260409182902082516101208101845281546001600160a01b031681526001820154928101929092526002810154928201929092526003820154606082015260048201546080820152600582015460a0820152600682015460c0820152600782015460e082015260089091015461010090910181905290565b6103a8600c5481565b6103a8600e5481565b6106a061069b366004613595565b611f53565b60405161031a919061363a565b61026b6106bb366004613595565b6120f9565b6103a86106ce36600461364d565b6001600160a01b03918216600090815260026020908152604080832093909416825291909152205490565b600c546103a8565b61026b61070f366004613680565b61250b565b600083815260106020908152604080832081516101208101835281546001600160a01b031681526001820154818501526002820154818401526003820154606082015260048201546080820152600582015460a0820152600682015460c0820152600782015460e082015260089091015461010082015233845260149092529091205460ff166107da5760405162461bcd60e51b815260206004820152600c60248201526b2737ba1030903bb934ba32b960a11b60448201526064015b60405180910390fd5b60408101516107e990426136d8565b6107f46064806136eb565b116108415760405162461bcd60e51b815260206004820152601c60248201527f41727469636c6520726567697374726174696f6e20657870697265640000000060448201526064016107d1565b604081015161085090426136d8565b60641061086f5760405162461bcd60e51b81526004016107d1906136fe565b60008481526011602090815260408083208054825133865260139094529382902060c0840190925281546001600160a01b0316608084019081526001830180549294938493909160a08501916108c490613735565b80601f01602080910402602001604051908101604052809291908181526020018280546108f090613735565b801561093d5780601f106109125761010080835404028352916020019161093d565b820191906000526020600020905b81548152906001019060200180831161092057829003601f168201915b505050505081525050815260200183815260200186868080601f016020809104026020016040519081016040528093929190818152602001838380828437600092018290525093855250505060209182018190528354600180820186559482529082902083518051600590930290910180546001600160a01b0319166001600160a01b03909316929092178255918201519293909283918201906109e190826137d0565b5050506020820151600282015560408201516003820190610a0290826137d0565b506060820151816004015550505050505050565b600033610a248185856126db565b60019150505b92915050565b600d60209081526000918252604091829020825180840190935280546001600160a01b0316835260018101805491939284929084019190610a7090613735565b80601f0160208091040260200160405190810160405280929190818152602001828054610a9c90613735565b8015610ae95780601f10610abe57610100808354040283529160200191610ae9565b820191906000526020600020905b815481529060010190602001808311610acc57829003601f168201915b5050505050815250509080600201549080600301549080600401549080600501549080600601549080600701549080600801549080600901549080600a01549080600b015490508b565b600033610b418582856127ff565b610b4c85858561288b565b506001949350505050565b6000828152600d602052604080822081516101a0810190925280546001600160a01b03166101608301908152600182018054849291849161018085019190610b9e90613735565b80601f0160208091040260200160405190810160405280929190818152602001828054610bca90613735565b8015610c175780601f10610bec57610100808354040283529160200191610c17565b820191906000526020600020905b815481529060010190602001808311610bfa57829003601f168201915b50505050508152505081526020016002820154815260200160038201548152602001600482015481526020016005820154815260200160068201548152602001600782015481526020016008820154815260200160098201548152602001600a8201548152602001600b820154815250509050806040015142610c9a91906136d8565b610ca56064806136eb565b11610ce35760405162461bcd60e51b815260206004820152600e60248201526d159bdd1a5b99c8195e1c1a5c995960921b60448201526064016107d1565b6040810151610cf290426136d8565b606410610d115760405162461bcd60e51b81526004016107d1906136fe565b6000838152601660209081526040808320338452825291829020825160c081018452815481526001820154928101929092526002810154928201929092526003820154606082015260049091015460ff808216151560808401526101009091041615801560a0830152610db65760405162461bcd60e51b815260206004820152600d60248201526c105b1c9958591e481d9bdd1959609a1b60448201526064016107d1565b816101400151600003610dda576000848152600d602052604090206001600b909101555b60008261012001518260400151612710610df49190613890565b610dfe91906138a7565b6101008401516020840151610e1590612710613890565b610e1f91906138a7565b60e08501518451610e3290612710613890565b610e3c91906138a7565b610e4691906136eb565b610e5091906136eb565b6000868152601660209081526040808320338452909152902060030181905590508315610ecb576000858152600d602052604081206004018054839290610e989084906136eb565b909155505081516000868152600d602052604081206006018054909190610ec09084906136eb565b90915550610f3e9050565b6000858152600d602052604081206005018054839290610eec9084906136eb565b909155505081516000868152600d602052604081206007018054909190610f149084906136eb565b909155505060008581526016602090815260408083203384529091529020600401805460ff191690555b6000858152601660209081526040808320338452825280832060038101859055600401805461ff001916610100179055601290915281206001908101805491929091610f8b9084906136eb565b90915550505050505050565b610fa330333084612a37565b600082815260106020526040902060020154610fbf90426136d8565b6064116110045760405162461bcd60e51b8152602060048201526013602482015272105c1c1b1a58d85d1a5bdb88195e1c1a5c9959606a1b60448201526064016107d1565b33600081815260126020908152604080832081516060808201845282546001600160a01b03168252600180840154838701908152600294850154848701908152865160c0810188528b8152915182890190815290518288019081529382018981526080830184815260a084018b81528e8c5260178b52898c209c8c529b8a52888b20935184559151938301939093559251948101949094555160038401555160049283018054975115156101000261ff00199215159290921661ffff199098169790971717909555868452601090925282200180548492906110e79084906136eb565b9091555050604080820151600085815260106020529182206006018054919290916111139084906136eb565b909155505060208082015160008581526010909252604082206005018054919290916111409084906136eb565b9091555050505050565b6111548282612b6d565b5050565b6000828152600d602052604090206003015461117490426136d8565b6064116111b95760405162461bcd60e51b8152602060048201526013602482015272105c1c1b1a58d85d1a5bdb88195e1c1a5c9959606a1b60448201526064016107d1565b33600081815260126020908152604091829020825160608101845281546001600160a01b031681526001820154928101929092526002015491810191909152906112069030908185612a37565b6040805160c0810182528381526020838101518183019081528484015183850190815260006060850181815260016080870181815260a088018481528c85526016885289852033865288528985209851895595519188019190915592516002870155516003860155905160049094018054925115156101000261ff00199515159590951661ffff1990931692909217939093179055858252600d905290812060080180548492906112b89084906136eb565b90915550506040808201516000858152600d602052918220600a018054919290916112e49084906136eb565b90915550506020808201516000858152600d909252604082206009018054919290916111409084906136eb565b601360205260009081526040902080546001820180546001600160a01b03909216929161133d90613735565b80601f016020809104026020016040519081016040528092919081815260200182805461136990613735565b80156113b65780601f1061138b576101008083540402835291602001916113b6565b820191906000526020600020905b81548152906001019060200180831161139957829003601f168201915b5050505050905082565b6000818152600d602052604080822081516101a0810190925280546001600160a01b0316610160830190815260018201805484929184916101808501919061140790613735565b80601f016020809104026020016040519081016040528092919081815260200182805461143390613735565b80156114805780601f1061145557610100808354040283529160200191611480565b820191906000526020600020905b81548152906001019060200180831161146357829003601f168201915b50505050508152505081526020016002820154815260200160038201548152602001600482015481526020016005820154815260200160068201548152602001600782015481526020016008820154815260200160098201548152602001600a8201548152602001600b8201548152505090506000601660008481526020019081526020016000206000336001600160a01b03166001600160a01b031681526020019081526020016000206040518060c0016040529081600082015481526020016001820154815260200160028201548152602001600382015481526020016004820160009054906101000a900460ff161515151581526020016004820160019054906101000a900460ff16151515158152505090508060a001516115d35760405162461bcd60e51b8152602060048201526009602482015268139bdd081d9bdd195960ba1b60448201526064016107d1565b60408201516115e290426136d8565b6115ed6064806136eb565b1061162f5760405162461bcd60e51b8152602060048201526012602482015271159bdd1a5b99c81b9bdd08195e1c1a5c995960721b60448201526064016107d1565b8161014001516001036116455761164583612c8d565b6000838152600d602052604080822081516101a0810190925280546001600160a01b0316610160830190815260018201805484929184916101808501919061168c90613735565b80601f01602080910402602001604051908101604052809291908181526020018280546116b890613735565b80156117055780601f106116da57610100808354040283529160200191611705565b820191906000526020600020905b8154815290600101906020018083116116e857829003601f168201915b50505050508152505081526020016002820154815260200160038201548152602001600482015481526020016005820154815260200160068201548152602001600782015481526020016008820154815260200160098201548152602001600a8201548152602001600b820154815250509050806101400151600414801561178e575081608001515b156117d7576000816060015183606001518360c001516117ae9190613890565b6117b891906138a7565b83516117c491906136eb565b90506117d1303383612f03565b5061183f565b80610140015160031480156117ee57508160800151155b1561183f5760008160800151836060015160648460a0015161181091906136eb565b61181a9190613890565b61182491906138a7565b835161183091906136eb565b905061183d303383612f03565b505b50505050565b6000818152600d602052604080822081516101a0810190925280546001600160a01b03166101608301908152600182018054606095948594909390928492849161018085019161189490613735565b80601f01602080910402602001604051908101604052809291908181526020018280546118c090613735565b801561190d5780601f106118e25761010080835404028352916020019161190d565b820191906000526020600020905b8154815290600101906020018083116118f057829003601f168201915b50505050508152505081526020016002820154815260200160038201548152602001600482015481526020016005820154815260200160068201548152602001600782015481526020016008820154815260200160098201548152602001600a8201548152602001600b8201548152505090508060000151602001519250806101400151915050915091565b6119a530333084612a37565b6040805161012081018252338152600e805460208084018281524285870190815260608601888152600060808801818152600160a08a0181815260c08b0182815260e08c018581526101008d018681529a865260109099529b84209a518b546001600160a01b0319166001600160a01b03909116178b5595518a820155935160028a0155915160038901559051600488015591516005870155955160068601559051600785015590516008909301929092558054909190611a679084906136eb565b909155505050565b600033610a2481858561288b565b3360009081526015602090815260408083208584528252808320849055601082529182902082516101208101845281546001600160a01b0316815260018201549281019290925260028101549282018390526003810154606083015260048101546080830152600581015460a0830152600681015460c0830152600781015460e08301526008015461010082015290611b1690426136d8565b6064611b2281806136eb565b611b2c91906136eb565b11611b6a5760405162461bcd60e51b815260206004820152600e60248201526d159bdd1a5b99c8195e1c1a5c995960921b60448201526064016107d1565b6040810151611b7990426136d8565b611b846064806136eb565b10611bd15760405162461bcd60e51b815260206004820181905260248201527f41727469636c6520726567697374726174696f6e206e6f74206578706972656460448201526064016107d1565b6040810151611be090426136d8565b606410611bff5760405162461bcd60e51b81526004016107d1906136fe565b6000838152601760209081526040808320338452825291829020825160c081018452815481526001820154928101929092526002810154928201929092526003820154606082015260049091015460ff808216151560808401526101009091041615801560a0830152611ca45760405162461bcd60e51b815260206004820152600d60248201526c105b1c9958591e481d9bdd1959609a1b60448201526064016107d1565b816101000151600003611cc857600084815260106020526040902060016008909101555b60008260c001518260400151612710611ce19190613890565b611ceb91906138a7565b60a08401516020840151611d0190612710613890565b611d0b91906138a7565b60808501518451611d1e90612710613890565b611d2891906138a7565b611d3291906136eb565b611d3c91906136eb565b6000868152601760209081526040808320338452825280832060048101805461ff001916610100179055600301849055888352601190915290208054919250829186908110611d8d57611d8d6138c9565b90600052602060002090600502016004016000828254611dad91906136eb565b909155505060008581526010602052604081206007018054839290610f8b9084906136eb565b60116020528160005260406000208181548110611def57600080fd5b60009182526020918290206040805180820190915260059092020180546001600160a01b03168252600181018054919550919350849284019190611e3290613735565b80601f0160208091040260200160405190810160405280929190818152602001828054611e5e90613735565b8015611eab5780601f10611e8057610100808354040283529160200191611eab565b820191906000526020600020905b815481529060010190602001808311611e8e57829003601f168201915b50505050508152505090806002015490806003018054611eca90613735565b80601f0160208091040260200160405190810160405280929190818152602001828054611ef690613735565b8015611f435780601f10611f1857610100808354040283529160200191611f43565b820191906000526020600020905b815481529060010190602001808311611f2657829003601f168201915b5050505050908060040154905084565b60008281526011602052604081208054606092919084908110611f7857611f786138c9565b600091825260209091206040805160c0810190915260059092020180546001600160a01b031660808301908152600182018054849291849160a085019190611fbf90613735565b80601f0160208091040260200160405190810160405280929190818152602001828054611feb90613735565b80156120385780601f1061200d57610100808354040283529160200191612038565b820191906000526020600020905b81548152906001019060200180831161201b57829003601f168201915b50505050508152505081526020016002820154815260200160038201805461205f90613735565b80601f016020809104026020016040519081016040528092919081815260200182805461208b90613735565b80156120d85780601f106120ad576101008083540402835291602001916120d8565b820191906000526020600020905b8154815290600101906020018083116120bb57829003601f168201915b50505091835250506004919091015460209091015260400151949350505050565b33600090815260156020908152604080832085845290915290205481146121625760405162461bcd60e51b815260206004820152601a60248201527f596f7520766f74656420616e6f746865722061727469636c652100000000000060448201526064016107d1565b600082815260106020908152604080832081516101208101835281546001600160a01b031681526001808301548286015260028084015483860152600380850154606080860191909152600480870154608080880191909152600588015460a080890191909152600689015460c0808a019190915260078a015460e08a0152600890990154610100808a01919091528e8d5260178c528a8d20338e528c528a8d208b519a8b018c5280548b52978801548a8d015295870154898b01529386015492880192909252939093015460ff8082161515948701949094529190910490911615159083015286855260119093529083208054929391928590811061226a5761226a6138c9565b600091825260209091206040805160c0810190915260059092020180546001600160a01b031660808301908152600182018054849291849160a0850191906122b190613735565b80601f01602080910402602001604051908101604052809291908181526020018280546122dd90613735565b801561232a5780601f106122ff5761010080835404028352916020019161232a565b820191906000526020600020905b81548152906001019060200180831161230d57829003601f168201915b50505050508152505081526020016002820154815260200160038201805461235190613735565b80601f016020809104026020016040519081016040528092919081815260200182805461237d90613735565b80156123ca5780601f1061239f576101008083540402835291602001916123ca565b820191906000526020600020905b8154815290600101906020018083116123ad57829003601f168201915b5050505050815260200160048201548152505090508160a0015161241c5760405162461bcd60e51b8152602060048201526009602482015268139bdd081d9bdd195960ba1b60448201526064016107d1565b604083015161242b90426136d8565b6124366064806136eb565b106124785760405162461bcd60e51b8152602060048201526012602482015271159bdd1a5b99c81b9bdd08195e1c1a5c995960721b60448201526064016107d1565b82610100015160010361249c57600085815260106020526040902060026008909101555b6103e88360e0015182606001516127106124b69190613890565b6124c091906138a7565b505060008360e001518360600151856060015186608001516124e291906136eb565b6124ec9190613890565b6124f691906138a7565b9050612503303383612f03565b505050505050565b3360009081526014602052604090205460ff16156125605760405162461bcd60e51b8152602060048201526012602482015271105b1c9958591e481c9959da5cdd195c995960721b60448201526064016107d1565b61256d3033306064612a37565b604080516101a08101825233610160820190815282516020601f8601819004810282018101909452848152919283926101808401918790879081908401838280828437600092018290525093909452505091835250600c54602080840182905242604080860191909152606085018490526080850184905260a0850184905260c0850184905260e08501849052600161010086018190526101208601819052610140909501849052918352600d815291208351805182546001600160a01b0319166001600160a01b0390911617825591820151909283919082019061265290826137d0565b5050506020820151816002015560408201518160030155606082015181600401556080820151816005015560a0820151816006015560c0820151816007015560e08201518160080155610100820151816009015561012082015181600a015561014082015181600b01559050506001600c60008282546126d291906136eb565b90915550505050565b6001600160a01b03831661273d5760405162461bcd60e51b8152602060048201526024808201527f45524332303a20617070726f76652066726f6d20746865207a65726f206164646044820152637265737360e01b60648201526084016107d1565b6001600160a01b03821661279e5760405162461bcd60e51b815260206004820152602260248201527f45524332303a20617070726f766520746f20746865207a65726f206164647265604482015261737360f01b60648201526084016107d1565b6001600160a01b0383811660008181526002602090815260408083209487168084529482529182902085905590518481527f8c5be1e5ebec7d5bd14f71427d1e84f3dd0314c0f7b2291e5b200ac8c7c3b925910160405180910390a3505050565b6001600160a01b03838116600090815260026020908152604080832093861683529290522054600019811461183f578181101561287e5760405162461bcd60e51b815260206004820152601d60248201527f45524332303a20696e73756666696369656e7420616c6c6f77616e636500000060448201526064016107d1565b61183f84848484036126db565b6001600160a01b0383166128ef5760405162461bcd60e51b815260206004820152602560248201527f45524332303a207472616e736665722066726f6d20746865207a65726f206164604482015264647265737360d81b60648201526084016107d1565b6001600160a01b0382166129515760405162461bcd60e51b815260206004820152602360248201527f45524332303a207472616e7366657220746f20746865207a65726f206164647260448201526265737360e81b60648201526084016107d1565b6001600160a01b038316600090815260016020526040902054818110156129c95760405162461bcd60e51b815260206004820152602660248201527f45524332303a207472616e7366657220616d6f756e7420657863656564732062604482015265616c616e636560d01b60648201526084016107d1565b6001600160a01b0380851660008181526001602052604080822086860390559286168082529083902080548601905591517fddf252ad1be2c89b69c2b068fc378daa952ba7f163c4a11628f55a4df523b3ef90612a299086815260200190565b60405180910390a350505050565b604080516001600160a01b0385811660248301528481166044830152606480830185905283518084039091018152608490920183526020820180516001600160e01b03166323b872dd60e01b1790529151600092839290881691612a9b91906138df565b6000604051808303816000865af19150503d8060008114612ad8576040519150601f19603f3d011682016040523d82523d6000602084013e612add565b606091505b5091509150818015612b07575080511580612b07575080806020019051810190612b0791906138fb565b6125035760405162461bcd60e51b815260206004820152603160248201527f5472616e7366657248656c7065723a3a7472616e7366657246726f6d3a207472604482015270185b9cd9995c919c9bdb4819985a5b1959607a1b60648201526084016107d1565b6001600160a01b038216612bc35760405162461bcd60e51b815260206004820152601f60248201527f45524332303a206d696e7420746f20746865207a65726f20616464726573730060448201526064016107d1565b60005481600354612bd491906136eb565b1115612c225760405162461bcd60e51b815260206004820152601e60248201527f45524332303a206d696e7420616d6f756e74206578636565647320636170000060448201526064016107d1565b8060036000828254612c3491906136eb565b90915550506001600160a01b0382166000818152600160209081526040808320805486019055518481527fddf252ad1be2c89b69c2b068fc378daa952ba7f163c4a11628f55a4df523b3ef910160405180910390a35050565b6000818152600d602052604080822081516101a0810190925280546001600160a01b03166101608301908152600182018054849291849161018085019190612cd490613735565b80601f0160208091040260200160405190810160405280929190818152602001828054612d0090613735565b8015612d4d5780601f10612d2257610100808354040283529160200191612d4d565b820191906000526020600020905b815481529060010190602001808311612d3057829003601f168201915b50505050508152505081526020016002820154815260200160038201548152602001600482015481526020016005820154815260200160068201548152602001600782015481526020016008820154815260200160098201548152602001600a8201548152602001600b820154815250509050600a5481608001518260600151612dd791906136eb565b6060830151612de890612710613890565b612df291906138a7565b10612e97576000828152600d602052604090206004600b90910155612e1561302d565b600b805460018181018355600092835260208083047f0175b7a638427703f0dbe7bb9bbf987a2551717b34e79f33b5b1008d1fa01db901805460ff601f9095166101000a94850219169093179092558351516001600160a01b0316835260149091526040909120805460ff191690911790558051516111549030906064612f03565b6000828152600d602052604090206003600b90910155612eb56131a6565b5050600b80546001810182556000919091527f0175b7a638427703f0dbe7bb9bbf987a2551717b34e79f33b5b1008d1fa01db960208204018054601f9092166101000a60ff02199091169055565b604080516001600160a01b038481166024830152604480830185905283518084039091018152606490920183526020820180516001600160e01b031663a9059cbb60e01b1790529151600092839290871691612f5f91906138df565b6000604051808303816000865af19150503d8060008114612f9c576040519150601f19603f3d011682016040523d82523d6000602084013e612fa1565b606091505b5091509150818015612fcb575080511580612fcb575080806020019051810190612fcb91906138fb565b61183d5760405162461bcd60e51b815260206004820152602d60248201527f5472616e7366657248656c7065723a3a736166655472616e736665723a20747260448201526c185b9cd9995c8819985a5b1959609a1b60648201526084016107d1565b6000600b80548060200260200160405190810160405280929190818152602001828054801561309b57602002820191906000526020600020906000905b825461010083900a900460ff16151581526020600192830181810494850194909303909202910180841161306a5790505b5050505050905080516000036130ae5750565b80600182516130bd91906136d8565b815181106130cd576130cd6138c9565b6020026020010151151560011515036130fe576001600660008282546130f391906136eb565b909155506131179050565b60016008600082825461311191906136eb565b90915550505b600060075460065461312991906136eb565b60065461313890612710613890565b61314291906138a7565b9050600060095460085461315691906136eb565b60085461316590612710613890565b61316f91906138a7565b90508161317e612710836136eb565b61318891906136d8565b61319482612710613890565b61319e91906138a7565b600a55505050565b6000600b80548060200260200160405190810160405280929190818152602001828054801561321457602002820191906000526020600020906000905b825461010083900a900460ff1615158152602060019283018181049485019490930390920291018084116131e35790505b5050505050905080516000036132275750565b806001825161323691906136d8565b81518110613246576132466138c9565b6020026020010151151560011515036132775760016007600082825461326c91906136eb565b909155506132909050565b60016009600082825461328a91906136eb565b90915550505b60006007546006546132a291906136eb565b6007546132b190612710613890565b6132bb91906138a7565b905060006009546008546132cf91906136eb565b6009546132de90612710613890565b6132e891906138a7565b9050816132f7612710836136eb565b61330191906136d8565b61330d82612710613890565b61331791906138a7565b61319e906127106136d8565b60008083601f84011261333557600080fd5b50813567ffffffffffffffff81111561334d57600080fd5b60208301915083602082850101111561336557600080fd5b9250929050565b60008060006040848603121561338157600080fd5b83359250602084013567ffffffffffffffff81111561339f57600080fd5b6133ab86828701613323565b9497909650939450505050565b6000602082840312156133ca57600080fd5b5035919050565b80356001600160a01b03811681146133e857600080fd5b919050565b6000602082840312156133ff57600080fd5b613408826133d1565b9392505050565b6000806040838503121561342257600080fd5b61342b836133d1565b946020939093013593505050565b60005b8381101561345457818101518382015260200161343c565b50506000910152565b60008151808452613475816020860160208601613439565b601f01601f19169290920160200192915050565b60018060a01b03815116825260006020820151604060208501526134b0604085018261345d565b949350505050565b60006101608083526134cc8184018f613489565b602084019d909d52505060408101999099526060890197909752608088019590955260a087019390935260c086019190915260e085015261010084015261012083015261014090910152919050565b60008060006060848603121561353057600080fd5b613539846133d1565b9250613547602085016133d1565b9150604084013590509250925092565b801515811461059057600080fd5b6000806040838503121561357857600080fd5b82359150602083013561358a81613557565b809150509250929050565b600080604083850312156135a857600080fd5b50508035926020909101359150565b6001600160a01b03831681526040602082018190526000906134b09083018461345d565b6040815260006135ee604083018561345d565b90508260208301529392505050565b6080815260006136106080830187613489565b8560208401528281036040840152613628818661345d565b91505082606083015295945050505050565b602081526000613408602083018461345d565b6000806040838503121561366057600080fd5b613669836133d1565b9150613677602084016133d1565b90509250929050565b6000806020838503121561369357600080fd5b823567ffffffffffffffff8111156136aa57600080fd5b6136b685828601613323565b90969095509350505050565b634e487b7160e01b600052601160045260246000fd5b81810381811115610a2a57610a2a6136c2565b80820180821115610a2a57610a2a6136c2565b60208082526017908201527f4170706c69636174696f6e206e6f742065787069726564000000000000000000604082015260600190565b600181811c9082168061374957607f821691505b60208210810361376957634e487b7160e01b600052602260045260246000fd5b50919050565b634e487b7160e01b600052604160045260246000fd5b601f8211156137cb57600081815260208120601f850160051c810160208610156137ac5750805b601f850160051c820191505b81811015612503578281556001016137b8565b505050565b815167ffffffffffffffff8111156137ea576137ea61376f565b6137fe816137f88454613735565b84613785565b602080601f831160018114613833576000841561381b5750858301515b600019600386901b1c1916600185901b178555612503565b600085815260208120601f198616915b8281101561386257888601518255948401946001909101908401613843565b50858210156138805787850151600019600388901b60f8161c191681555b5050505050600190811b01905550565b8082028115828204841417610a2a57610a2a6136c2565b6000826138c457634e487b7160e01b600052601260045260246000fd5b500490565b634e487b7160e01b600052603260045260246000fd5b600082516138f1818460208701613439565b9190910192915050565b60006020828403121561390d57600080fd5b81516134088161355756fea2646970667358221220602f19d8614e7b2ca23bd9a44f6d389659127510fb23aaa9d05c074776e8ee3b64736f6c63430008120033",
    "linkReferences": {}
  },
  "methodIdentifiers": {
    "ARTICLEREGISTRATIONEXPIRY()": "f51c198f",
    "CHALLEGEEXPIRY()": "f3c4f7ba",
    "DECIMALS()": "2e0f2625",
    "PARTICIPATIONEXPIRY()": "63e4851a",
    "REGISTRATIONDEPOSIT()": "dfa23ba6",
    "VOTINGEXPIRY()": "540fd28e",
    "_pi_quorum()": "826d053a",
    "aVoteParticipate(uint256,uint256)": "3ac16074",
    "allowance(address,address)": "dd62ed3e",
    "approve(address,uint256)": "095ea7b3",
    "articleRegister(uint256,string)": "012d0ec1",
    "articlenum(uint256)": "7f76e109",
    "articles(uint256,uint256)": "c419fb98",
    "balanceOf(address)": "70a08231",
    "challenge(uint256)": "ab82d9a0",
    "claimRewardA(uint256,uint256)": "d966a540",
    "claimRewardW(uint256)": "94440679",
    "decimals()": "313ce567",
    "getProposal(uint256)": "c7f758a8",
    "getWregister(uint256)": "a432582c",
    "getarticle(uint256,uint256)": "d5e6f3d0",
    "getarticlenum(uint256)": "b3540312",
    "getproposalnum()": "47ef6cf1",
    "getregisternum()": "ddb0daae",
    "members(address)": "08ae4b0c",
    "mint(address,uint256)": "40c10f19",
    "proposalnum()": "cada6091",
    "proposals(uint256)": "013cf08b",
    "propose(uint256)": "a618b74e",
    "registrationnum()": "c89996e8",
    "totalSupply()": "18160ddd",
    "transfer(address,uint256)": "a9059cbb",
    "transferFrom(address,address,uint256)": "23b872dd",
    "voteRanking(uint256,uint256)": "af8b9f7a",
    "voteRegister(uint256,bool)": "3616db13",
    "votedarticles(address,uint256)": "701809fc",
    "wVoteParticipate(uint256,uint256)": "494bdc02",
    "writerRegister(string)": "faaa169b",
    "writerRegistrations(uint256)": "197eb393",
    "writermapping(address)": "8ec86992",
    "writers(address)": "8e7e80a2"
  },
  "id": 17
}