{
  "abi": [
    {
      "anonymous": false,
      "inputs": [
        {
          "indexed": true,
          "internalType": "address",
          "name": "owner",
          "type": "address"
        },
        {
          "indexed": true,
          "internalType": "address",
          "name": "spender",
          "type": "address"
        },
        {
          "indexed": false,
          "internalType": "uint256",
          "name": "value",
          "type": "uint256"
        }
      ],
      "name": "Approval",
      "type": "event"
    },
    {
      "anonymous": false,
      "inputs": [
        {
          "indexed": true,
          "internalType": "address",
          "name": "from",
          "type": "address"
        },
        {
          "indexed": true,
          "internalType": "address",
          "name": "to",
          "type": "address"
        },
        {
          "indexed": false,
          "internalType": "uint256",
          "name": "value",
          "type": "uint256"
        }
      ],
      "name": "Transfer",
      "type": "event"
    },
    {
      "inputs": [],
      "name": "ARTICLEREGISTRATIONEXPIRY",
      "outputs": [
        {
          "internalType": "uint256",
          "name": "",
          "type": "uint256"
        }
      ],
      "stateMutability": "view",
      "type": "function"
    },
    {
      "inputs": [],
      "name": "CHALLEGEEXPIRY",
      "outputs": [
        {
          "internalType": "uint256",
          "name": "",
          "type": "uint256"
        }
      ],
      "stateMutability": "view",
      "type": "function"
    },
    {
      "inputs": [],
      "name": "DECIMALS",
      "outputs": [
        {
          "internalType": "uint256",
          "name": "",
          "type": "uint256"
        }
      ],
      "stateMutability": "view",
      "type": "function"
    },
    {
      "inputs": [],
      "name": "PARTICIPATIONEXPIRY",
      "outputs": [
        {
          "internalType": "uint256",
          "name": "",
          "type": "uint256"
        }
      ],
      "stateMutability": "view",
      "type": "function"
    },
    {
      "inputs": [],
      "name": "REGISTRATIONDEPOSIT",
      "outputs": [
        {
          "internalType": "uint256",
          "name": "",
          "type": "uint256"
        }
      ],
      "stateMutability": "view",
      "type": "function"
    },
    {
      "inputs": [],
      "name": "VOTINGEXPIRY",
      "outputs": [
        {
          "internalType": "uint256",
          "name": "",
          "type": "uint256"
        }
      ],
      "stateMutability": "view",
      "type": "function"
    },
    {
      "inputs": [],
      "name": "_pi_quorum",
      "outputs": [
        {
          "internalType": "uint256",
          "name": "",
          "type": "uint256"
        }
      ],
      "stateMutability": "view",
      "type": "function"
    },
    {
      "inputs": [
        {
          "internalType": "uint256",
          "name": "proposalid",
          "type": "uint256"
        },
        {
          "internalType": "uint256",
          "name": "stake",
          "type": "uint256"
        }
      ],
      "name": "aVoteParticipate",
      "outputs": [],
      "stateMutability": "nonpayable",
      "type": "function"
    },
    {
      "inputs": [
        {
          "internalType": "address",
          "name": "owner",
          "type": "address"
        },
        {
          "internalType": "address",
          "name": "spender",
          "type": "address"
        }
      ],
      "name": "allowance",
      "outputs": [
        {
          "internalType": "uint256",
          "name": "",
          "type": "uint256"
        }
      ],
      "stateMutability": "view",
      "type": "function"
    },
    {
      "inputs": [
        {
          "internalType": "address",
          "name": "spender",
          "type": "address"
        },
        {
          "internalType": "uint256",
          "name": "amount",
          "type": "uint256"
        }
      ],
      "name": "approve",
      "outputs": [
        {
          "internalType": "bool",
          "name": "",
          "type": "bool"
        }
      ],
      "stateMutability": "nonpayable",
      "type": "function"
    },
    {
      "inputs": [
        {
          "internalType": "uint256",
          "name": "proposalid",
          "type": "uint256"
        },
        {
          "internalType": "string",
          "name": "url",
          "type": "string"
        }
      ],
      "name": "articleRegister",
      "outputs": [],
      "stateMutability": "nonpayable",
      "type": "function"
    },
    {
      "inputs": [
        {
          "internalType": "uint256",
          "name": "",
          "type": "uint256"
        },
        {
          "internalType": "uint256",
          "name": "",
          "type": "uint256"
        }
      ],
      "name": "articles",
      "outputs": [
        {
          "internalType": "address",
          "name": "writerAddress",
          "type": "address"
        },
        {
          "internalType": "uint256",
          "name": "articleid",
          "type": "uint256"
        },
        {
          "internalType": "string",
          "name": "url",
          "type": "string"
        },
        {
          "internalType": "uint256",
          "name": "votedweights",
          "type": "uint256"
        }
      ],
      "stateMutability": "view",
      "type": "function"
    },
    {
      "inputs": [
        {
          "internalType": "address",
          "name": "account",
          "type": "address"
        }
      ],
      "name": "balanceOf",
      "outputs": [
        {
          "internalType": "uint256",
          "name": "",
          "type": "uint256"
        }
      ],
      "stateMutability": "view",
      "type": "function"
    },
    {
      "inputs": [
        {
          "internalType": "uint256",
          "name": "wregisterid",
          "type": "uint256"
        }
      ],
      "name": "challenge",
      "outputs": [],
      "stateMutability": "nonpayable",
      "type": "function"
    },
    {
      "inputs": [
        {
          "internalType": "uint256",
          "name": "proposalid",
          "type": "uint256"
        },
        {
          "internalType": "uint256",
          "name": "articleid",
          "type": "uint256"
        }
      ],
      "name": "claimRewardA",
      "outputs": [],
      "stateMutability": "nonpayable",
      "type": "function"
    },
    {
      "inputs": [
        {
          "internalType": "uint256",
          "name": "wregisterid",
          "type": "uint256"
        }
      ],
      "name": "claimRewardW",
      "outputs": [],
      "stateMutability": "nonpayable",
      "type": "function"
    },
    {
      "inputs": [],
      "name": "decimals",
      "outputs": [
        {
          "internalType": "uint8",
          "name": "",
          "type": "uint8"
        }
      ],
      "stateMutability": "pure",
      "type": "function"
    },
    {
      "inputs": [
        {
          "internalType": "address",
          "name": "",
          "type": "address"
        }
      ],
      "name": "members",
      "outputs": [
        {
          "internalType": "address",
          "name": "_address",
          "type": "address"
        },
        {
          "internalType": "uint256",
          "name": "votes",
          "type": "uint256"
        },
        {
          "internalType": "uint256",
          "name": "challenges",
          "type": "uint256"
        }
      ],
      "stateMutability": "view",
      "type": "function"
    },
    {
      "inputs": [
        {
          "internalType": "address",
          "name": "account",
          "type": "address"
        },
        {
          "internalType": "uint256",
          "name": "amount",
          "type": "uint256"
        }
      ],
      "name": "mint",
      "outputs": [],
      "stateMutability": "nonpayable",
      "type": "function"
    },
    {
      "inputs": [
        {
          "internalType": "uint256",
          "name": "",
          "type": "uint256"
        }
      ],
      "name": "proposalids",
      "outputs": [
        {
          "internalType": "uint256",
          "name": "",
          "type": "uint256"
        }
      ],
      "stateMutability": "view",
      "type": "function"
    },
    {
      "inputs": [
        {
          "internalType": "uint256",
          "name": "",
          "type": "uint256"
        }
      ],
      "name": "proposals",
      "outputs": [
        {
          "internalType": "address",
          "name": "proposer",
          "type": "address"
        },
        {
          "internalType": "uint256",
          "name": "applytime",
          "type": "uint256"
        },
        {
          "internalType": "uint256",
          "name": "stake",
          "type": "uint256"
        },
        {
          "internalType": "uint256",
          "name": "totalstake",
          "type": "uint256"
        },
        {
          "internalType": "uint256",
          "name": "totalvotes",
          "type": "uint256"
        },
        {
          "internalType": "uint256",
          "name": "totalchallenges",
          "type": "uint256"
        },
        {
          "internalType": "uint256",
          "name": "totalweights",
          "type": "uint256"
        },
        {
          "internalType": "enum Article_DAO.VotingResult",
          "name": "votingResult",
          "type": "uint8"
        }
      ],
      "stateMutability": "view",
      "type": "function"
    },
    {
      "inputs": [
        {
          "internalType": "uint256",
          "name": "stake",
          "type": "uint256"
        }
      ],
      "name": "propose",
      "outputs": [],
      "stateMutability": "nonpayable",
      "type": "function"
    },
    {
      "inputs": [],
      "name": "totalSupply",
      "outputs": [
        {
          "internalType": "uint256",
          "name": "",
          "type": "uint256"
        }
      ],
      "stateMutability": "view",
      "type": "function"
    },
    {
      "inputs": [
        {
          "internalType": "address",
          "name": "to",
          "type": "address"
        },
        {
          "internalType": "uint256",
          "name": "amount",
          "type": "uint256"
        }
      ],
      "name": "transfer",
      "outputs": [
        {
          "internalType": "bool",
          "name": "",
          "type": "bool"
        }
      ],
      "stateMutability": "nonpayable",
      "type": "function"
    },
    {
      "inputs": [
        {
          "internalType": "address",
          "name": "from",
          "type": "address"
        },
        {
          "internalType": "address",
          "name": "to",
          "type": "address"
        },
        {
          "internalType": "uint256",
          "name": "amount",
          "type": "uint256"
        }
      ],
      "name": "transferFrom",
      "outputs": [
        {
          "internalType": "bool",
          "name": "",
          "type": "bool"
        }
      ],
      "stateMutability": "nonpayable",
      "type": "function"
    },
    {
      "inputs": [
        {
          "internalType": "uint256",
          "name": "proposalid",
          "type": "uint256"
        },
        {
          "internalType": "uint256",
          "name": "articleid",
          "type": "uint256"
        }
      ],
      "name": "voteRanking",
      "outputs": [],
      "stateMutability": "nonpayable",
      "type": "function"
    },
    {
      "inputs": [
        {
          "internalType": "uint256",
          "name": "wRegisterID",
          "type": "uint256"
        },
        {
          "internalType": "bool",
          "name": "voteFor",
          "type": "bool"
        }
      ],
      "name": "voteRegister",
      "outputs": [],
      "stateMutability": "nonpayable",
      "type": "function"
    },
    {
      "inputs": [
        {
          "internalType": "uint256",
          "name": "",
          "type": "uint256"
        }
      ],
      "name": "wRegisterids",
      "outputs": [
        {
          "internalType": "uint256",
          "name": "",
          "type": "uint256"
        }
      ],
      "stateMutability": "view",
      "type": "function"
    },
    {
      "inputs": [
        {
          "internalType": "uint256",
          "name": "wregisterid",
          "type": "uint256"
        },
        {
          "internalType": "uint256",
          "name": "stake",
          "type": "uint256"
        }
      ],
      "name": "wVoteParticipate",
      "outputs": [],
      "stateMutability": "nonpayable",
      "type": "function"
    },
    {
      "inputs": [],
      "name": "writerRegister",
      "outputs": [],
      "stateMutability": "nonpayable",
      "type": "function"
    },
    {
      "inputs": [
        {
          "internalType": "uint256",
          "name": "",
          "type": "uint256"
        }
      ],
      "name": "writerRegistrations",
      "outputs": [
        {
          "internalType": "address",
          "name": "writer",
          "type": "address"
        },
        {
          "internalType": "uint256",
          "name": "applytime",
          "type": "uint256"
        },
        {
          "internalType": "uint256",
          "name": "voteFor",
          "type": "uint256"
        },
        {
          "internalType": "uint256",
          "name": "voteAgainst",
          "type": "uint256"
        },
        {
          "internalType": "uint256",
          "name": "voteForstake",
          "type": "uint256"
        },
        {
          "internalType": "uint256",
          "name": "voteAgainststake",
          "type": "uint256"
        },
        {
          "internalType": "uint256",
          "name": "totalstake",
          "type": "uint256"
        },
        {
          "internalType": "uint256",
          "name": "totalvotes",
          "type": "uint256"
        },
        {
          "internalType": "uint256",
          "name": "totalchallenges",
          "type": "uint256"
        },
        {
          "internalType": "enum Article_DAO.VotingResult",
          "name": "votingResult",
          "type": "uint8"
        }
      ],
      "stateMutability": "view",
      "type": "function"
    },
    {
      "inputs": [
        {
          "internalType": "address",
          "name": "",
          "type": "address"
        }
      ],
      "name": "writers",
      "outputs": [
        {
          "internalType": "bool",
          "name": "",
          "type": "bool"
        }
      ],
      "stateMutability": "view",
      "type": "function"
    }
  ],
  "bytecode": {
    "object": "0x633b9aca0060005560c0604052600660809081526508ed8d2e8c6d60d31b60a0526004906200002f90826200014a565b5060408051808201909152600481526308e9886960e31b60208201526005906200005a90826200014a565b506001600655600160075560016008556001600955600a612710600562000082919062000216565b6200008e919062000242565b600a553480156200009e57600080fd5b5062000265565b634e487b7160e01b600052604160045260246000fd5b600181811c90821680620000d057607f821691505b602082108103620000f157634e487b7160e01b600052602260045260246000fd5b50919050565b601f8211156200014557600081815260208120601f850160051c81016020861015620001205750805b601f850160051c820191505b8181101562000141578281556001016200012c565b5050505b505050565b81516001600160401b03811115620001665762000166620000a5565b6200017e81620001778454620000bb565b84620000f7565b602080601f831160018114620001b657600084156200019d5750858301515b600019600386901b1c1916600185901b17855562000141565b600085815260208120601f198616915b82811015620001e757888601518255948401946001909101908401620001c6565b5085821015620002065787850151600019600388901b60f8161c191681555b5050505050600190811b01905550565b80820281158282048414176200023c57634e487b7160e01b600052601160045260246000fd5b92915050565b6000826200026057634e487b7160e01b600052601260045260246000fd5b500490565b612f2f80620002756000396000f3fe608060405234801561001057600080fd5b50600436106101f05760003560e01c8063826d053a1161010f578063af8b9f7a116100a2578063dfa23ba611610071578063dfa23ba614610411578063ed04776114610555578063f3c4f7ba14610411578063f51c198f1461041157600080fd5b8063af8b9f7a146104d3578063c419fb98146104e6578063d966a54014610509578063dd62ed3e1461051c57600080fd5b80639c9eacb2116100de5780639c9eacb214610489578063a618b74e1461049c578063a9059cbb146104af578063ab82d9a0146104c257600080fd5b8063826d053a146104425780638e7e80a21461044b57806391429dd31461046e578063944406791461047657600080fd5b8063313ce56711610187578063494bdc0211610156578063494bdc02146103fe578063540fd28e1461041157806363e4851a1461041157806370a082311461041957600080fd5b8063313ce567146103b65780633616db13146103c55780633ac16074146103d857806340c10f19146103eb57600080fd5b806318160ddd116101c357806318160ddd14610306578063197eb3931461031857806323b872dd1461039a5780632e0f2625146103ad57600080fd5b8063012d0ec1146101f5578063013cf08b1461020a57806308ae4b0c14610285578063095ea7b3146102e3575b600080fd5b610208610203366004612973565b610568565b005b6102686102183660046129ef565b600f60205260009081526040902080546001820154600283015460038401546004850154600586015460068701546007909701546001600160a01b03909616969495939492939192909160ff1688565b60405161027c989796959493929190612a40565b60405180910390f35b6102be610293366004612ab1565b6011602052600090815260409020805460018201546002909201546001600160a01b03909116919083565b604080516001600160a01b03909416845260208401929092529082015260600161027c565b6102f66102f1366004612ad3565b6107d4565b604051901515815260200161027c565b6003545b60405190815260200161027c565b6103846103263660046129ef565b600d6020526000908152604090208054600182015460028301546003840154600485015460058601546006870154600788015460088901546009909901546001600160a01b0390981698969795969495939492939192909160ff168a565b60405161027c9a99989796959493929190612afd565b6102f66103a8366004612b5f565b6107ee565b61030a61271081565b6040516012815260200161027c565b6102086103d3366004612ba9565b610812565b6102086103e6366004612bd9565b610bad565b6102086103f9366004612ad3565b610d68565b61020861040c366004612bd9565b610d76565b61030a606481565b61030a610427366004612ab1565b6001600160a01b031660009081526001602052604090205490565b61030a600a5481565b6102f6610459366004612ab1565b60126020526000908152604090205460ff1681565b610208610f2f565b6102086104843660046129ef565b6110a2565b61030a6104973660046129ef565b61141e565b6102086104aa3660046129ef565b61143f565b6102f66104bd366004612ad3565b611541565b6102086104d03660046129ef565b50565b6102086104e1366004612bd9565b61154f565b6104f96104f4366004612bd9565b611879565b60405161027c9493929190612c1f565b610208610517366004612bd9565b611955565b61030a61052a366004612c70565b6001600160a01b03918216600090815260026020908152604080832093909416825291909152205490565b61030a6105633660046129ef565b611d93565b6000838152600f6020908152604080832081516101008101835281546001600160a01b03168152600182015493810193909352600281015491830191909152600380820154606084015260048201546080840152600582015460a0840152600682015460c0840152600782015460e084019160ff909116908111156105ef576105ef612a08565b600381111561060057610600612a08565b9052503360009081526012602052604090205490915060ff166106595760405162461bcd60e51b815260206004820152600c60248201526b2737ba1030903bb934ba32b960a11b60448201526064015b60405180910390fd5b60208101516106689042612cb9565b610673606480612ccc565b116106c05760405162461bcd60e51b815260206004820152601c60248201527f41727469636c6520726567697374726174696f6e2065787069726564000000006044820152606401610650565b60208101516106cf9042612cb9565b6064106106ee5760405162461bcd60e51b815260040161065090612cdf565b6000848152601060209081526040918290205482516080810184523381528083018290528351601f8701849004840281018401855286815291939092908301919087908790819084018382808284376000920182905250938552505050602091820181905287815260109091526040902080548390811061077157610771612d16565b600091825260209182902083516004929092020180546001600160a01b0319166001600160a01b03909216919091178155908201516001820155604082015160028201906107bf9082612dc7565b50606082015181600301559050505050505050565b6000336107e2818585611da3565b60019150505b92915050565b6000336107fc858285611ec7565b610807858585611f53565b506001949350505050565b6000828152600d6020908152604080832081516101408101835281546001600160a01b03168152600182015493810193909352600281015491830191909152600380820154606084015260048201546080840152600582015460a0840152600682015460c0840152600782015460e08401526008820154610100840152600982015461012084019160ff909116908111156108af576108af612a08565b60038111156108c0576108c0612a08565b90525060208101519091506108d59042612cb9565b6108e0606480612ccc565b1161091e5760405162461bcd60e51b815260206004820152600e60248201526d159bdd1a5b99c8195e1c1a5c995960921b6044820152606401610650565b602081015161092d9042612cb9565b60641061094c5760405162461bcd60e51b815260040161065090612cdf565b6000838152601360209081526040808320338452825291829020825160c081018452815481526001820154928101929092526002810154928201929092526003820154606082015260049091015460ff808216151560808401526101009091041615801560a08301526109f15760405162461bcd60e51b815260206004820152600d60248201526c105b1c9958591e481d9bdd1959609a1b6044820152606401610650565b60008261010001518260400151612710610a0b9190612e87565b610a159190612e9e565b60e08401516020840151610a2b90612710612e87565b610a359190612e9e565b60c08501518451610a4890612710612e87565b610a529190612e9e565b610a5c9190612ccc565b610a669190612ccc565b6000868152601360209081526040808320338452909152902060030181905590508315610ae1576000858152600d602052604081206002018054839290610aae908490612ccc565b909155505081516000868152600d602052604081206004018054909190610ad6908490612ccc565b90915550610b549050565b6000858152600d602052604081206003018054839290610b02908490612ccc565b909155505081516000868152600d602052604081206005018054909190610b2a908490612ccc565b909155505060008581526013602090815260408083203384529091529020600401805460ff191690555b6000858152601360209081526040808320338452825280832060038101859055600401805461ff001916610100179055601190915281206001908101805491929091610ba1908490612ccc565b90915550505050505050565b610bb9303330846120ff565b6000828152600f6020526040902060010154610bd59042612cb9565b606411610c1a5760405162461bcd60e51b8152602060048201526013602482015272105c1c1b1a58d85d1a5bdb88195e1c1a5c9959606a1b6044820152606401610650565b33600081815260116020908152604080832081516060808201845282546001600160a01b03168252600180840154838701908152600294850154848701908152865160c0810188528b8152915182890190815290518288019081529382018981526080830184815260a084018b81528e8c5260148b52898c209c8c529b8a52888b209351845591519383019390935592519481019490945551600380850191909155905160049093018054975115156101000261ff00199415159490941661ffff199098169790971792909217909555868452600f9092528220018054849290610d05908490612ccc565b90915550506040808201516000858152600f602052918220600501805491929091610d31908490612ccc565b90915550506020808201516000858152600f90925260408220600401805491929091610d5e908490612ccc565b9091555050505050565b610d728282612235565b5050565b6000828152600d6020526040902060010154610d929042612cb9565b606411610dd75760405162461bcd60e51b8152602060048201526013602482015272105c1c1b1a58d85d1a5bdb88195e1c1a5c9959606a1b6044820152606401610650565b33600081815260116020908152604091829020825160608101845281546001600160a01b03168152600182015492810192909252600201549181019190915290610e2490309081856120ff565b6040805160c0810182528381526020838101518183019081528484015183850190815260006060850181815260016080870181815260a088018481528c85526013885289852033865288528985209851895595519188019190915592516002870155516003860155905160049094018054925115156101000261ff00199515159590951661ffff1990931692909217939093179055858252600d90529081206006018054849290610ed6908490612ccc565b90915550506040808201516000858152600d602052918220600801805491929091610f02908490612ccc565b90915550506020808201516000858152600d90925260408220600701805491929091610d5e908490612ccc565b3360009081526012602052604090205460ff1615610f845760405162461bcd60e51b8152602060048201526012602482015271105b1c9958591e481c9959da5cdd195c995960721b6044820152606401610650565b610f9130333060646120ff565b600c805460018082019092557fdf6966c971051c3d54ec59162606531493a51404a002842f56009d7e5cf4a8c7810181905560408051610140810182523381524260208083019182526000838501818152606085018281526080860183815260a0870184815260c0880185815260e089018c81526101008a018d815260036101208c018181528e8a52600d909a529b9097208a5181546001600160a01b0319166001600160a01b039091161781559851898e0155945160028901559251878a015590516004870155516005860155516006850155516007840155516008830155516009820180549596939592949193909260ff191691849081111561109857611098612a08565b0217905550505050565b6000818152600d6020908152604080832081516101408101835281546001600160a01b03168152600182015493810193909352600281015491830191909152600380820154606084015260048201546080840152600582015460a0840152600682015460c0840152600782015460e08401526008820154610100840152600982015461012084019160ff9091169081111561113f5761113f612a08565b600381111561115057611150612a08565b9052506000838152601360209081526040808320338452825291829020825160c081018452815481526001820154928101929092526002810154928201929092526003820154606082015260049091015460ff8082161515608084015261010090910416151560a08201819052919250906111f95760405162461bcd60e51b8152602060048201526009602482015268139bdd081d9bdd195960ba1b6044820152606401610650565b60208201516112089042612cb9565b611213606480612ccc565b106112555760405162461bcd60e51b8152602060048201526012602482015271159bdd1a5b99c81b9bdd08195e1c1a5c995960721b6044820152606401610650565b6003826101200151600381111561126e5761126e612a08565b0361127c5761127c83612355565b6000838152600d6020908152604080832081516101408101835281546001600160a01b03168152600182015493810193909352600281015491830191909152600380820154606084015260048201546080840152600582015460a0840152600682015460c0840152600782015460e08401526008820154610100840152600982015461012084019160ff9091169081111561131957611319612a08565b600381111561132a5761132a612a08565b90525090506000816101200151600381111561134857611348612a08565b148015611356575081608001515b1561139f576000816040015183606001518360a001516113769190612e87565b6113809190612e9e565b835161138c9190612ccc565b9050611399303383612553565b50611418565b600181610120015160038111156113b8576113b8612a08565b1480156113c757508160800151155b1561141857600081606001518360600151606484608001516113e99190612ccc565b6113f39190612e87565b6113fd9190612e9e565b83516114099190612ccc565b9050611416303383612553565b505b50505050565b600e818154811061142e57600080fd5b600091825260209091200154905081565b61144b303330846120ff565b600e805460018082019092557fbb7b4a454dc3493923482f07822329ed19e8244eff582cc204f8554c3620c3fd810181905560408051610100810182523381524260208083019182528284018781526000606085018181526080860189815260a087018a815260c08801848152600360e08a018181528c8752600f90985299909420885181546001600160a01b0319166001600160a01b039091161781559651878c01559351600287015590518588015551600485015590516005840155516006830155516007820180549596939592949193909260ff191691849081111561153657611536612a08565b021790555050505050565b6000336107e2818585611f53565b6000828152600f6020908152604080832081516101008101835281546001600160a01b03168152600182015493810193909352600281015491830191909152600380820154606084015260048201546080840152600582015460a0840152600682015460c0840152600782015460e084019160ff909116908111156115d6576115d6612a08565b60038111156115e7576115e7612a08565b90525060208101519091506115fc9042612cb9565b611607606480612ccc565b116116455760405162461bcd60e51b815260206004820152600e60248201526d159bdd1a5b99c8195e1c1a5c995960921b6044820152606401610650565b60208101516116549042612cb9565b61165f606480612ccc565b106116ac5760405162461bcd60e51b815260206004820181905260248201527f41727469636c6520726567697374726174696f6e206e6f7420657870697265646044820152606401610650565b60208101516116bb9042612cb9565b6064106116da5760405162461bcd60e51b815260040161065090612cdf565b6000838152601460209081526040808320338452825291829020825160c081018452815481526001820154928101929092526002810154928201929092526003820154606082015260049091015460ff808216151560808401526101009091041615801560a083015261177f5760405162461bcd60e51b815260206004820152600d60248201526c105b1c9958591e481d9bdd1959609a1b6044820152606401610650565b60008260a0015182604001516127106117989190612e87565b6117a29190612e9e565b608084015160208401516117b890612710612e87565b6117c29190612e9e565b606085015184516117d590612710612e87565b6117df9190612e9e565b6117e99190612ccc565b6117f39190612ccc565b6000868152601460209081526040808320338452825280832060030184905588835260109091529020805491925082918690811061183357611833612d16565b906000526020600020906004020160030160008282546118539190612ccc565b90915550506000858152600f602052604081206006018054839290610ba1908490612ccc565b6010602052816000526040600020818154811061189557600080fd5b60009182526020909120600490910201805460018201546002830180546001600160a01b039093169550909350906118cc90612d42565b80601f01602080910402602001604051908101604052809291908181526020018280546118f890612d42565b80156119455780601f1061191a57610100808354040283529160200191611945565b820191906000526020600020905b81548152906001019060200180831161192857829003601f168201915b5050505050908060030154905084565b6000828152600f6020908152604080832081516101008101835281546001600160a01b03168152600182015493810193909352600281015491830191909152600380820154606084015260048201546080840152600582015460a0840152600682015460c0840152600782015460e084019160ff909116908111156119dc576119dc612a08565b60038111156119ed576119ed612a08565b90525060008481526014602090815260408083203384528252808320815160c081018352815481526001820154818501526002820154818401526003820154606082015260049091015460ff8082161515608084015261010090910416151560a0820152878452601090925282208054939450909285908110611a7257611a72612d16565b90600052602060002090600402016040518060800160405290816000820160009054906101000a90046001600160a01b03166001600160a01b03166001600160a01b0316815260200160018201548152602001600282018054611ad490612d42565b80601f0160208091040260200160405190810160405280929190818152602001828054611b0090612d42565b8015611b4d5780601f10611b2257610100808354040283529160200191611b4d565b820191906000526020600020905b815481529060010190602001808311611b3057829003601f168201915b5050505050815260200160038201548152505090508160a00151611b9f5760405162461bcd60e51b8152602060048201526009602482015268139bdd081d9bdd195960ba1b6044820152606401610650565b6020830151611bae9042612cb9565b611bb9606480612ccc565b10611bfb5760405162461bcd60e51b8152602060048201526012602482015271159bdd1a5b99c81b9bdd08195e1c1a5c995960721b6044820152606401610650565b60038360e001516003811115611c1357611c13612a08565b03611c35576000858152600f60205260409020600701805460ff191660021790555b6000858152600f6020908152604080832081516101008101835281546001600160a01b03168152600182015493810193909352600281015491830191909152600380820154606084015260048201546080840152600582015460a0840152600682015460c0840152600782015460e084019160ff90911690811115611cbc57611cbc612a08565b6003811115611ccd57611ccd612a08565b905250905060028160e001516003811115611cea57611cea612a08565b03611d8b5760006127108560c001518460600151612710611d0b9190612e87565b8460400151611d1a9190612e87565b611d249190612e9e565b611d2e9190612e9e565b9050600083606001518560600151612710611d499190612e87565b611d539190612e9e565b90506000612710611d648385612e87565b611d6e9190612e9e565b8651611d7a9190612ccc565b9050611d87303383612553565b5050505b505050505050565b600c818154811061142e57600080fd5b6001600160a01b038316611e055760405162461bcd60e51b8152602060048201526024808201527f45524332303a20617070726f76652066726f6d20746865207a65726f206164646044820152637265737360e01b6064820152608401610650565b6001600160a01b038216611e665760405162461bcd60e51b815260206004820152602260248201527f45524332303a20617070726f766520746f20746865207a65726f206164647265604482015261737360f01b6064820152608401610650565b6001600160a01b0383811660008181526002602090815260408083209487168084529482529182902085905590518481527f8c5be1e5ebec7d5bd14f71427d1e84f3dd0314c0f7b2291e5b200ac8c7c3b925910160405180910390a3505050565b6001600160a01b0383811660009081526002602090815260408083209386168352929052205460001981146114185781811015611f465760405162461bcd60e51b815260206004820152601d60248201527f45524332303a20696e73756666696369656e7420616c6c6f77616e63650000006044820152606401610650565b6114188484848403611da3565b6001600160a01b038316611fb75760405162461bcd60e51b815260206004820152602560248201527f45524332303a207472616e736665722066726f6d20746865207a65726f206164604482015264647265737360d81b6064820152608401610650565b6001600160a01b0382166120195760405162461bcd60e51b815260206004820152602360248201527f45524332303a207472616e7366657220746f20746865207a65726f206164647260448201526265737360e81b6064820152608401610650565b6001600160a01b038316600090815260016020526040902054818110156120915760405162461bcd60e51b815260206004820152602660248201527f45524332303a207472616e7366657220616d6f756e7420657863656564732062604482015265616c616e636560d01b6064820152608401610650565b6001600160a01b0380851660008181526001602052604080822086860390559286168082529083902080548601905591517fddf252ad1be2c89b69c2b068fc378daa952ba7f163c4a11628f55a4df523b3ef906120f19086815260200190565b60405180910390a350505050565b604080516001600160a01b0385811660248301528481166044830152606480830185905283518084039091018152608490920183526020820180516001600160e01b03166323b872dd60e01b17905291516000928392908816916121639190612ec0565b6000604051808303816000865af19150503d80600081146121a0576040519150601f19603f3d011682016040523d82523d6000602084013e6121a5565b606091505b50915091508180156121cf5750805115806121cf5750808060200190518101906121cf9190612edc565b611d8b5760405162461bcd60e51b815260206004820152603160248201527f5472616e7366657248656c7065723a3a7472616e7366657246726f6d3a207472604482015270185b9cd9995c919c9bdb4819985a5b1959607a1b6064820152608401610650565b6001600160a01b03821661228b5760405162461bcd60e51b815260206004820152601f60248201527f45524332303a206d696e7420746f20746865207a65726f2061646472657373006044820152606401610650565b6000548160035461229c9190612ccc565b11156122ea5760405162461bcd60e51b815260206004820152601e60248201527f45524332303a206d696e7420616d6f756e7420657863656564732063617000006044820152606401610650565b80600360008282546122fc9190612ccc565b90915550506001600160a01b0382166000818152600160209081526040808320805486019055518481527fddf252ad1be2c89b69c2b068fc378daa952ba7f163c4a11628f55a4df523b3ef910160405180910390a35050565b6000818152600d6020908152604080832081516101408101835281546001600160a01b03168152600182015493810193909352600281015491830191909152600380820154606084015260048201546080840152600582015460a0840152600682015460c0840152600782015460e08401526008820154610100840152600982015461012084019160ff909116908111156123f2576123f2612a08565b600381111561240357612403612a08565b815250509050600a54816060015182604001516124209190612ccc565b604083015161243190612710612e87565b61243b9190612e9e565b106124e1576000828152600d60205260409020600901805460ff1916905561246161267d565b600b805460018181018355600092835260208083047f0175b7a638427703f0dbe7bb9bbf987a2551717b34e79f33b5b1008d1fa01db901805460ff601f9095166101000a948502191690931790925583516001600160a01b0316835260129091526040909120805460ff191690911790558051610d729030906064612553565b6000828152600d60205260409020600901805460ff191660011790556125056127f6565b5050600b80546001810182556000919091527f0175b7a638427703f0dbe7bb9bbf987a2551717b34e79f33b5b1008d1fa01db960208204018054601f9092166101000a60ff02199091169055565b604080516001600160a01b038481166024830152604480830185905283518084039091018152606490920183526020820180516001600160e01b031663a9059cbb60e01b17905291516000928392908716916125af9190612ec0565b6000604051808303816000865af19150503d80600081146125ec576040519150601f19603f3d011682016040523d82523d6000602084013e6125f1565b606091505b509150915081801561261b57508051158061261b57508080602001905181019061261b9190612edc565b6114165760405162461bcd60e51b815260206004820152602d60248201527f5472616e7366657248656c7065723a3a736166655472616e736665723a20747260448201526c185b9cd9995c8819985a5b1959609a1b6064820152608401610650565b6000600b8054806020026020016040519081016040528092919081815260200182805480156126eb57602002820191906000526020600020906000905b825461010083900a900460ff1615158152602060019283018181049485019490930390920291018084116126ba5790505b5050505050905080516000036126fe5750565b806001825161270d9190612cb9565b8151811061271d5761271d612d16565b60200260200101511515600115150361274e576001600660008282546127439190612ccc565b909155506127679050565b6001600860008282546127619190612ccc565b90915550505b60006007546006546127799190612ccc565b60065461278890612710612e87565b6127929190612e9e565b905060006009546008546127a69190612ccc565b6008546127b590612710612e87565b6127bf9190612e9e565b9050816127ce61271083612ccc565b6127d89190612cb9565b6127e482612710612e87565b6127ee9190612e9e565b600a55505050565b6000600b80548060200260200160405190810160405280929190818152602001828054801561286457602002820191906000526020600020906000905b825461010083900a900460ff1615158152602060019283018181049485019490930390920291018084116128335790505b5050505050905080516000036128775750565b80600182516128869190612cb9565b8151811061289657612896612d16565b6020026020010151151560011515036128c7576001600760008282546128bc9190612ccc565b909155506128e09050565b6001600960008282546128da9190612ccc565b90915550505b60006007546006546128f29190612ccc565b60075461290190612710612e87565b61290b9190612e9e565b9050600060095460085461291f9190612ccc565b60095461292e90612710612e87565b6129389190612e9e565b90508161294761271083612ccc565b6129519190612cb9565b61295d82612710612e87565b6129679190612e9e565b6127ee90612710612cb9565b60008060006040848603121561298857600080fd5b83359250602084013567ffffffffffffffff808211156129a757600080fd5b818601915086601f8301126129bb57600080fd5b8135818111156129ca57600080fd5b8760208285010111156129dc57600080fd5b6020830194508093505050509250925092565b600060208284031215612a0157600080fd5b5035919050565b634e487b7160e01b600052602160045260246000fd5b60048110612a3c57634e487b7160e01b600052602160045260246000fd5b9052565b6001600160a01b03891681526020810188905260408101879052606081018690526080810185905260a0810184905260c081018390526101008101612a8860e0830184612a1e565b9998505050505050505050565b80356001600160a01b0381168114612aac57600080fd5b919050565b600060208284031215612ac357600080fd5b612acc82612a95565b9392505050565b60008060408385031215612ae657600080fd5b612aef83612a95565b946020939093013593505050565b60006101408201905060018060a01b038c1682528a60208301528960408301528860608301528760808301528660a08301528560c08301528460e083015283610100830152612b50610120830184612a1e565b9b9a5050505050505050505050565b600080600060608486031215612b7457600080fd5b612b7d84612a95565b9250612b8b60208501612a95565b9150604084013590509250925092565b80151581146104d057600080fd5b60008060408385031215612bbc57600080fd5b823591506020830135612bce81612b9b565b809150509250929050565b60008060408385031215612bec57600080fd5b50508035926020909101359150565b60005b83811015612c16578181015183820152602001612bfe565b50506000910152565b60018060a01b03851681528360208201526080604082015260008351806080840152612c528160a0850160208801612bfb565b606083019390935250601f91909101601f19160160a0019392505050565b60008060408385031215612c8357600080fd5b612c8c83612a95565b9150612c9a60208401612a95565b90509250929050565b634e487b7160e01b600052601160045260246000fd5b818103818111156107e8576107e8612ca3565b808201808211156107e8576107e8612ca3565b60208082526017908201527f4170706c69636174696f6e206e6f742065787069726564000000000000000000604082015260600190565b634e487b7160e01b600052603260045260246000fd5b634e487b7160e01b600052604160045260246000fd5b600181811c90821680612d5657607f821691505b602082108103612d7657634e487b7160e01b600052602260045260246000fd5b50919050565b601f821115612dc257600081815260208120601f850160051c81016020861015612da35750805b601f850160051c820191505b81811015611d8b57828155600101612daf565b505050565b815167ffffffffffffffff811115612de157612de1612d2c565b612df581612def8454612d42565b84612d7c565b602080601f831160018114612e2a5760008415612e125750858301515b600019600386901b1c1916600185901b178555611d8b565b600085815260208120601f198616915b82811015612e5957888601518255948401946001909101908401612e3a565b5085821015612e775787850151600019600388901b60f8161c191681555b5050505050600190811b01905550565b80820281158282048414176107e8576107e8612ca3565b600082612ebb57634e487b7160e01b600052601260045260246000fd5b500490565b60008251612ed2818460208701612bfb565b9190910192915050565b600060208284031215612eee57600080fd5b8151612acc81612b9b56fea26469706673582212207974d4d6caf4a47627693dd152445fea15366835fca6d4165c799405a7f1592a64736f6c63430008120033",
    "linkReferences": {}
  },
  "methodIdentifiers": {
    "ARTICLEREGISTRATIONEXPIRY()": "f51c198f",
    "CHALLEGEEXPIRY()": "f3c4f7ba",
    "DECIMALS()": "2e0f2625",
    "PARTICIPATIONEXPIRY()": "63e4851a",
    "REGISTRATIONDEPOSIT()": "dfa23ba6",
    "VOTINGEXPIRY()": "540fd28e",
    "_pi_quorum()": "826d053a",
    "aVoteParticipate(uint256,uint256)": "3ac16074",
    "allowance(address,address)": "dd62ed3e",
    "approve(address,uint256)": "095ea7b3",
    "articleRegister(uint256,string)": "012d0ec1",
    "articles(uint256,uint256)": "c419fb98",
    "balanceOf(address)": "70a08231",
    "challenge(uint256)": "ab82d9a0",
    "claimRewardA(uint256,uint256)": "d966a540",
    "claimRewardW(uint256)": "94440679",
    "decimals()": "313ce567",
    "members(address)": "08ae4b0c",
    "mint(address,uint256)": "40c10f19",
    "proposalids(uint256)": "9c9eacb2",
    "proposals(uint256)": "013cf08b",
    "propose(uint256)": "a618b74e",
    "totalSupply()": "18160ddd",
    "transfer(address,uint256)": "a9059cbb",
    "transferFrom(address,address,uint256)": "23b872dd",
    "voteRanking(uint256,uint256)": "af8b9f7a",
    "voteRegister(uint256,bool)": "3616db13",
    "wRegisterids(uint256)": "ed047761",
    "wVoteParticipate(uint256,uint256)": "494bdc02",
    "writerRegister()": "91429dd3",
    "writerRegistrations(uint256)": "197eb393",
    "writers(address)": "8e7e80a2"
  },
  "id": 17
}